{
  "contractName": "CAJCoin",
  "abi": [
    {
      "constant": true,
      "inputs": [],
      "name": "name",
      "outputs": [
        {
          "name": "",
          "type": "string"
        }
      ],
      "payable": false,
      "stateMutability": "view",
      "type": "function"
    },
    {
      "constant": true,
      "inputs": [],
      "name": "decimals",
      "outputs": [
        {
          "name": "",
          "type": "uint8"
        }
      ],
      "payable": false,
      "stateMutability": "view",
      "type": "function"
    },
    {
      "constant": true,
      "inputs": [],
      "name": "totalSup",
      "outputs": [
        {
          "name": "",
          "type": "uint256"
        }
      ],
      "payable": false,
      "stateMutability": "view",
      "type": "function"
    },
    {
      "constant": true,
      "inputs": [],
      "name": "symbol",
      "outputs": [
        {
          "name": "",
          "type": "string"
        }
      ],
      "payable": false,
      "stateMutability": "view",
      "type": "function"
    },
    {
      "inputs": [],
      "payable": false,
      "stateMutability": "nonpayable",
      "type": "constructor"
    },
    {
      "anonymous": false,
      "inputs": [
        {
          "indexed": true,
          "name": "_owner",
          "type": "address"
        },
        {
          "indexed": true,
          "name": "_spender",
          "type": "address"
        },
        {
          "indexed": false,
          "name": "_value",
          "type": "uint256"
        }
      ],
      "name": "Approval",
      "type": "event"
    },
    {
      "anonymous": false,
      "inputs": [
        {
          "indexed": true,
          "name": "from",
          "type": "address"
        },
        {
          "indexed": true,
          "name": "to",
          "type": "address"
        },
        {
          "indexed": false,
          "name": "value",
          "type": "uint256"
        }
      ],
      "name": "Transfer",
      "type": "event"
    },
    {
      "constant": true,
      "inputs": [],
      "name": "totalSupply",
      "outputs": [
        {
          "name": "",
          "type": "uint256"
        }
      ],
      "payable": false,
      "stateMutability": "view",
      "type": "function"
    },
    {
      "constant": false,
      "inputs": [
        {
          "name": "_owner",
          "type": "address"
        }
      ],
      "name": "balanceOf",
      "outputs": [
        {
          "name": "balance",
          "type": "uint256"
        }
      ],
      "payable": false,
      "stateMutability": "nonpayable",
      "type": "function"
    },
    {
      "constant": false,
      "inputs": [
        {
          "name": "_to",
          "type": "address"
        },
        {
          "name": "_amount",
          "type": "uint256"
        }
      ],
      "name": "transfer",
      "outputs": [
        {
          "name": "success",
          "type": "bool"
        }
      ],
      "payable": false,
      "stateMutability": "nonpayable",
      "type": "function"
    },
    {
      "constant": false,
      "inputs": [
        {
          "name": "_from",
          "type": "address"
        },
        {
          "name": "_to",
          "type": "address"
        },
        {
          "name": "_amount",
          "type": "uint256"
        }
      ],
      "name": "transferFrom",
      "outputs": [
        {
          "name": "success",
          "type": "bool"
        }
      ],
      "payable": false,
      "stateMutability": "nonpayable",
      "type": "function"
    },
    {
      "constant": false,
      "inputs": [
        {
          "name": "_spender",
          "type": "address"
        },
        {
          "name": "_amount",
          "type": "uint256"
        }
      ],
      "name": "approve",
      "outputs": [
        {
          "name": "success",
          "type": "bool"
        }
      ],
      "payable": false,
      "stateMutability": "nonpayable",
      "type": "function"
    },
    {
      "constant": false,
      "inputs": [
        {
          "name": "_from",
          "type": "address"
        },
        {
          "name": "_to",
          "type": "uint256"
        },
        {
          "name": "_amount",
          "type": "uint256"
        }
      ],
      "name": "stakeTokens",
      "outputs": [
        {
          "name": "success",
          "type": "bool"
        }
      ],
      "payable": false,
      "stateMutability": "nonpayable",
      "type": "function"
    },
    {
      "constant": false,
      "inputs": [
        {
          "name": "_from",
          "type": "uint256"
        },
        {
          "name": "_to",
          "type": "address"
        },
        {
          "name": "_amount",
          "type": "uint256"
        }
      ],
      "name": "collectTokens",
      "outputs": [
        {
          "name": "success",
          "type": "bool"
        }
      ],
      "payable": false,
      "stateMutability": "nonpayable",
      "type": "function"
    },
    {
      "constant": false,
      "inputs": [
        {
          "name": "_paperID",
          "type": "uint256"
        }
      ],
      "name": "paperBalance",
      "outputs": [
        {
          "name": "balance",
          "type": "uint256"
        }
      ],
      "payable": false,
      "stateMutability": "nonpayable",
      "type": "function"
    },
    {
      "constant": false,
      "inputs": [
        {
          "name": "_paperID",
          "type": "uint256"
        },
        {
          "name": "_user",
          "type": "address"
        }
      ],
      "name": "tokensStakedByUser",
      "outputs": [
        {
          "name": "amount",
          "type": "uint256"
        }
      ],
      "payable": false,
      "stateMutability": "nonpayable",
      "type": "function"
    }
  ],
  "bytecode": "0x60806040523480156200001157600080fd5b506040805190810160405280600781526020017f43414a436f696e00000000000000000000000000000000000000000000000000815250600090805190602001906200005f92919062000245565b506040805190810160405280600381526020017f43414a000000000000000000000000000000000000000000000000000000000081525060019080519060200190620000ad92919062000245565b506012600260006101000a81548160ff021916908360ff16021790555033600760006101000a81548173ffffffffffffffffffffffffffffffffffffffff021916908373ffffffffffffffffffffffffffffffffffffffff160217905550600260009054906101000a900460ff1660ff16600a0a620f42400260038190555060035460046000600760009054906101000a900473ffffffffffffffffffffffffffffffffffffffff1673ffffffffffffffffffffffffffffffffffffffff1673ffffffffffffffffffffffffffffffffffffffff16815260200190815260200160002081905550600760009054906101000a900473ffffffffffffffffffffffffffffffffffffffff1673ffffffffffffffffffffffffffffffffffffffff16600760009054906101000a900473ffffffffffffffffffffffffffffffffffffffff1673ffffffffffffffffffffffffffffffffffffffff167fddf252ad1be2c89b69c2b068fc378daa952ba7f163c4a11628f55a4df523b3ef6003546040518082815260200191505060405180910390a3620002f4565b828054600181600116156101000203166002900490600052602060002090601f016020900481019282601f106200028857805160ff1916838001178555620002b9565b82800160010185558215620002b9579182015b82811115620002b85782518255916020019190600101906200029b565b5b509050620002c89190620002cc565b5090565b620002f191905b80821115620002ed576000816000905550600101620002d3565b5090565b90565b6118aa80620003046000396000f3fe6080604052600436106100c5576000357c0100000000000000000000000000000000000000000000000000000000900463ffffffff1680630356613b146100ca57806306fdde0314610147578063095ea7b3146101d75780630cff8e8f1461024a57806318160ddd146102c757806323b872dd146102f2578063313ce5671461038557806356bdaf3a146103b657806370a082311461040557806380fc5d171461046a5780638282469d1461049557806395d89b4114610504578063a9059cbb14610594575b600080fd5b3480156100d657600080fd5b5061012d600480360360608110156100ed57600080fd5b8101908080359060200190929190803573ffffffffffffffffffffffffffffffffffffffff16906020019092919080359060200190929190505050610607565b604051808215151515815260200191505060405180910390f35b34801561015357600080fd5b5061015c610806565b6040518080602001828103825283818151815260200191508051906020019080838360005b8381101561019c578082015181840152602081019050610181565b50505050905090810190601f1680156101c95780820380516001836020036101000a031916815260200191505b509250505060405180910390f35b3480156101e357600080fd5b50610230600480360360408110156101fa57600080fd5b81019080803573ffffffffffffffffffffffffffffffffffffffff169060200190929190803590602001909291905050506108a4565b604051808215151515815260200191505060405180910390f35b34801561025657600080fd5b506102ad6004803603606081101561026d57600080fd5b81019080803573ffffffffffffffffffffffffffffffffffffffff1690602001909291908035906020019092919080359060200190929190505050610996565b604051808215151515815260200191505060405180910390f35b3480156102d357600080fd5b506102dc610bf3565b6040518082815260200191505060405180910390f35b3480156102fe57600080fd5b5061036b6004803603606081101561031557600080fd5b81019080803573ffffffffffffffffffffffffffffffffffffffff169060200190929190803573ffffffffffffffffffffffffffffffffffffffff16906020019092919080359060200190929190505050610bfd565b604051808215151515815260200191505060405180910390f35b34801561039157600080fd5b5061039a610e6e565b604051808260ff1660ff16815260200191505060405180910390f35b3480156103c257600080fd5b506103ef600480360360208110156103d957600080fd5b8101908080359060200190929190505050610e81565b6040518082815260200191505060405180910390f35b34801561041157600080fd5b506104546004803603602081101561042857600080fd5b81019080803573ffffffffffffffffffffffffffffffffffffffff169060200190929190505050610e9e565b6040518082815260200191505060405180910390f35b34801561047657600080fd5b5061047f610ee7565b6040518082815260200191505060405180910390f35b3480156104a157600080fd5b506104ee600480360360408110156104b857600080fd5b8101908080359060200190929190803573ffffffffffffffffffffffffffffffffffffffff169060200190929190505050610eed565b6040518082815260200191505060405180910390f35b34801561051057600080fd5b50610519610f48565b6040518080602001828103825283818151815260200191508051906020019080838360005b8381101561055957808201518184015260208101905061053e565b50505050905090810190601f1680156105865780820380516001836020036101000a031916815260200191505b509250505060405180910390f35b3480156105a057600080fd5b506105ed600480360360408110156105b757600080fd5b81019080803573ffffffffffffffffffffffffffffffffffffffff16906020019092919080359060200190929190505050610fe6565b604051808215151515815260200191505060405180910390f35b600061061383836111ac565b80156106255750610624848361126a565b5b801561071a5750600860009054906101000a900473ffffffffffffffffffffffffffffffffffffffff1673ffffffffffffffffffffffffffffffffffffffff16633ad10ef66040518163ffffffff167c010000000000000000000000000000000000000000000000000000000002815260040160206040518083038186803b1580156106b057600080fd5b505afa1580156106c4573d6000803e3d6000fd5b505050506040513d60208110156106da57600080fd5b810190808051906020019092919050505073ffffffffffffffffffffffffffffffffffffffff163373ffffffffffffffffffffffffffffffffffffffff16145b156107fa5761074582600560008781526020019081526020016000205461153390919063ffffffff16565b60056000868152602001908152602001600020819055506107ae82600460008673ffffffffffffffffffffffffffffffffffffffff1673ffffffffffffffffffffffffffffffffffffffff1681526020019081526020016000205461155590919063ffffffff16565b600460008573ffffffffffffffffffffffffffffffffffffffff1673ffffffffffffffffffffffffffffffffffffffff16815260200190815260200160002081905550600190506107ff565b600090505b9392505050565b60008054600181600116156101000203166002900480601f01602080910402602001604051908101604052809291908181526020018280546001816001161561010002031660029004801561089c5780601f106108715761010080835404028352916020019161089c565b820191906000526020600020905b81548152906001019060200180831161087f57829003601f168201915b505050505081565b600081600960003373ffffffffffffffffffffffffffffffffffffffff1673ffffffffffffffffffffffffffffffffffffffff16815260200190815260200160002060008573ffffffffffffffffffffffffffffffffffffffff1673ffffffffffffffffffffffffffffffffffffffff168152602001908152602001600020819055508273ffffffffffffffffffffffffffffffffffffffff163373ffffffffffffffffffffffffffffffffffffffff167f8c5be1e5ebec7d5bd14f71427d1e84f3dd0314c0f7b2291e5b200ac8c7c3b925846040518082815260200191505060405180910390a36001905092915050565b60006109a28483611576565b80156109b457506109b383836116ad565b5b8015610aa95750600860009054906101000a900473ffffffffffffffffffffffffffffffffffffffff1673ffffffffffffffffffffffffffffffffffffffff16633ad10ef66040518163ffffffff167c010000000000000000000000000000000000000000000000000000000002815260040160206040518083038186803b158015610a3f57600080fd5b505afa158015610a53573d6000803e3d6000fd5b505050506040513d6020811015610a6957600080fd5b810190808051906020019092919050505073ffffffffffffffffffffffffffffffffffffffff163373ffffffffffffffffffffffffffffffffffffffff16145b15610be757610b0082600460008773ffffffffffffffffffffffffffffffffffffffff1673ffffffffffffffffffffffffffffffffffffffff1681526020019081526020016000205461153390919063ffffffff16565b600460008673ffffffffffffffffffffffffffffffffffffffff1673ffffffffffffffffffffffffffffffffffffffff16815260200190815260200160002081905550610b6982600560008681526020019081526020016000205461155590919063ffffffff16565b6005600085815260200190815260200160002081905550816006600085815260200190815260200160002060008673ffffffffffffffffffffffffffffffffffffffff1673ffffffffffffffffffffffffffffffffffffffff1681526020019081526020016000206000828254019250508190555060019050610bec565b600090505b9392505050565b6000600354905090565b6000610c098483611576565b8015610c1b5750610c1a83836111ac565b5b15610e6257610c7282600460008773ffffffffffffffffffffffffffffffffffffffff1673ffffffffffffffffffffffffffffffffffffffff1681526020019081526020016000205461153390919063ffffffff16565b600460008673ffffffffffffffffffffffffffffffffffffffff1673ffffffffffffffffffffffffffffffffffffffff16815260200190815260200160002081905550610d4482600960008773ffffffffffffffffffffffffffffffffffffffff1673ffffffffffffffffffffffffffffffffffffffff16815260200190815260200160002060003373ffffffffffffffffffffffffffffffffffffffff1673ffffffffffffffffffffffffffffffffffffffff1681526020019081526020016000205461153390919063ffffffff16565b600960008673ffffffffffffffffffffffffffffffffffffffff1673ffffffffffffffffffffffffffffffffffffffff16815260200190815260200160002060003373ffffffffffffffffffffffffffffffffffffffff1673ffffffffffffffffffffffffffffffffffffffff16815260200190815260200160002081905550610e1682600460008673ffffffffffffffffffffffffffffffffffffffff1673ffffffffffffffffffffffffffffffffffffffff1681526020019081526020016000205461155590919063ffffffff16565b600460008573ffffffffffffffffffffffffffffffffffffffff1673ffffffffffffffffffffffffffffffffffffffff1681526020019081526020016000208190555060019050610e67565b600090505b9392505050565b600260009054906101000a900460ff1681565b600060056000838152602001908152602001600020549050919050565b6000600460008373ffffffffffffffffffffffffffffffffffffffff1673ffffffffffffffffffffffffffffffffffffffff168152602001908152602001600020549050919050565b60035481565b60006006600084815260200190815260200160002060008373ffffffffffffffffffffffffffffffffffffffff1673ffffffffffffffffffffffffffffffffffffffff16815260200190815260200160002054905092915050565b60018054600181600116156101000203166002900480601f016020809104026020016040519081016040528092919081815260200182805460018160011615610100020316600290048015610fde5780601f10610fb357610100808354040283529160200191610fde565b820191906000526020600020905b815481529060010190602001808311610fc157829003601f168201915b505050505081565b6000610ff23383611576565b8015611004575061100383836111ac565b5b156111a15761105b82600460003373ffffffffffffffffffffffffffffffffffffffff1673ffffffffffffffffffffffffffffffffffffffff1681526020019081526020016000205461153390919063ffffffff16565b600460003373ffffffffffffffffffffffffffffffffffffffff1673ffffffffffffffffffffffffffffffffffffffff168152602001908152602001600020819055506110f082600460008673ffffffffffffffffffffffffffffffffffffffff1673ffffffffffffffffffffffffffffffffffffffff1681526020019081526020016000205461155590919063ffffffff16565b600460008573ffffffffffffffffffffffffffffffffffffffff1673ffffffffffffffffffffffffffffffffffffffff168152602001908152602001600020819055508273ffffffffffffffffffffffffffffffffffffffff163373ffffffffffffffffffffffffffffffffffffffff167fddf252ad1be2c89b69c2b068fc378daa952ba7f163c4a11628f55a4df523b3ef846040518082815260200191505060405180910390a3600190506111a6565b600090505b92915050565b600080600190508080156111c05750600083115b905080801561125e5750600460008573ffffffffffffffffffffffffffffffffffffffff1673ffffffffffffffffffffffffffffffffffffffff1681526020019081526020016000205461125c84600460008873ffffffffffffffffffffffffffffffffffffffff1673ffffffffffffffffffffffffffffffffffffffff1681526020019081526020016000205461155590919063ffffffff16565b115b90508091505092915050565b6000806001905080801561127e5750600083115b90508080156113555750600860009054906101000a900473ffffffffffffffffffffffffffffffffffffffff1673ffffffffffffffffffffffffffffffffffffffff16637d644de6856040518263ffffffff167c010000000000000000000000000000000000000000000000000000000002815260040180828152602001915050602060405180830381600087803b15801561131957600080fd5b505af115801561132d573d6000803e3d6000fd5b505050506040513d602081101561134357600080fd5b81019080805190602001909291905050505b905080801561142f57506002600860009054906101000a900473ffffffffffffffffffffffffffffffffffffffff1673ffffffffffffffffffffffffffffffffffffffff16632ec3a85e866040518263ffffffff167c010000000000000000000000000000000000000000000000000000000002815260040180828152602001915050602060405180830381600087803b1580156113f257600080fd5b505af1158015611406573d6000803e3d6000fd5b505050506040513d602081101561141c57600080fd5b8101908080519060200190929190505050145b8061150557506004600860009054906101000a900473ffffffffffffffffffffffffffffffffffffffff1673ffffffffffffffffffffffffffffffffffffffff16632ec3a85e866040518263ffffffff167c010000000000000000000000000000000000000000000000000000000002815260040180828152602001915050602060405180830381600087803b1580156114c857600080fd5b505af11580156114dc573d6000803e3d6000fd5b505050506040513d60208110156114f257600080fd5b8101908080519060200190929190505050145b9050808015611527575082600560008681526020019081526020016000205410155b90508091505092915050565b600082821115151561154457600080fd5b600082840390508091505092915050565b600080828401905083811015151561156c57600080fd5b8091505092915050565b6000806001905080801561158a5750600083115b90508373ffffffffffffffffffffffffffffffffffffffff163373ffffffffffffffffffffffffffffffffffffffff1614156116175780801561160c575082600460008673ffffffffffffffffffffffffffffffffffffffff1673ffffffffffffffffffffffffffffffffffffffff1681526020019081526020016000205410155b9050809150506116a7565b8080156116a0575082600960008673ffffffffffffffffffffffffffffffffffffffff1673ffffffffffffffffffffffffffffffffffffffff16815260200190815260200160002060003373ffffffffffffffffffffffffffffffffffffffff1673ffffffffffffffffffffffffffffffffffffffff1681526020019081526020016000205410155b9050809150505b92915050565b600080600190508080156116c15750600083115b90508080156117985750600860009054906101000a900473ffffffffffffffffffffffffffffffffffffffff1673ffffffffffffffffffffffffffffffffffffffff16637d644de6856040518263ffffffff167c010000000000000000000000000000000000000000000000000000000002815260040180828152602001915050602060405180830381600087803b15801561175c57600080fd5b505af1158015611770573d6000803e3d6000fd5b505050506040513d602081101561178657600080fd5b81019080805190602001909291905050505b905080801561187257506000600860009054906101000a900473ffffffffffffffffffffffffffffffffffffffff1673ffffffffffffffffffffffffffffffffffffffff16632ec3a85e866040518263ffffffff167c010000000000000000000000000000000000000000000000000000000002815260040180828152602001915050602060405180830381600087803b15801561183557600080fd5b505af1158015611849573d6000803e3d6000fd5b505050506040513d602081101561185f57600080fd5b8101908080519060200190929190505050145b9050809150509291505056fea165627a7a72305820a0fb59371528f8f014c3642375e6827c35822f45ec909768d63bbee801bf0c860029",
  "source": "//current token skeleton pulled from \r\n//https://theethereum.wiki/w/index.php/ERC20_Token_Standard and part of object task\r\npragma solidity 0.5.0;\r\n\r\nimport \"./IERC20.sol\";\r\nimport \"./SafeMath.sol\";\r\nimport \"./Review.sol\";\r\n\r\ncontract CAJCoin { \r\n    \r\n    //import safemath\r\n    using SafeMath for uint256;\r\n\r\n    //Genreal Parameters\r\n    string public name; \r\n    string public symbol; \r\n    uint8 public decimals;\r\n    uint256 public totalSup;\r\n    \r\n    // Balances for each type of account\r\n    mapping(address => uint256) private balances;\r\n    mapping(uint256 => uint256) private paperBalances;\r\n\r\n    //tokens staked on each paper by each user\r\n    mapping(uint256 => mapping(address => uint256)) private userTokensStaked;\r\n\r\n    //dev address\r\n    address private devAddress;\r\n\r\n    //paper database contract\r\n    Review archive;\r\n\r\n    // Events\r\n    event Approval(address indexed _owner, address indexed _spender, uint256 _value);\r\n    event Transfer(address indexed from, address indexed to, uint256 value);\r\n    \r\n    // Owner of account approves the transfer of an amount to another account\r\n    mapping(address => mapping (address => uint256)) allowed;\r\n\r\n    // SECURITY HELPER METHODS\r\n    function userCanSend(address _user, uint256 _amount) private returns (bool success) {\r\n        bool b = true;\r\n        b = b && _amount > 0;\r\n        if (msg.sender == _user) {\r\n            b = b && balances[_user] >= _amount ;\r\n            return b;\r\n        } else {\r\n            b = b && allowed[_user][msg.sender] >= _amount;\r\n            return b;\r\n        }\r\n    }\r\n\r\n    function userCanRecive(address _user, uint256 _amount) private returns (bool success) {\r\n        bool b = true;\r\n        b = b && _amount > 0;\r\n        b = b && (balances[_user].add(_amount)) > balances[_user];\r\n        return b;\r\n    }\r\n\r\n    function paperCanRecive(uint256 _paper, uint256 _amount) private returns (bool success) {\r\n        bool b = true;\r\n        b = b && _amount > 0;\r\n        b = b && archive.paperExists(_paper);\r\n        b = b && archive.getPaperState(_paper) == 0;\r\n        return b;\r\n    }\r\n\r\n    function paperCanSend(uint256 _paper, uint256 _amount) private returns (bool success) {\r\n        bool b = true;\r\n        b = b && _amount > 0;\r\n        b = b && archive.paperExists(_paper);\r\n        b = b && archive.getPaperState(_paper) == 2 || archive.getPaperState(_paper) == 4;\r\n        b = b && paperBalances[_paper] >= _amount;\r\n        return b;\r\n    }\r\n\r\n    // This is the constructor and automatically runs when the smart contract is uploaded\r\n    constructor() public { \r\n        name = \"CAJCoin\"; \r\n        symbol = \"CAJ\"; \r\n        decimals = 18; \r\n        \r\n        //need to fix below\r\n        devAddress = msg.sender;\r\n        totalSup = 1000000 * 10**uint(decimals);\r\n        balances[devAddress] = totalSup;\r\n        emit Transfer(devAddress, devAddress, totalSup);\r\n    }\r\n\r\n    //get total supply\r\n    function totalSupply() external view returns (uint256) {\r\n        return totalSup;\r\n    }\r\n\r\n    //get balance of a user account\r\n    function balanceOf(address _owner) public returns (uint256 balance) {\r\n        return balances[_owner];\r\n    }\r\n\r\n    // Transfer the balance from owner's account to another account\r\n    function transfer(address _to, uint256 _amount) public  returns (bool success) {\r\n        if (userCanSend(msg.sender, _amount) && userCanRecive(_to, _amount)) {\r\n            balances[msg.sender] = balances[msg.sender].sub(_amount);\r\n            balances[_to] = balances[_to].add(_amount);\r\n            emit Transfer(msg.sender, _to, _amount); \r\n            return true;\r\n        } else {\r\n            return false;\r\n        }\r\n    }\r\n\r\n    //transer from someone else's account to another accound\r\n    function transferFrom(address _from, address _to, uint256 _amount) public returns (bool success) {\r\n        if (userCanSend(_from, _amount) && userCanRecive(_to, _amount)) {\r\n            balances[_from] = balances[_from].sub(_amount);\r\n            allowed[_from][msg.sender] = allowed[_from][msg.sender].sub(_amount);\r\n            balances[_to] = balances[_to].add(_amount);\r\n            return true;\r\n        } else {\r\n            return false;\r\n        }\r\n    }\r\n    // Allow _spender to withdraw from your account, multiple times, up to the _value amount.\r\n    // If this function is called again it overwrites the current allowance with _value.\r\n    function approve(address _spender, uint256 _amount) external returns (bool success) {\r\n        allowed[msg.sender][_spender] = _amount;\r\n        emit Approval(msg.sender, _spender, _amount);\r\n        return true;\r\n    }\r\n\r\n    //mapping(uint256 => mapping(address => uint256)) private userTokensStaked;\r\n    //Stake a token on a paper, this will be called from the other contract\r\n    function stakeTokens(address _from, uint256 _to, uint256 _amount) external returns (bool success) {\r\n        if (userCanSend(_from, _amount) && paperCanRecive(_to, _amount)\r\n            && msg.sender == archive.devAddress()) {\r\n            balances[_from] = balances[_from].sub(_amount);\r\n            paperBalances[_to] = paperBalances[_to].add(_amount);\r\n            userTokensStaked[_to][_from] += _amount; \r\n            return true;\r\n        } else {\r\n            return false;\r\n        }\r\n    }\r\n\r\n    //Collect a token from a paper, this will also be run from the other contract\r\n    function collectTokens(uint256 _from, address _to, uint256 _amount) external  returns (bool success) {\r\n        if (userCanRecive(_to, _amount) && paperCanSend(_from, _amount)\r\n            && msg.sender == archive.devAddress()) {\r\n            paperBalances[_from] = paperBalances[_from].sub(_amount);\r\n            balances[_to] = balances[_to].add(_amount);\r\n            return true;\r\n        } else {\r\n            return false;\r\n        }\r\n    }\r\n\r\n    //Return the balance of a paper account\r\n    function paperBalance(uint256 _paperID) public returns (uint256 balance) {\r\n        return paperBalances[_paperID];\r\n    }\r\n\r\n    function tokensStakedByUser(uint256 _paperID, address _user) public returns (uint256 amount) {\r\n        return userTokensStaked[_paperID][_user];\r\n    }\r\n}",
  "sourcePath": "C:\\Users\\Joe\\Development\\curatedacademicjournal\\contracts\\CAJCoin.sol",
  "compiler": {
    "name": "solc",
    "version": "0.5.0+commit.1d4f565a.Emscripten.clang"
  },
  "schemaVersion": "3.0.2",
  "updatedAt": "2019-04-28T20:44:08.459Z",
  "devdoc": {
    "methods": {}
  },
  "userdoc": {
    "methods": {}
  }
}