{
  "contractName": "CAJCoin",
  "abi": [
    {
      "constant": true,
      "inputs": [],
      "name": "name",
      "outputs": [
        {
          "name": "",
          "type": "string"
        }
      ],
      "payable": false,
      "stateMutability": "view",
      "type": "function",
      "signature": "0x06fdde03"
    },
    {
      "constant": true,
      "inputs": [],
      "name": "decimals",
      "outputs": [
        {
          "name": "",
          "type": "uint8"
        }
      ],
      "payable": false,
      "stateMutability": "view",
      "type": "function",
      "signature": "0x313ce567"
    },
    {
      "constant": true,
      "inputs": [],
      "name": "totalSup",
      "outputs": [
        {
          "name": "",
          "type": "uint256"
        }
      ],
      "payable": false,
      "stateMutability": "view",
      "type": "function",
      "signature": "0x80fc5d17"
    },
    {
      "constant": true,
      "inputs": [],
      "name": "symbol",
      "outputs": [
        {
          "name": "",
          "type": "string"
        }
      ],
      "payable": false,
      "stateMutability": "view",
      "type": "function",
      "signature": "0x95d89b41"
    },
    {
      "inputs": [],
      "payable": false,
      "stateMutability": "nonpayable",
      "type": "constructor",
      "signature": "constructor"
    },
    {
      "anonymous": false,
      "inputs": [
        {
          "indexed": true,
          "name": "_owner",
          "type": "address"
        },
        {
          "indexed": true,
          "name": "_spender",
          "type": "address"
        },
        {
          "indexed": false,
          "name": "_value",
          "type": "uint256"
        }
      ],
      "name": "Approval",
      "type": "event",
      "signature": "0x8c5be1e5ebec7d5bd14f71427d1e84f3dd0314c0f7b2291e5b200ac8c7c3b925"
    },
    {
      "anonymous": false,
      "inputs": [
        {
          "indexed": true,
          "name": "from",
          "type": "address"
        },
        {
          "indexed": true,
          "name": "to",
          "type": "address"
        },
        {
          "indexed": false,
          "name": "value",
          "type": "uint256"
        }
      ],
      "name": "Transfer",
      "type": "event",
      "signature": "0xddf252ad1be2c89b69c2b068fc378daa952ba7f163c4a11628f55a4df523b3ef"
    },
    {
      "constant": true,
      "inputs": [],
      "name": "totalSupply",
      "outputs": [
        {
          "name": "",
          "type": "uint256"
        }
      ],
      "payable": false,
      "stateMutability": "view",
      "type": "function",
      "signature": "0x18160ddd"
    },
    {
      "constant": false,
      "inputs": [
        {
          "name": "_owner",
          "type": "address"
        }
      ],
      "name": "balanceOf",
      "outputs": [
        {
          "name": "balance",
          "type": "uint256"
        }
      ],
      "payable": false,
      "stateMutability": "nonpayable",
      "type": "function",
      "signature": "0x70a08231"
    },
    {
      "constant": false,
      "inputs": [
        {
          "name": "_to",
          "type": "address"
        },
        {
          "name": "_amount",
          "type": "uint256"
        }
      ],
      "name": "transfer",
      "outputs": [
        {
          "name": "success",
          "type": "bool"
        }
      ],
      "payable": false,
      "stateMutability": "nonpayable",
      "type": "function",
      "signature": "0xa9059cbb"
    },
    {
      "constant": false,
      "inputs": [
        {
          "name": "_from",
          "type": "address"
        },
        {
          "name": "_to",
          "type": "address"
        },
        {
          "name": "_amount",
          "type": "uint256"
        }
      ],
      "name": "transferFrom",
      "outputs": [
        {
          "name": "success",
          "type": "bool"
        }
      ],
      "payable": false,
      "stateMutability": "nonpayable",
      "type": "function",
      "signature": "0x23b872dd"
    },
    {
      "constant": false,
      "inputs": [
        {
          "name": "_spender",
          "type": "address"
        },
        {
          "name": "_amount",
          "type": "uint256"
        }
      ],
      "name": "approve",
      "outputs": [
        {
          "name": "success",
          "type": "bool"
        }
      ],
      "payable": false,
      "stateMutability": "nonpayable",
      "type": "function",
      "signature": "0x095ea7b3"
    },
    {
      "constant": false,
      "inputs": [
        {
          "name": "_from",
          "type": "address"
        },
        {
          "name": "_to",
          "type": "uint256"
        },
        {
          "name": "_amount",
          "type": "uint256"
        }
      ],
      "name": "stakeTokens",
      "outputs": [
        {
          "name": "success",
          "type": "bool"
        }
      ],
      "payable": false,
      "stateMutability": "nonpayable",
      "type": "function",
      "signature": "0x0cff8e8f"
    },
    {
      "constant": false,
      "inputs": [
        {
          "name": "_from",
          "type": "uint256"
        },
        {
          "name": "_to",
          "type": "address"
        },
        {
          "name": "_amount",
          "type": "uint256"
        }
      ],
      "name": "collectTokens",
      "outputs": [
        {
          "name": "success",
          "type": "bool"
        }
      ],
      "payable": false,
      "stateMutability": "nonpayable",
      "type": "function",
      "signature": "0x0356613b"
    },
    {
      "constant": false,
      "inputs": [
        {
          "name": "_paperID",
          "type": "uint256"
        }
      ],
      "name": "paperBalance",
      "outputs": [
        {
          "name": "balance",
          "type": "uint256"
        }
      ],
      "payable": false,
      "stateMutability": "nonpayable",
      "type": "function",
      "signature": "0x56bdaf3a"
    },
    {
      "constant": false,
      "inputs": [
        {
          "name": "_paperID",
          "type": "uint256"
        },
        {
          "name": "_user",
          "type": "address"
        }
      ],
      "name": "tokensStakedByUser",
      "outputs": [
        {
          "name": "amount",
          "type": "uint256"
        }
      ],
      "payable": false,
      "stateMutability": "nonpayable",
      "type": "function",
      "signature": "0x8282469d"
    },
    {
      "constant": false,
      "inputs": [
        {
          "name": "addr",
          "type": "address"
        }
      ],
      "name": "setContract",
      "outputs": [],
      "payable": false,
      "stateMutability": "nonpayable",
      "type": "function",
      "signature": "0x75f890ab"
    }
  ],
  "bytecode": "0x60806040523480156200001157600080fd5b506040805190810160405280600781526020017f43414a436f696e00000000000000000000000000000000000000000000000000815250600090805190602001906200005f92919062000245565b506040805190810160405280600381526020017f43414a000000000000000000000000000000000000000000000000000000000081525060019080519060200190620000ad92919062000245565b506012600260006101000a81548160ff021916908360ff16021790555033600860006101000a81548173ffffffffffffffffffffffffffffffffffffffff021916908373ffffffffffffffffffffffffffffffffffffffff160217905550600260009054906101000a900460ff1660ff16600a0a620f42400260038190555060035460056000600860009054906101000a900473ffffffffffffffffffffffffffffffffffffffff1673ffffffffffffffffffffffffffffffffffffffff1673ffffffffffffffffffffffffffffffffffffffff16815260200190815260200160002081905550600860009054906101000a900473ffffffffffffffffffffffffffffffffffffffff1673ffffffffffffffffffffffffffffffffffffffff16600860009054906101000a900473ffffffffffffffffffffffffffffffffffffffff1673ffffffffffffffffffffffffffffffffffffffff167fddf252ad1be2c89b69c2b068fc378daa952ba7f163c4a11628f55a4df523b3ef6003546040518082815260200191505060405180910390a3620002f4565b828054600181600116156101000203166002900490600052602060002090601f016020900481019282601f106200028857805160ff1916838001178555620002b9565b82800160010185558215620002b9579182015b82811115620002b85782518255916020019190600101906200029b565b5b509050620002c89190620002cc565b5090565b620002f191905b80821115620002ed576000816000905550600101620002d3565b5090565b90565b611ac380620003046000396000f3fe6080604052600436106100d0576000357c0100000000000000000000000000000000000000000000000000000000900463ffffffff1680630356613b146100d557806306fdde0314610152578063095ea7b3146101e25780630cff8e8f1461025557806318160ddd146102d257806323b872dd146102fd578063313ce5671461039057806356bdaf3a146103c157806370a082311461041057806375f890ab1461047557806380fc5d17146104c65780638282469d146104f157806395d89b4114610560578063a9059cbb146105f0575b600080fd5b3480156100e157600080fd5b50610138600480360360608110156100f857600080fd5b8101908080359060200190929190803573ffffffffffffffffffffffffffffffffffffffff16906020019092919080359060200190929190505050610663565b604051808215151515815260200191505060405180910390f35b34801561015e57600080fd5b506101676107c6565b6040518080602001828103825283818151815260200191508051906020019080838360005b838110156101a757808201518184015260208101905061018c565b50505050905090810190601f1680156101d45780820380516001836020036101000a031916815260200191505b509250505060405180910390f35b3480156101ee57600080fd5b5061023b6004803603604081101561020557600080fd5b81019080803573ffffffffffffffffffffffffffffffffffffffff16906020019092919080359060200190929190505050610864565b604051808215151515815260200191505060405180910390f35b34801561026157600080fd5b506102b86004803603606081101561027857600080fd5b81019080803573ffffffffffffffffffffffffffffffffffffffff1690602001909291908035906020019092919080359060200190929190505050610956565b604051808215151515815260200191505060405180910390f35b3480156102de57600080fd5b506102e7610b55565b6040518082815260200191505060405180910390f35b34801561030957600080fd5b506103766004803603606081101561032057600080fd5b81019080803573ffffffffffffffffffffffffffffffffffffffff169060200190929190803573ffffffffffffffffffffffffffffffffffffffff16906020019092919080359060200190929190505050610b5f565b604051808215151515815260200191505060405180910390f35b34801561039c57600080fd5b506103a5610e35565b604051808260ff1660ff16815260200191505060405180910390f35b3480156103cd57600080fd5b506103fa600480360360208110156103e457600080fd5b8101908080359060200190929190505050610e48565b6040518082815260200191505060405180910390f35b34801561041c57600080fd5b5061045f6004803603602081101561043357600080fd5b81019080803573ffffffffffffffffffffffffffffffffffffffff169060200190929190505050610e65565b6040518082815260200191505060405180910390f35b34801561048157600080fd5b506104c46004803603602081101561049857600080fd5b81019080803573ffffffffffffffffffffffffffffffffffffffff169060200190929190505050610eae565b005b3480156104d257600080fd5b506104db610f8c565b6040518082815260200191505060405180910390f35b3480156104fd57600080fd5b5061054a6004803603604081101561051457600080fd5b8101908080359060200190929190803573ffffffffffffffffffffffffffffffffffffffff169060200190929190505050610f92565b6040518082815260200191505060405180910390f35b34801561056c57600080fd5b50610575610fed565b6040518080602001828103825283818151815260200191508051906020019080838360005b838110156105b557808201518184015260208101905061059a565b50505050905090810190601f1680156105e25780820380516001836020036101000a031916815260200191505b509250505060405180910390f35b3480156105fc57600080fd5b506106496004803603604081101561061357600080fd5b81019080803573ffffffffffffffffffffffffffffffffffffffff1690602001909291908035906020019092919050505061108b565b604051808215151515815260200191505060405180910390f35b600061066f8383611251565b801561068157506106808483611302565b5b80156106da5750600460009054906101000a900473ffffffffffffffffffffffffffffffffffffffff1673ffffffffffffffffffffffffffffffffffffffff163373ffffffffffffffffffffffffffffffffffffffff16145b156107ba5761070582600660008781526020019081526020016000205461176a90919063ffffffff16565b600660008681526020019081526020016000208190555061076e82600560008673ffffffffffffffffffffffffffffffffffffffff1673ffffffffffffffffffffffffffffffffffffffff1681526020019081526020016000205461178c90919063ffffffff16565b600560008573ffffffffffffffffffffffffffffffffffffffff1673ffffffffffffffffffffffffffffffffffffffff16815260200190815260200160002081905550600190506107bf565b600090505b9392505050565b60008054600181600116156101000203166002900480601f01602080910402602001604051908101604052809291908181526020018280546001816001161561010002031660029004801561085c5780601f106108315761010080835404028352916020019161085c565b820191906000526020600020905b81548152906001019060200180831161083f57829003601f168201915b505050505081565b600081600a60003373ffffffffffffffffffffffffffffffffffffffff1673ffffffffffffffffffffffffffffffffffffffff16815260200190815260200160002060008573ffffffffffffffffffffffffffffffffffffffff1673ffffffffffffffffffffffffffffffffffffffff168152602001908152602001600020819055508273ffffffffffffffffffffffffffffffffffffffff163373ffffffffffffffffffffffffffffffffffffffff167f8c5be1e5ebec7d5bd14f71427d1e84f3dd0314c0f7b2291e5b200ac8c7c3b925846040518082815260200191505060405180910390a36001905092915050565b600081600560008673ffffffffffffffffffffffffffffffffffffffff1673ffffffffffffffffffffffffffffffffffffffff1681526020019081526020016000205410156109a85760009050610b4e565b6109b283836117ad565b8015610a0b5750600460009054906101000a900473ffffffffffffffffffffffffffffffffffffffff1673ffffffffffffffffffffffffffffffffffffffff163373ffffffffffffffffffffffffffffffffffffffff16145b15610b4957610a6282600560008773ffffffffffffffffffffffffffffffffffffffff1673ffffffffffffffffffffffffffffffffffffffff1681526020019081526020016000205461176a90919063ffffffff16565b600560008673ffffffffffffffffffffffffffffffffffffffff1673ffffffffffffffffffffffffffffffffffffffff16815260200190815260200160002081905550610acb82600660008681526020019081526020016000205461178c90919063ffffffff16565b6006600085815260200190815260200160002081905550816007600085815260200190815260200160002060008673ffffffffffffffffffffffffffffffffffffffff1673ffffffffffffffffffffffffffffffffffffffff1681526020019081526020016000206000828254019250508190555060019050610b4e565b600090505b9392505050565b6000600354905090565b6000610b6b8483611971565b8015610b7d5750610b7c8383611251565b5b15610e2957610bd482600560008773ffffffffffffffffffffffffffffffffffffffff1673ffffffffffffffffffffffffffffffffffffffff1681526020019081526020016000205461176a90919063ffffffff16565b600560008673ffffffffffffffffffffffffffffffffffffffff1673ffffffffffffffffffffffffffffffffffffffff16815260200190815260200160002081905550610ca682600a60008773ffffffffffffffffffffffffffffffffffffffff1673ffffffffffffffffffffffffffffffffffffffff16815260200190815260200160002060003373ffffffffffffffffffffffffffffffffffffffff1673ffffffffffffffffffffffffffffffffffffffff1681526020019081526020016000205461176a90919063ffffffff16565b600a60008673ffffffffffffffffffffffffffffffffffffffff1673ffffffffffffffffffffffffffffffffffffffff16815260200190815260200160002060003373ffffffffffffffffffffffffffffffffffffffff1673ffffffffffffffffffffffffffffffffffffffff16815260200190815260200160002081905550610d7882600560008673ffffffffffffffffffffffffffffffffffffffff1673ffffffffffffffffffffffffffffffffffffffff1681526020019081526020016000205461178c90919063ffffffff16565b600560008573ffffffffffffffffffffffffffffffffffffffff1673ffffffffffffffffffffffffffffffffffffffff168152602001908152602001600020819055508273ffffffffffffffffffffffffffffffffffffffff168473ffffffffffffffffffffffffffffffffffffffff167fddf252ad1be2c89b69c2b068fc378daa952ba7f163c4a11628f55a4df523b3ef846040518082815260200191505060405180910390a360019050610e2e565b600090505b9392505050565b600260009054906101000a900460ff1681565b600060066000838152602001908152602001600020549050919050565b6000600560008373ffffffffffffffffffffffffffffffffffffffff1673ffffffffffffffffffffffffffffffffffffffff168152602001908152602001600020549050919050565b600860009054906101000a900473ffffffffffffffffffffffffffffffffffffffff1673ffffffffffffffffffffffffffffffffffffffff163373ffffffffffffffffffffffffffffffffffffffff16141515610f0757fe5b80600960006101000a81548173ffffffffffffffffffffffffffffffffffffffff021916908373ffffffffffffffffffffffffffffffffffffffff16021790555080600460006101000a81548173ffffffffffffffffffffffffffffffffffffffff021916908373ffffffffffffffffffffffffffffffffffffffff16021790555050565b60035481565b60006007600084815260200190815260200160002060008373ffffffffffffffffffffffffffffffffffffffff1673ffffffffffffffffffffffffffffffffffffffff16815260200190815260200160002054905092915050565b60018054600181600116156101000203166002900480601f0160208091040260200160405190810160405280929190818152602001828054600181600116156101000203166002900480156110835780601f1061105857610100808354040283529160200191611083565b820191906000526020600020905b81548152906001019060200180831161106657829003601f168201915b505050505081565b60006110973383611971565b80156110a957506110a88383611251565b5b156112465761110082600560003373ffffffffffffffffffffffffffffffffffffffff1673ffffffffffffffffffffffffffffffffffffffff1681526020019081526020016000205461176a90919063ffffffff16565b600560003373ffffffffffffffffffffffffffffffffffffffff1673ffffffffffffffffffffffffffffffffffffffff1681526020019081526020016000208190555061119582600560008673ffffffffffffffffffffffffffffffffffffffff1673ffffffffffffffffffffffffffffffffffffffff1681526020019081526020016000205461178c90919063ffffffff16565b600560008573ffffffffffffffffffffffffffffffffffffffff1673ffffffffffffffffffffffffffffffffffffffff168152602001908152602001600020819055508273ffffffffffffffffffffffffffffffffffffffff163373ffffffffffffffffffffffffffffffffffffffff167fddf252ad1be2c89b69c2b068fc378daa952ba7f163c4a11628f55a4df523b3ef846040518082815260200191505060405180910390a36001905061124b565b600090505b92915050565b6000806000831190508080156112f65750600560008573ffffffffffffffffffffffffffffffffffffffff1673ffffffffffffffffffffffffffffffffffffffff168152602001908152602001600020546112f484600560008873ffffffffffffffffffffffffffffffffffffffff1673ffffffffffffffffffffffffffffffffffffffff1681526020019081526020016000205461178c90919063ffffffff16565b115b90508091505092915050565b6000806000831190508080156113e05750600960009054906101000a900473ffffffffffffffffffffffffffffffffffffffff1673ffffffffffffffffffffffffffffffffffffffff16637d644de6856040518263ffffffff167c010000000000000000000000000000000000000000000000000000000002815260040180828152602001915050602060405180830381600087803b1580156113a457600080fd5b505af11580156113b8573d6000803e3d6000fd5b505050506040513d60208110156113ce57600080fd5b81019080805190602001909291905050505b90508080156114ba57506002600960009054906101000a900473ffffffffffffffffffffffffffffffffffffffff1673ffffffffffffffffffffffffffffffffffffffff16632ec3a85e866040518263ffffffff167c010000000000000000000000000000000000000000000000000000000002815260040180828152602001915050602060405180830381600087803b15801561147d57600080fd5b505af1158015611491573d6000803e3d6000fd5b505050506040513d60208110156114a757600080fd5b8101908080519060200190929190505050145b8061159057506004600960009054906101000a900473ffffffffffffffffffffffffffffffffffffffff1673ffffffffffffffffffffffffffffffffffffffff16632ec3a85e866040518263ffffffff167c010000000000000000000000000000000000000000000000000000000002815260040180828152602001915050602060405180830381600087803b15801561155357600080fd5b505af1158015611567573d6000803e3d6000fd5b505050506040513d602081101561157d57600080fd5b8101908080519060200190929190505050145b8061166657506003600960009054906101000a900473ffffffffffffffffffffffffffffffffffffffff1673ffffffffffffffffffffffffffffffffffffffff16632ec3a85e866040518263ffffffff167c010000000000000000000000000000000000000000000000000000000002815260040180828152602001915050602060405180830381600087803b15801561162957600080fd5b505af115801561163d573d6000803e3d6000fd5b505050506040513d602081101561165357600080fd5b8101908080519060200190929190505050145b8061173c57506005600960009054906101000a900473ffffffffffffffffffffffffffffffffffffffff1673ffffffffffffffffffffffffffffffffffffffff16632ec3a85e866040518263ffffffff167c010000000000000000000000000000000000000000000000000000000002815260040180828152602001915050602060405180830381600087803b1580156116ff57600080fd5b505af1158015611713573d6000803e3d6000fd5b505050506040513d602081101561172957600080fd5b8101908080519060200190929190505050145b905080801561175e575082600660008681526020019081526020016000205410155b90508091505092915050565b600082821115151561177b57600080fd5b600082840390508091505092915050565b60008082840190508381101515156117a357600080fd5b8091505092915050565b60008060008311905080801561188b5750600960009054906101000a900473ffffffffffffffffffffffffffffffffffffffff1673ffffffffffffffffffffffffffffffffffffffff16637d644de6856040518263ffffffff167c010000000000000000000000000000000000000000000000000000000002815260040180828152602001915050602060405180830381600087803b15801561184f57600080fd5b505af1158015611863573d6000803e3d6000fd5b505050506040513d602081101561187957600080fd5b81019080805190602001909291905050505b905080801561196557506000600960009054906101000a900473ffffffffffffffffffffffffffffffffffffffff1673ffffffffffffffffffffffffffffffffffffffff16632ec3a85e866040518263ffffffff167c010000000000000000000000000000000000000000000000000000000002815260040180828152602001915050602060405180830381600087803b15801561192857600080fd5b505af115801561193c573d6000803e3d6000fd5b505050506040513d602081101561195257600080fd5b8101908080519060200190929190505050145b90508091505092915050565b6000806000831190508373ffffffffffffffffffffffffffffffffffffffff163373ffffffffffffffffffffffffffffffffffffffff161415611a01578080156119fa575082600560008673ffffffffffffffffffffffffffffffffffffffff1673ffffffffffffffffffffffffffffffffffffffff1681526020019081526020016000205410155b9050611a8d565b808015611a8a575082600a60008673ffffffffffffffffffffffffffffffffffffffff1673ffffffffffffffffffffffffffffffffffffffff16815260200190815260200160002060003373ffffffffffffffffffffffffffffffffffffffff1673ffffffffffffffffffffffffffffffffffffffff1681526020019081526020016000205410155b90505b809150509291505056fea165627a7a723058204b9b20c72e4003f45a6dc1eea6482debb37b7323770ef3dc582ba469acb7e6440029",
  "source": "//current token skeleton pulled from\r\n//https://theethereum.wiki/w/index.php/ERC20_Token_Standard and part of object task\r\npragma solidity 0.5.0;\r\n\r\nimport \"./IERC20.sol\";\r\nimport \"./SafeMath.sol\";\r\nimport \"./Review.sol\";\r\n\r\n// contract CAJCoin is IERC20 {\r\ncontract CAJCoin {\r\n\r\n    //import safemath\r\n    using SafeMath for uint256;\r\n\r\n    //Genreal Parameters\r\n    string public name;\r\n    string public symbol;\r\n    uint8 public decimals;\r\n    uint256 public totalSup;\r\n\r\n    address private caddr;\r\n\r\n    // Balances for each type of account\r\n    mapping(address => uint256) private balances;\r\n    mapping(uint256 => uint256) private paperBalances;\r\n\r\n    //tokens staked on each paper by each user\r\n    mapping(uint256 => mapping(address => uint256)) private userTokensStaked;\r\n\r\n    //dev address\r\n    address private devAddress;\r\n\r\n    //paper database contract\r\n    Review archive;\r\n\r\n    // Events\r\n    event Approval(address indexed _owner, address indexed _spender, uint256 _value);\r\n    event Transfer(address indexed from, address indexed to, uint256 value);\r\n    // Owner of account approves the transfer of an amount to another account\r\n    mapping(address => mapping (address => uint256)) allowed;\r\n\r\n    // SECURITY HELPER METHODS\r\n    function userCanSend(address _user, uint256 _amount) private returns (bool success) {\r\n        bool b = _amount > 0;\r\n        if (msg.sender == _user) {\r\n            b = b && balances[_user] >= _amount ;\r\n        } else {\r\n            b = b && allowed[_user][msg.sender] >= _amount;\r\n        }\r\n        return b;\r\n    }\r\n\r\n    function userCanRecive(address _user, uint256 _amount) private returns (bool success) {\r\n        bool b = _amount > 0;\r\n        b = b && (balances[_user]).add(_amount) > balances[_user];\r\n        return b;\r\n    }\r\n\r\n    function paperCanRecive(uint256 _paper, uint256 _amount) private returns (bool success) {\r\n        bool b = _amount > 0;\r\n        b = b && archive.paperExists(_paper);\r\n        b = b && archive.getPaperState(_paper) == 0;\r\n        return b;\r\n    }\r\n\r\n    function paperCanSend(uint256 _paper, uint256 _amount) private returns (bool success) {\r\n        bool b = _amount > 0;\r\n        b = b && archive.paperExists(_paper);\r\n        b = b && archive.getPaperState(_paper) == 2 || archive.getPaperState(_paper) == 4 || archive.getPaperState(_paper) == 3 || archive.getPaperState(_paper) == 5; // 2: under review; 4: old version\r\n        b = b && paperBalances[_paper] >= _amount;\r\n        return b;\r\n    }\r\n\r\n    // This is the constructor and automatically runs when the smart contract is uploaded\r\n    constructor() public {\r\n        name = \"CAJCoin\";\r\n        symbol = \"CAJ\";\r\n        decimals = 18;\r\n\r\n        devAddress = msg.sender;\r\n        totalSup = 1000000 * 10**uint(decimals);\r\n        balances[devAddress] = totalSup;\r\n        emit Transfer(devAddress, devAddress, totalSup);\r\n    }\r\n\r\n    //get total supply\r\n    function totalSupply() external view returns (uint256) {\r\n        return totalSup;\r\n    }\r\n\r\n    //get balance of a user account\r\n    function balanceOf(address _owner) public returns (uint256 balance) {\r\n        return balances[_owner];\r\n    }\r\n\r\n    // Transfer given amount from owner's account to another account\r\n    function transfer(address _to, uint256 _amount) public returns (bool success) {\r\n        if (userCanSend(msg.sender, _amount) && userCanRecive(_to, _amount)) {\r\n            balances[msg.sender] = balances[msg.sender].sub(_amount);\r\n            balances[_to] = balances[_to].add(_amount);\r\n            emit Transfer(msg.sender, _to, _amount);\r\n            return true;\r\n        }\r\n        return false;\r\n        //return transferFrom(msg.sender, _to, _amount);\r\n    }\r\n\r\n    // Transer given amount from one account to another account\r\n    function transferFrom(address _from, address _to, uint256 _amount) public returns (bool success) {\r\n        if (userCanSend(_from, _amount) && userCanRecive(_to, _amount)) {\r\n            balances[_from] = balances[_from].sub(_amount);\r\n            allowed[_from][msg.sender] = allowed[_from][msg.sender].sub(_amount);\r\n            balances[_to] = balances[_to].add(_amount);\r\n\r\n            emit Transfer(_from, _to, _amount);\r\n            return true;\r\n        }\r\n        return false;\r\n    }\r\n    // Allow _spender to withdraw from your account, multiple times, up to the _value amount.\r\n    // If this function is called again it overwrites the current allowance with _value.\r\n    function approve(address _spender, uint256 _amount) external returns (bool success) {\r\n        allowed[msg.sender][_spender] = _amount;\r\n        emit Approval(msg.sender, _spender, _amount);\r\n        return true;\r\n    }\r\n\r\n    //mapping(uint256 => mapping(address => uint256)) private userTokensStaked;\r\n    //Stake a token on a paper, this will be called from the other contract\r\n    function stakeTokens(address _from, uint256 _to, uint256 _amount) external returns (bool success) {\r\n        if (balances[_from] < _amount) {\r\n            return false;\r\n        }\r\n        if (paperCanRecive(_to, _amount)\r\n            && msg.sender == caddr) {\r\n            balances[_from] = balances[_from].sub(_amount);\r\n            paperBalances[_to] = paperBalances[_to].add(_amount);\r\n            userTokensStaked[_to][_from] += _amount;\r\n\r\n            return true;\r\n        }\r\n        return false;\r\n    }\r\n\r\n    //Collect a token from a paper, this will also be run from the other contract\r\n    function collectTokens(uint256 _from, address _to, uint256 _amount) external  returns (bool success) {\r\n        if (userCanRecive(_to, _amount) && paperCanSend(_from, _amount)\r\n            && msg.sender == caddr) {\r\n            paperBalances[_from] = paperBalances[_from].sub(_amount);\r\n            balances[_to] = balances[_to].add(_amount);\r\n            return true;\r\n        }\r\n        return false;\r\n    }\r\n\r\n    //Return the balance of a paper account\r\n    function paperBalance(uint256 _paperID) public returns (uint256 balance) {\r\n        return paperBalances[_paperID];\r\n    }\r\n\r\n    function tokensStakedByUser(uint256 _paperID, address _user) public returns (uint256 amount) {\r\n        return userTokensStaked[_paperID][_user];\r\n    }\r\n\r\n    function setContract(address addr) public {\r\n        assert(msg.sender == devAddress);\r\n        archive = Review(addr);\r\n        caddr = addr;\r\n    }\r\n}\r\n",
  "sourcePath": "C:\\Users\\Joe\\Development\\curatedacademicjournal\\contracts\\CAJCoin.sol",
  "compiler": {
    "name": "solc",
    "version": "0.5.0+commit.1d4f565a.Emscripten.clang"
  },
  "schemaVersion": "3.0.2",
  "updatedAt": "2019-05-03T06:02:59.925Z",
  "devdoc": {
    "methods": {}
  },
  "userdoc": {
    "methods": {}
  }
}