{
  "contractName": "CAJCoin",
  "abi": [
    {
      "constant": true,
      "inputs": [],
      "name": "name",
      "outputs": [
        {
          "name": "",
          "type": "string"
        }
      ],
      "payable": false,
      "stateMutability": "view",
      "type": "function"
    },
    {
      "constant": true,
      "inputs": [],
      "name": "decimals",
      "outputs": [
        {
          "name": "",
          "type": "uint8"
        }
      ],
      "payable": false,
      "stateMutability": "view",
      "type": "function"
    },
    {
      "constant": true,
      "inputs": [],
      "name": "totalSup",
      "outputs": [
        {
          "name": "",
          "type": "uint256"
        }
      ],
      "payable": false,
      "stateMutability": "view",
      "type": "function"
    },
    {
      "constant": true,
      "inputs": [],
      "name": "symbol",
      "outputs": [
        {
          "name": "",
          "type": "string"
        }
      ],
      "payable": false,
      "stateMutability": "view",
      "type": "function"
    },
    {
      "inputs": [],
      "payable": false,
      "stateMutability": "nonpayable",
      "type": "constructor"
    },
    {
      "anonymous": false,
      "inputs": [
        {
          "indexed": true,
          "name": "_owner",
          "type": "address"
        },
        {
          "indexed": true,
          "name": "_spender",
          "type": "address"
        },
        {
          "indexed": false,
          "name": "_value",
          "type": "uint256"
        }
      ],
      "name": "Approval",
      "type": "event"
    },
    {
      "anonymous": false,
      "inputs": [
        {
          "indexed": true,
          "name": "from",
          "type": "address"
        },
        {
          "indexed": true,
          "name": "to",
          "type": "address"
        },
        {
          "indexed": false,
          "name": "value",
          "type": "uint256"
        }
      ],
      "name": "Transfer",
      "type": "event"
    },
    {
      "constant": true,
      "inputs": [],
      "name": "totalSupply",
      "outputs": [
        {
          "name": "",
          "type": "uint256"
        }
      ],
      "payable": false,
      "stateMutability": "view",
      "type": "function"
    },
    {
      "constant": false,
      "inputs": [
        {
          "name": "_owner",
          "type": "address"
        }
      ],
      "name": "balanceOf",
      "outputs": [
        {
          "name": "balance",
          "type": "uint256"
        }
      ],
      "payable": false,
      "stateMutability": "nonpayable",
      "type": "function"
    },
    {
      "constant": false,
      "inputs": [],
      "name": "getToken",
      "outputs": [
        {
          "name": "",
          "type": "bool"
        }
      ],
      "payable": false,
      "stateMutability": "nonpayable",
      "type": "function"
    },
    {
      "constant": false,
      "inputs": [
        {
          "name": "_to",
          "type": "address"
        },
        {
          "name": "_amount",
          "type": "uint256"
        }
      ],
      "name": "transfer",
      "outputs": [
        {
          "name": "success",
          "type": "bool"
        }
      ],
      "payable": false,
      "stateMutability": "nonpayable",
      "type": "function"
    },
    {
      "constant": false,
      "inputs": [
        {
          "name": "_from",
          "type": "address"
        },
        {
          "name": "_to",
          "type": "address"
        },
        {
          "name": "_amount",
          "type": "uint256"
        }
      ],
      "name": "transferFrom",
      "outputs": [
        {
          "name": "success",
          "type": "bool"
        }
      ],
      "payable": false,
      "stateMutability": "nonpayable",
      "type": "function"
    },
    {
      "constant": false,
      "inputs": [
        {
          "name": "_spender",
          "type": "address"
        },
        {
          "name": "_amount",
          "type": "uint256"
        }
      ],
      "name": "approve",
      "outputs": [
        {
          "name": "success",
          "type": "bool"
        }
      ],
      "payable": false,
      "stateMutability": "nonpayable",
      "type": "function"
    },
    {
      "constant": false,
      "inputs": [
        {
          "name": "_from",
          "type": "address"
        },
        {
          "name": "_to",
          "type": "uint256"
        },
        {
          "name": "_amount",
          "type": "uint256"
        }
      ],
      "name": "stakeTokens",
      "outputs": [
        {
          "name": "success",
          "type": "bool"
        }
      ],
      "payable": false,
      "stateMutability": "nonpayable",
      "type": "function"
    },
    {
      "constant": false,
      "inputs": [
        {
          "name": "_from",
          "type": "uint256"
        },
        {
          "name": "_to",
          "type": "address"
        },
        {
          "name": "_amount",
          "type": "uint256"
        }
      ],
      "name": "collectTokens",
      "outputs": [
        {
          "name": "success",
          "type": "bool"
        }
      ],
      "payable": false,
      "stateMutability": "nonpayable",
      "type": "function"
    },
    {
      "constant": false,
      "inputs": [
        {
          "name": "_paperID",
          "type": "uint256"
        }
      ],
      "name": "paperBalance",
      "outputs": [
        {
          "name": "balance",
          "type": "uint256"
        }
      ],
      "payable": false,
      "stateMutability": "nonpayable",
      "type": "function"
    },
    {
      "constant": false,
      "inputs": [
        {
          "name": "_paperID",
          "type": "uint256"
        },
        {
          "name": "_user",
          "type": "address"
        }
      ],
      "name": "tokensStakedByUser",
      "outputs": [
        {
          "name": "amount",
          "type": "uint256"
        }
      ],
      "payable": false,
      "stateMutability": "nonpayable",
      "type": "function"
    },
    {
      "constant": false,
      "inputs": [
        {
          "name": "addr",
          "type": "address"
        }
      ],
      "name": "setContract",
      "outputs": [],
      "payable": false,
      "stateMutability": "nonpayable",
      "type": "function"
    }
  ],
  "bytecode": "0x60806040523480156200001157600080fd5b506040805190810160405280600781526020017f43414a436f696e00000000000000000000000000000000000000000000000000815250600090805190602001906200005f92919062000245565b506040805190810160405280600381526020017f43414a000000000000000000000000000000000000000000000000000000000081525060019080519060200190620000ad92919062000245565b506012600260006101000a81548160ff021916908360ff16021790555033600860006101000a81548173ffffffffffffffffffffffffffffffffffffffff021916908373ffffffffffffffffffffffffffffffffffffffff160217905550600260009054906101000a900460ff1660ff16600a0a620f42400260038190555060035460056000600860009054906101000a900473ffffffffffffffffffffffffffffffffffffffff1673ffffffffffffffffffffffffffffffffffffffff1673ffffffffffffffffffffffffffffffffffffffff16815260200190815260200160002081905550600860009054906101000a900473ffffffffffffffffffffffffffffffffffffffff1673ffffffffffffffffffffffffffffffffffffffff16600860009054906101000a900473ffffffffffffffffffffffffffffffffffffffff1673ffffffffffffffffffffffffffffffffffffffff167fddf252ad1be2c89b69c2b068fc378daa952ba7f163c4a11628f55a4df523b3ef6003546040518082815260200191505060405180910390a3620002f4565b828054600181600116156101000203166002900490600052602060002090601f016020900481019282601f106200028857805160ff1916838001178555620002b9565b82800160010185558215620002b9579182015b82811115620002b85782518255916020019190600101906200029b565b5b509050620002c89190620002cc565b5090565b620002f191905b80821115620002ed576000816000905550600101620002d3565b5090565b90565b611d4380620003046000396000f3fe6080604052600436106100db576000357c0100000000000000000000000000000000000000000000000000000000900463ffffffff1680630356613b146100e057806306fdde031461015d578063095ea7b3146101ed5780630cff8e8f1461026057806318160ddd146102dd57806321df0da71461030857806323b872dd14610337578063313ce567146103ca57806356bdaf3a146103fb57806370a082311461044a57806375f890ab146104af57806380fc5d17146105005780638282469d1461052b57806395d89b411461059a578063a9059cbb1461062a575b600080fd5b3480156100ec57600080fd5b506101436004803603606081101561010357600080fd5b8101908080359060200190929190803573ffffffffffffffffffffffffffffffffffffffff1690602001909291908035906020019092919050505061069d565b604051808215151515815260200191505060405180910390f35b34801561016957600080fd5b50610172610800565b6040518080602001828103825283818151815260200191508051906020019080838360005b838110156101b2578082015181840152602081019050610197565b50505050905090810190601f1680156101df5780820380516001836020036101000a031916815260200191505b509250505060405180910390f35b3480156101f957600080fd5b506102466004803603604081101561021057600080fd5b81019080803573ffffffffffffffffffffffffffffffffffffffff1690602001909291908035906020019092919050505061089e565b604051808215151515815260200191505060405180910390f35b34801561026c57600080fd5b506102c36004803603606081101561028357600080fd5b81019080803573ffffffffffffffffffffffffffffffffffffffff1690602001909291908035906020019092919080359060200190929190505050610990565b604051808215151515815260200191505060405180910390f35b3480156102e957600080fd5b506102f2610b8f565b6040518082815260200191505060405180910390f35b34801561031457600080fd5b5061031d610b99565b604051808215151515815260200191505060405180910390f35b34801561034357600080fd5b506103b06004803603606081101561035a57600080fd5b81019080803573ffffffffffffffffffffffffffffffffffffffff169060200190929190803573ffffffffffffffffffffffffffffffffffffffff16906020019092919080359060200190929190505050610ddf565b604051808215151515815260200191505060405180910390f35b3480156103d657600080fd5b506103df6110b5565b604051808260ff1660ff16815260200191505060405180910390f35b34801561040757600080fd5b506104346004803603602081101561041e57600080fd5b81019080803590602001909291905050506110c8565b6040518082815260200191505060405180910390f35b34801561045657600080fd5b506104996004803603602081101561046d57600080fd5b81019080803573ffffffffffffffffffffffffffffffffffffffff1690602001909291905050506110e5565b6040518082815260200191505060405180910390f35b3480156104bb57600080fd5b506104fe600480360360208110156104d257600080fd5b81019080803573ffffffffffffffffffffffffffffffffffffffff16906020019092919050505061112e565b005b34801561050c57600080fd5b5061051561120c565b6040518082815260200191505060405180910390f35b34801561053757600080fd5b506105846004803603604081101561054e57600080fd5b8101908080359060200190929190803573ffffffffffffffffffffffffffffffffffffffff169060200190929190505050611212565b6040518082815260200191505060405180910390f35b3480156105a657600080fd5b506105af61126d565b6040518080602001828103825283818151815260200191508051906020019080838360005b838110156105ef5780820151818401526020810190506105d4565b50505050905090810190601f16801561061c5780820380516001836020036101000a031916815260200191505b509250505060405180910390f35b34801561063657600080fd5b506106836004803603604081101561064d57600080fd5b81019080803573ffffffffffffffffffffffffffffffffffffffff1690602001909291908035906020019092919050505061130b565b604051808215151515815260200191505060405180910390f35b60006106a983836114d1565b80156106bb57506106ba8483611582565b5b80156107145750600460009054906101000a900473ffffffffffffffffffffffffffffffffffffffff1673ffffffffffffffffffffffffffffffffffffffff163373ffffffffffffffffffffffffffffffffffffffff16145b156107f45761073f8260066000878152602001908152602001600020546119ea90919063ffffffff16565b60066000868152602001908152602001600020819055506107a882600560008673ffffffffffffffffffffffffffffffffffffffff1673ffffffffffffffffffffffffffffffffffffffff16815260200190815260200160002054611a0c90919063ffffffff16565b600560008573ffffffffffffffffffffffffffffffffffffffff1673ffffffffffffffffffffffffffffffffffffffff16815260200190815260200160002081905550600190506107f9565b600090505b9392505050565b60008054600181600116156101000203166002900480601f0160208091040260200160405190810160405280929190818152602001828054600181600116156101000203166002900480156108965780601f1061086b57610100808354040283529160200191610896565b820191906000526020600020905b81548152906001019060200180831161087957829003601f168201915b505050505081565b600081600a60003373ffffffffffffffffffffffffffffffffffffffff1673ffffffffffffffffffffffffffffffffffffffff16815260200190815260200160002060008573ffffffffffffffffffffffffffffffffffffffff1673ffffffffffffffffffffffffffffffffffffffff168152602001908152602001600020819055508273ffffffffffffffffffffffffffffffffffffffff163373ffffffffffffffffffffffffffffffffffffffff167f8c5be1e5ebec7d5bd14f71427d1e84f3dd0314c0f7b2291e5b200ac8c7c3b925846040518082815260200191505060405180910390a36001905092915050565b600081600560008673ffffffffffffffffffffffffffffffffffffffff1673ffffffffffffffffffffffffffffffffffffffff1681526020019081526020016000205410156109e25760009050610b88565b6109ec8383611a2d565b8015610a455750600460009054906101000a900473ffffffffffffffffffffffffffffffffffffffff1673ffffffffffffffffffffffffffffffffffffffff163373ffffffffffffffffffffffffffffffffffffffff16145b15610b8357610a9c82600560008773ffffffffffffffffffffffffffffffffffffffff1673ffffffffffffffffffffffffffffffffffffffff168152602001908152602001600020546119ea90919063ffffffff16565b600560008673ffffffffffffffffffffffffffffffffffffffff1673ffffffffffffffffffffffffffffffffffffffff16815260200190815260200160002081905550610b05826006600086815260200190815260200160002054611a0c90919063ffffffff16565b6006600085815260200190815260200160002081905550816007600085815260200190815260200160002060008673ffffffffffffffffffffffffffffffffffffffff1673ffffffffffffffffffffffffffffffffffffffff1681526020019081526020016000206000828254019250508190555060019050610b88565b600090505b9392505050565b6000600354905090565b6000610c27600260009054906101000a900460ff1660ff16600a0a600a0260056000600860009054906101000a900473ffffffffffffffffffffffffffffffffffffffff1673ffffffffffffffffffffffffffffffffffffffff1673ffffffffffffffffffffffffffffffffffffffff168152602001908152602001600020546119ea90919063ffffffff16565b60056000600860009054906101000a900473ffffffffffffffffffffffffffffffffffffffff1673ffffffffffffffffffffffffffffffffffffffff1673ffffffffffffffffffffffffffffffffffffffff16815260200190815260200160002081905550610cf6600260009054906101000a900460ff1660ff16600a0a600a02600560003373ffffffffffffffffffffffffffffffffffffffff1673ffffffffffffffffffffffffffffffffffffffff16815260200190815260200160002054611a0c90919063ffffffff16565b600560003373ffffffffffffffffffffffffffffffffffffffff1673ffffffffffffffffffffffffffffffffffffffff168152602001908152602001600020819055503373ffffffffffffffffffffffffffffffffffffffff16600860009054906101000a900473ffffffffffffffffffffffffffffffffffffffff1673ffffffffffffffffffffffffffffffffffffffff167fddf252ad1be2c89b69c2b068fc378daa952ba7f163c4a11628f55a4df523b3ef600260009054906101000a900460ff1660ff16600a0a600a026040518082815260200191505060405180910390a36001905090565b6000610deb8483611bf1565b8015610dfd5750610dfc83836114d1565b5b156110a957610e5482600560008773ffffffffffffffffffffffffffffffffffffffff1673ffffffffffffffffffffffffffffffffffffffff168152602001908152602001600020546119ea90919063ffffffff16565b600560008673ffffffffffffffffffffffffffffffffffffffff1673ffffffffffffffffffffffffffffffffffffffff16815260200190815260200160002081905550610f2682600a60008773ffffffffffffffffffffffffffffffffffffffff1673ffffffffffffffffffffffffffffffffffffffff16815260200190815260200160002060003373ffffffffffffffffffffffffffffffffffffffff1673ffffffffffffffffffffffffffffffffffffffff168152602001908152602001600020546119ea90919063ffffffff16565b600a60008673ffffffffffffffffffffffffffffffffffffffff1673ffffffffffffffffffffffffffffffffffffffff16815260200190815260200160002060003373ffffffffffffffffffffffffffffffffffffffff1673ffffffffffffffffffffffffffffffffffffffff16815260200190815260200160002081905550610ff882600560008673ffffffffffffffffffffffffffffffffffffffff1673ffffffffffffffffffffffffffffffffffffffff16815260200190815260200160002054611a0c90919063ffffffff16565b600560008573ffffffffffffffffffffffffffffffffffffffff1673ffffffffffffffffffffffffffffffffffffffff168152602001908152602001600020819055508273ffffffffffffffffffffffffffffffffffffffff168473ffffffffffffffffffffffffffffffffffffffff167fddf252ad1be2c89b69c2b068fc378daa952ba7f163c4a11628f55a4df523b3ef846040518082815260200191505060405180910390a3600190506110ae565b600090505b9392505050565b600260009054906101000a900460ff1681565b600060066000838152602001908152602001600020549050919050565b6000600560008373ffffffffffffffffffffffffffffffffffffffff1673ffffffffffffffffffffffffffffffffffffffff168152602001908152602001600020549050919050565b600860009054906101000a900473ffffffffffffffffffffffffffffffffffffffff1673ffffffffffffffffffffffffffffffffffffffff163373ffffffffffffffffffffffffffffffffffffffff1614151561118757fe5b80600960006101000a81548173ffffffffffffffffffffffffffffffffffffffff021916908373ffffffffffffffffffffffffffffffffffffffff16021790555080600460006101000a81548173ffffffffffffffffffffffffffffffffffffffff021916908373ffffffffffffffffffffffffffffffffffffffff16021790555050565b60035481565b60006007600084815260200190815260200160002060008373ffffffffffffffffffffffffffffffffffffffff1673ffffffffffffffffffffffffffffffffffffffff16815260200190815260200160002054905092915050565b60018054600181600116156101000203166002900480601f0160208091040260200160405190810160405280929190818152602001828054600181600116156101000203166002900480156113035780601f106112d857610100808354040283529160200191611303565b820191906000526020600020905b8154815290600101906020018083116112e657829003601f168201915b505050505081565b60006113173383611bf1565b8015611329575061132883836114d1565b5b156114c65761138082600560003373ffffffffffffffffffffffffffffffffffffffff1673ffffffffffffffffffffffffffffffffffffffff168152602001908152602001600020546119ea90919063ffffffff16565b600560003373ffffffffffffffffffffffffffffffffffffffff1673ffffffffffffffffffffffffffffffffffffffff1681526020019081526020016000208190555061141582600560008673ffffffffffffffffffffffffffffffffffffffff1673ffffffffffffffffffffffffffffffffffffffff16815260200190815260200160002054611a0c90919063ffffffff16565b600560008573ffffffffffffffffffffffffffffffffffffffff1673ffffffffffffffffffffffffffffffffffffffff168152602001908152602001600020819055508273ffffffffffffffffffffffffffffffffffffffff163373ffffffffffffffffffffffffffffffffffffffff167fddf252ad1be2c89b69c2b068fc378daa952ba7f163c4a11628f55a4df523b3ef846040518082815260200191505060405180910390a3600190506114cb565b600090505b92915050565b6000806000831190508080156115765750600560008573ffffffffffffffffffffffffffffffffffffffff1673ffffffffffffffffffffffffffffffffffffffff1681526020019081526020016000205461157484600560008873ffffffffffffffffffffffffffffffffffffffff1673ffffffffffffffffffffffffffffffffffffffff16815260200190815260200160002054611a0c90919063ffffffff16565b115b90508091505092915050565b6000806000831190508080156116605750600960009054906101000a900473ffffffffffffffffffffffffffffffffffffffff1673ffffffffffffffffffffffffffffffffffffffff16637d644de6856040518263ffffffff167c010000000000000000000000000000000000000000000000000000000002815260040180828152602001915050602060405180830381600087803b15801561162457600080fd5b505af1158015611638573d6000803e3d6000fd5b505050506040513d602081101561164e57600080fd5b81019080805190602001909291905050505b905080801561173a57506002600960009054906101000a900473ffffffffffffffffffffffffffffffffffffffff1673ffffffffffffffffffffffffffffffffffffffff16632ec3a85e866040518263ffffffff167c010000000000000000000000000000000000000000000000000000000002815260040180828152602001915050602060405180830381600087803b1580156116fd57600080fd5b505af1158015611711573d6000803e3d6000fd5b505050506040513d602081101561172757600080fd5b8101908080519060200190929190505050145b8061181057506004600960009054906101000a900473ffffffffffffffffffffffffffffffffffffffff1673ffffffffffffffffffffffffffffffffffffffff16632ec3a85e866040518263ffffffff167c010000000000000000000000000000000000000000000000000000000002815260040180828152602001915050602060405180830381600087803b1580156117d357600080fd5b505af11580156117e7573d6000803e3d6000fd5b505050506040513d60208110156117fd57600080fd5b8101908080519060200190929190505050145b806118e657506003600960009054906101000a900473ffffffffffffffffffffffffffffffffffffffff1673ffffffffffffffffffffffffffffffffffffffff16632ec3a85e866040518263ffffffff167c010000000000000000000000000000000000000000000000000000000002815260040180828152602001915050602060405180830381600087803b1580156118a957600080fd5b505af11580156118bd573d6000803e3d6000fd5b505050506040513d60208110156118d357600080fd5b8101908080519060200190929190505050145b806119bc57506005600960009054906101000a900473ffffffffffffffffffffffffffffffffffffffff1673ffffffffffffffffffffffffffffffffffffffff16632ec3a85e866040518263ffffffff167c010000000000000000000000000000000000000000000000000000000002815260040180828152602001915050602060405180830381600087803b15801561197f57600080fd5b505af1158015611993573d6000803e3d6000fd5b505050506040513d60208110156119a957600080fd5b8101908080519060200190929190505050145b90508080156119de575082600660008681526020019081526020016000205410155b90508091505092915050565b60008282111515156119fb57600080fd5b600082840390508091505092915050565b6000808284019050838110151515611a2357600080fd5b8091505092915050565b600080600083119050808015611b0b5750600960009054906101000a900473ffffffffffffffffffffffffffffffffffffffff1673ffffffffffffffffffffffffffffffffffffffff16637d644de6856040518263ffffffff167c010000000000000000000000000000000000000000000000000000000002815260040180828152602001915050602060405180830381600087803b158015611acf57600080fd5b505af1158015611ae3573d6000803e3d6000fd5b505050506040513d6020811015611af957600080fd5b81019080805190602001909291905050505b9050808015611be557506000600960009054906101000a900473ffffffffffffffffffffffffffffffffffffffff1673ffffffffffffffffffffffffffffffffffffffff16632ec3a85e866040518263ffffffff167c010000000000000000000000000000000000000000000000000000000002815260040180828152602001915050602060405180830381600087803b158015611ba857600080fd5b505af1158015611bbc573d6000803e3d6000fd5b505050506040513d6020811015611bd257600080fd5b8101908080519060200190929190505050145b90508091505092915050565b6000806000831190508373ffffffffffffffffffffffffffffffffffffffff163373ffffffffffffffffffffffffffffffffffffffff161415611c8157808015611c7a575082600560008673ffffffffffffffffffffffffffffffffffffffff1673ffffffffffffffffffffffffffffffffffffffff1681526020019081526020016000205410155b9050611d0d565b808015611d0a575082600a60008673ffffffffffffffffffffffffffffffffffffffff1673ffffffffffffffffffffffffffffffffffffffff16815260200190815260200160002060003373ffffffffffffffffffffffffffffffffffffffff1673ffffffffffffffffffffffffffffffffffffffff1681526020019081526020016000205410155b90505b809150509291505056fea165627a7a723058205822e24cb4d62e9fe8e642541a7157b3025d5b7e56a43b7005248dcf907e25a70029",
  "source": "//current token skeleton pulled from\n//https://theethereum.wiki/w/index.php/ERC20_Token_Standard and part of object task\npragma solidity 0.5.0;\n\nimport \"./IERC20.sol\";\nimport \"./SafeMath.sol\";\nimport \"./Review.sol\";\n\n// contract CAJCoin is IERC20 {\ncontract CAJCoin {\n\n    //import safemath\n    using SafeMath for uint256;\n\n    //Genreal Parameters\n    string public name;\n    string public symbol;\n    uint8 public decimals;\n    uint256 public totalSup;\n\n    address private caddr;\n\n    // Balances for each type of account\n    mapping(address => uint256) private balances;\n    mapping(uint256 => uint256) private paperBalances;\n\n    //tokens staked on each paper by each user\n    mapping(uint256 => mapping(address => uint256)) private userTokensStaked;\n\n    //dev address\n    address private devAddress;\n\n    //paper database contract\n    Review archive;\n\n    // Events\n    event Approval(address indexed _owner, address indexed _spender, uint256 _value);\n    event Transfer(address indexed from, address indexed to, uint256 value);\n    // Owner of account approves the transfer of an amount to another account\n    mapping(address => mapping (address => uint256)) allowed;\n\n    // SECURITY HELPER METHODS\n    function userCanSend(address _user, uint256 _amount) private returns (bool success) {\n        bool b = _amount > 0;\n        if (msg.sender == _user) {\n            b = b && balances[_user] >= _amount ;\n        } else {\n            b = b && allowed[_user][msg.sender] >= _amount;\n        }\n        return b;\n    }\n\n    function userCanRecive(address _user, uint256 _amount) private returns (bool success) {\n        bool b = _amount > 0;\n        b = b && (balances[_user]).add(_amount) > balances[_user];\n        return b;\n    }\n\n    function paperCanRecive(uint256 _paper, uint256 _amount) private returns (bool success) {\n        bool b = _amount > 0;\n        b = b && archive.paperExists(_paper);\n        b = b && archive.getPaperState(_paper) == 0;\n        return b;\n    }\n\n    function paperCanSend(uint256 _paper, uint256 _amount) private returns (bool success) {\n        bool b = _amount > 0;\n        b = b && archive.paperExists(_paper);\n        b = b && archive.getPaperState(_paper) == 2 || archive.getPaperState(_paper) == 4 || archive.getPaperState(_paper) == 3 || archive.getPaperState(_paper) == 5; // 2: under review; 4: old version\n        b = b && paperBalances[_paper] >= _amount;\n        return b;\n    }\n\n    // This is the constructor and automatically runs when the smart contract is uploaded\n    constructor() public {\n        name = \"CAJCoin\";\n        symbol = \"CAJ\";\n        decimals = 18;\n\n        devAddress = msg.sender;\n        totalSup = 1000000 * 10**uint(decimals);\n        balances[devAddress] = totalSup;\n        emit Transfer(devAddress, devAddress, totalSup);\n    }\n\n    //get total supply\n    function totalSupply() external view returns (uint256) {\n        return totalSup;\n    }\n\n    //get balance of a user account\n    function balanceOf(address _owner) public returns (uint256 balance) {\n        return balances[_owner];\n    }\n\n    function getToken() public returns (bool){\n        balances[devAddress] = balances[devAddress].sub(10 * 10**uint(decimals));\n        balances[msg.sender] = balances[msg.sender].add(10 * 10**uint(decimals));\n        emit Transfer(devAddress, msg.sender, 10 * 10**uint(decimals));\n        return true;\n    }\n\n    // Transfer given amount from owner's account to another account\n    function transfer(address _to, uint256 _amount) public returns (bool success) {\n        if (userCanSend(msg.sender, _amount) && userCanRecive(_to, _amount)) {\n            balances[msg.sender] = balances[msg.sender].sub(_amount);\n            balances[_to] = balances[_to].add(_amount);\n            emit Transfer(msg.sender, _to, _amount);\n            return true;\n        }\n        return false;\n        //return transferFrom(msg.sender, _to, _amount);\n    }\n\n    // Transer given amount from one account to another account\n    function transferFrom(address _from, address _to, uint256 _amount) public returns (bool success) {\n        if (userCanSend(_from, _amount) && userCanRecive(_to, _amount)) {\n            balances[_from] = balances[_from].sub(_amount);\n            allowed[_from][msg.sender] = allowed[_from][msg.sender].sub(_amount);\n            balances[_to] = balances[_to].add(_amount);\n\n            emit Transfer(_from, _to, _amount);\n            return true;\n        }\n        return false;\n    }\n    // Allow _spender to withdraw from your account, multiple times, up to the _value amount.\n    // If this function is called again it overwrites the current allowance with _value.\n    function approve(address _spender, uint256 _amount) external returns (bool success) {\n        allowed[msg.sender][_spender] = _amount;\n        emit Approval(msg.sender, _spender, _amount);\n        return true;\n    }\n\n    //mapping(uint256 => mapping(address => uint256)) private userTokensStaked;\n    //Stake a token on a paper, this will be called from the other contract\n    function stakeTokens(address _from, uint256 _to, uint256 _amount) external returns (bool success) {\n        if (balances[_from] < _amount) {\n            return false;\n        }\n        if (paperCanRecive(_to, _amount)\n            && msg.sender == caddr) {\n            balances[_from] = balances[_from].sub(_amount);\n            paperBalances[_to] = paperBalances[_to].add(_amount);\n            userTokensStaked[_to][_from] += _amount;\n\n            return true;\n        }\n        return false;\n    }\n\n    //Collect a token from a paper, this will also be run from the other contract\n    function collectTokens(uint256 _from, address _to, uint256 _amount) external  returns (bool success) {\n        if (userCanRecive(_to, _amount) && paperCanSend(_from, _amount)\n            && msg.sender == caddr) {\n            paperBalances[_from] = paperBalances[_from].sub(_amount);\n            balances[_to] = balances[_to].add(_amount);\n            return true;\n        }\n        return false;\n    }\n\n    //Return the balance of a paper account\n    function paperBalance(uint256 _paperID) public returns (uint256 balance) {\n        return paperBalances[_paperID];\n    }\n\n    function tokensStakedByUser(uint256 _paperID, address _user) public returns (uint256 amount) {\n        return userTokensStaked[_paperID][_user];\n    }\n\n    function setContract(address addr) public {\n        assert(msg.sender == devAddress);\n        archive = Review(addr);\n        caddr = addr;\n    }\n}\n",
  "sourcePath": "/Users/olivialee/Desktop/CAJ/contracts/CAJCoin.sol",
  "compiler": {
    "name": "solc",
    "version": "0.5.0+commit.1d4f565a.Emscripten.clang"
  },
  "schemaVersion": "3.0.9",
  "updatedAt": "2019-05-06T19:12:51.717Z",
  "devdoc": {
    "methods": {}
  },
  "userdoc": {
    "methods": {}
  }
}