{
  "contractName": "Review",
  "abi": [
    {
      "constant": true,
      "inputs": [],
      "name": "devAddress",
      "outputs": [
        {
          "name": "",
          "type": "address"
        }
      ],
      "payable": false,
      "stateMutability": "view",
      "type": "function"
    },
    {
      "inputs": [],
      "payable": false,
      "stateMutability": "nonpayable",
      "type": "constructor"
    },
    {
      "constant": false,
      "inputs": [],
      "name": "getCurrentID",
      "outputs": [
        {
          "name": "id",
          "type": "uint256"
        }
      ],
      "payable": false,
      "stateMutability": "nonpayable",
      "type": "function"
    },
    {
      "constant": false,
      "inputs": [
        {
          "name": "_id",
          "type": "uint256"
        }
      ],
      "name": "paperExists",
      "outputs": [
        {
          "name": "exists",
          "type": "bool"
        }
      ],
      "payable": false,
      "stateMutability": "nonpayable",
      "type": "function"
    },
    {
      "constant": false,
      "inputs": [
        {
          "name": "_title",
          "type": "string"
        },
        {
          "name": "_location",
          "type": "string"
        },
        {
          "name": "_tags",
          "type": "string[]"
        },
        {
          "name": "_authorNameCreds",
          "type": "string"
        },
        {
          "name": "_prevID",
          "type": "uint256"
        }
      ],
      "name": "addPaper",
      "outputs": [
        {
          "name": "success",
          "type": "bool"
        }
      ],
      "payable": false,
      "stateMutability": "nonpayable",
      "type": "function"
    },
    {
      "constant": false,
      "inputs": [
        {
          "name": "_id",
          "type": "uint256"
        }
      ],
      "name": "getPaperTitle",
      "outputs": [
        {
          "name": "title",
          "type": "string"
        }
      ],
      "payable": false,
      "stateMutability": "nonpayable",
      "type": "function"
    },
    {
      "constant": false,
      "inputs": [
        {
          "name": "_id",
          "type": "uint256"
        }
      ],
      "name": "getPaperLocation",
      "outputs": [
        {
          "name": "location",
          "type": "string"
        }
      ],
      "payable": false,
      "stateMutability": "nonpayable",
      "type": "function"
    },
    {
      "constant": false,
      "inputs": [
        {
          "name": "_id",
          "type": "uint256"
        }
      ],
      "name": "getPaperTags",
      "outputs": [
        {
          "name": "tags",
          "type": "string[]"
        }
      ],
      "payable": false,
      "stateMutability": "nonpayable",
      "type": "function"
    },
    {
      "constant": false,
      "inputs": [
        {
          "name": "_id",
          "type": "uint256"
        }
      ],
      "name": "getPaperComments",
      "outputs": [
        {
          "name": "comments",
          "type": "string[]"
        }
      ],
      "payable": false,
      "stateMutability": "nonpayable",
      "type": "function"
    },
    {
      "constant": false,
      "inputs": [
        {
          "name": "_id",
          "type": "uint256"
        }
      ],
      "name": "getPaperAuthor",
      "outputs": [
        {
          "name": "author",
          "type": "address"
        }
      ],
      "payable": false,
      "stateMutability": "nonpayable",
      "type": "function"
    },
    {
      "constant": false,
      "inputs": [
        {
          "name": "_id",
          "type": "uint256"
        }
      ],
      "name": "getPaperAuthorName",
      "outputs": [
        {
          "name": "author",
          "type": "string"
        }
      ],
      "payable": false,
      "stateMutability": "nonpayable",
      "type": "function"
    },
    {
      "constant": false,
      "inputs": [
        {
          "name": "_id",
          "type": "uint256"
        }
      ],
      "name": "getPaperPrevId",
      "outputs": [
        {
          "name": "prevId",
          "type": "uint256"
        }
      ],
      "payable": false,
      "stateMutability": "nonpayable",
      "type": "function"
    },
    {
      "constant": false,
      "inputs": [
        {
          "name": "_id",
          "type": "uint256"
        }
      ],
      "name": "getPaperNextId",
      "outputs": [
        {
          "name": "nextId",
          "type": "uint256"
        }
      ],
      "payable": false,
      "stateMutability": "nonpayable",
      "type": "function"
    },
    {
      "constant": false,
      "inputs": [
        {
          "name": "_id",
          "type": "uint256"
        }
      ],
      "name": "getPaperState",
      "outputs": [
        {
          "name": "state",
          "type": "uint256"
        }
      ],
      "payable": false,
      "stateMutability": "nonpayable",
      "type": "function"
    },
    {
      "constant": false,
      "inputs": [
        {
          "name": "_id",
          "type": "uint256"
        }
      ],
      "name": "getPaperVotes",
      "outputs": [
        {
          "name": "votes",
          "type": "uint256[4]"
        }
      ],
      "payable": false,
      "stateMutability": "nonpayable",
      "type": "function"
    },
    {
      "constant": false,
      "inputs": [
        {
          "name": "_id",
          "type": "uint256"
        }
      ],
      "name": "getPaperDate",
      "outputs": [
        {
          "name": "date",
          "type": "uint256"
        }
      ],
      "payable": false,
      "stateMutability": "nonpayable",
      "type": "function"
    },
    {
      "constant": false,
      "inputs": [
        {
          "name": "_id",
          "type": "uint256"
        }
      ],
      "name": "addReviewerForPaper",
      "outputs": [
        {
          "name": "success",
          "type": "bool"
        }
      ],
      "payable": false,
      "stateMutability": "nonpayable",
      "type": "function"
    },
    {
      "constant": false,
      "inputs": [
        {
          "name": "_id",
          "type": "uint256"
        },
        {
          "name": "_comment",
          "type": "string"
        }
      ],
      "name": "addComment",
      "outputs": [
        {
          "name": "success",
          "type": "bool"
        }
      ],
      "payable": false,
      "stateMutability": "nonpayable",
      "type": "function"
    },
    {
      "constant": false,
      "inputs": [
        {
          "name": "_id",
          "type": "uint256"
        }
      ],
      "name": "getReviewersForPaper",
      "outputs": [
        {
          "name": "reviewers",
          "type": "address[]"
        }
      ],
      "payable": false,
      "stateMutability": "nonpayable",
      "type": "function"
    },
    {
      "constant": false,
      "inputs": [
        {
          "name": "_reviewer",
          "type": "address"
        }
      ],
      "name": "getTopicsForReviewer",
      "outputs": [
        {
          "name": "topics",
          "type": "string[]"
        }
      ],
      "payable": false,
      "stateMutability": "nonpayable",
      "type": "function"
    },
    {
      "constant": false,
      "inputs": [
        {
          "name": "_user",
          "type": "address"
        }
      ],
      "name": "addVerifiedUser",
      "outputs": [
        {
          "name": "success",
          "type": "bool"
        }
      ],
      "payable": false,
      "stateMutability": "nonpayable",
      "type": "function"
    },
    {
      "constant": false,
      "inputs": [
        {
          "name": "_user",
          "type": "address"
        },
        {
          "name": "_topics",
          "type": "string[]"
        }
      ],
      "name": "addTopicsForReviewer",
      "outputs": [
        {
          "name": "success",
          "type": "bool"
        }
      ],
      "payable": false,
      "stateMutability": "nonpayable",
      "type": "function"
    },
    {
      "constant": false,
      "inputs": [
        {
          "name": "_id",
          "type": "uint256"
        },
        {
          "name": "_vote",
          "type": "uint256"
        }
      ],
      "name": "userVoteOnPaper",
      "outputs": [
        {
          "name": "success",
          "type": "bool"
        }
      ],
      "payable": false,
      "stateMutability": "nonpayable",
      "type": "function"
    },
    {
      "constant": false,
      "inputs": [
        {
          "name": "_id",
          "type": "uint256"
        },
        {
          "name": "_amount",
          "type": "uint256"
        }
      ],
      "name": "stakeTokens",
      "outputs": [
        {
          "name": "success",
          "type": "bool"
        }
      ],
      "payable": false,
      "stateMutability": "nonpayable",
      "type": "function"
    },
    {
      "constant": false,
      "inputs": [
        {
          "name": "_id",
          "type": "uint256"
        }
      ],
      "name": "revokeTokens",
      "outputs": [
        {
          "name": "success",
          "type": "bool"
        }
      ],
      "payable": false,
      "stateMutability": "nonpayable",
      "type": "function"
    },
    {
      "constant": false,
      "inputs": [
        {
          "name": "_id",
          "type": "uint256"
        }
      ],
      "name": "getNumTokens",
      "outputs": [
        {
          "name": "",
          "type": "uint256"
        }
      ],
      "payable": false,
      "stateMutability": "nonpayable",
      "type": "function"
    }
  ],
  "bytecode": "0x6080604052600f60045534801561001557600080fd5b50600160098190555033600160006101000a81548173ffffffffffffffffffffffffffffffffffffffff021916908373ffffffffffffffffffffffffffffffffffffffff1602179055506128308061006e6000396000f3fe608060405260043610610149576000357c0100000000000000000000000000000000000000000000000000000000900463ffffffff1680630642e8961461014e5780630fcef4371461018b5780632119249f146101c85780632ec3a85e1461020557806332f566a3146102425780633ad10ef61461027f5780633b7b6188146102aa57806349e5124d146102e7578063532ca62b146103245780635cbdfd611461036157806364ce598d1461039e5780637186008f146103db57806376698442146104185780637d644de61461045557806388e3c5d6146104925780638bff9c93146104cf5780639b9c803d1461050c578063a23f2e2914610549578063aa7e568314610586578063b418441e146105c3578063c651c66b14610600578063d931e6021461063d578063dc39a4411461067a578063ef1e7df3146106b7578063f641ba4b146106e2575b600080fd5b34801561015a57600080fd5b50610175600480360361017091908101906121c7565b61071f565b6040516101829190612531565b60405180910390f35b34801561019757600080fd5b506101b260048036036101ad91908101906121c7565b6107d7565b6040516101bf9190612553565b60405180910390f35b3480156101d457600080fd5b506101ef60048036036101ea91908101906121c7565b6107f7565b6040516101fc9190612553565b60405180910390f35b34801561021157600080fd5b5061022c600480360361022791908101906121c7565b6108c8565b6040516102399190612553565b60405180910390f35b34801561024e57600080fd5b50610269600480360361026491908101906121c7565b6108e8565b60405161027691906124b7565b60405180910390f35b34801561028b57600080fd5b50610294610989565b6040516102a19190612465565b60405180910390f35b3480156102b657600080fd5b506102d160048036036102cc919081019061226d565b6109af565b6040516102de9190612516565b60405180910390f35b3480156102f357600080fd5b5061030e60048036036103099190810190612073565b610ac5565b60405161031b9190612516565b60405180910390f35b34801561033057600080fd5b5061034b600480360361034691908101906121c7565b610b85565b6040516103589190612553565b60405180910390f35b34801561036d57600080fd5b50610388600480360361038391908101906121c7565b610ba5565b60405161039591906124fb565b60405180910390f35b3480156103aa57600080fd5b506103c560048036036103c091908101906121c7565b610c2e565b6040516103d291906124d9565b60405180910390f35b3480156103e757600080fd5b5061040260048036036103fd91908101906121c7565b610d2d565b60405161040f9190612553565b60405180910390f35b34801561042457600080fd5b5061043f600480360361043a91908101906121c7565b610d4d565b60405161044c9190612531565b60405180910390f35b34801561046157600080fd5b5061047c600480360361047791908101906121c7565b610e05565b6040516104899190612516565b60405180910390f35b34801561049e57600080fd5b506104b960048036036104b4919081019061204a565b610e24565b6040516104c69190612516565b60405180910390f35b3480156104db57600080fd5b506104f660048036036104f191908101906121c7565b610ee7565b6040516105039190612516565b60405180910390f35b34801561051857600080fd5b50610533600480360361052e91908101906121c7565b6110d1565b6040516105409190612465565b60405180910390f35b34801561055557600080fd5b50610570600480360361056b91908101906120f0565b611111565b60405161057d9190612516565b60405180910390f35b34801561059257600080fd5b506105ad60048036036105a89190810190612219565b611452565b6040516105ba9190612516565b60405180910390f35b3480156105cf57600080fd5b506105ea60048036036105e5919081019061226d565b611685565b6040516105f79190612516565b60405180910390f35b34801561060c57600080fd5b506106276004803603610622919081019061204a565b611767565b60405161063491906124d9565b60405180910390f35b34801561064957600080fd5b50610664600480360361065f91908101906121c7565b61188f565b6040516106719190612531565b60405180910390f35b34801561068657600080fd5b506106a1600480360361069c91908101906121c7565b611947565b6040516106ae91906124d9565b60405180910390f35b3480156106c357600080fd5b506106cc611a46565b6040516106d99190612553565b60405180910390f35b3480156106ee57600080fd5b50610709600480360361070491908101906121c7565b611a50565b6040516107169190612516565b60405180910390f35b6060600260008381526020019081526020016000206002018054600181600116156101000203166002900480601f0160208091040260200160405190810160405280929190818152602001828054600181600116156101000203166002900480156107cb5780601f106107a0576101008083540402835291602001916107cb565b820191906000526020600020905b8154815290600101906020018083116107ae57829003601f168201915b50505050509050919050565b600060026000838152602001908152602001600020600801549050919050565b60008060009054906101000a900473ffffffffffffffffffffffffffffffffffffffff1673ffffffffffffffffffffffffffffffffffffffff166356bdaf3a836040518263ffffffff167c010000000000000000000000000000000000000000000000000000000002815260040161086f9190612553565b602060405180830381600087803b15801561088957600080fd5b505af115801561089d573d6000803e3d6000fd5b505050506040513d601f19601f820116820180604052506108c191908101906121f0565b9050919050565b600060026000838152602001908152602001600020600901549050919050565b60606006600083815260200190815260200160002080548060200260200160405190810160405280929190818152602001828054801561097d57602002820191906000526020600020905b8160009054906101000a900473ffffffffffffffffffffffffffffffffffffffff1673ffffffffffffffffffffffffffffffffffffffff1681526020019060010190808311610933575b50505050509050919050565b600160009054906101000a900473ffffffffffffffffffffffffffffffffffffffff1681565b60006109ba83610e05565b15156109c257fe5b600060026000858152602001908152602001600020600901541415156109e457fe5b600182101515156109f157fe5b6000809054906101000a900473ffffffffffffffffffffffffffffffffffffffff1673ffffffffffffffffffffffffffffffffffffffff16630cff8e8f3385856040518463ffffffff167c0100000000000000000000000000000000000000000000000000000000028152600401610a6b93929190612480565b602060405180830381600087803b158015610a8557600080fd5b505af1158015610a99573d6000803e3d6000fd5b505050506040513d601f19601f82011682018060405250610abd91908101906120c7565b905092915050565b6000600160009054906101000a900473ffffffffffffffffffffffffffffffffffffffff1673ffffffffffffffffffffffffffffffffffffffff163373ffffffffffffffffffffffffffffffffffffffff161415610b7a5781600560008573ffffffffffffffffffffffffffffffffffffffff1673ffffffffffffffffffffffffffffffffffffffff1681526020019081526020016000209080519060200190610b70929190611c5c565b5060019050610b7f565b600090505b92915050565b600060026000838152602001908152602001600020600701549050919050565b610bad611cbc565b60806040519081016040528060026000858152602001908152602001600020600b0154815260200160026000858152602001908152602001600020600a0154815260200160026000858152602001908152602001600020600d0154815260200160026000858152602001908152602001600020600c01548152509050919050565b606060026000838152602001908152602001600020600301805480602002602001604051908101604052809291908181526020016000905b82821015610d22578382906000526020600020018054600181600116156101000203166002900480601f016020809104026020016040519081016040528092919081815260200182805460018160011615610100020316600290048015610d0e5780601f10610ce357610100808354040283529160200191610d0e565b820191906000526020600020905b815481529060010190602001808311610cf157829003601f168201915b505050505081526020019060010190610c66565b505050509050919050565b600060026000838152602001908152602001600020600e01549050919050565b6060600260008381526020019081526020016000206001018054600181600116156101000203166002900480601f016020809104026020016040519081016040528092919081815260200182805460018160011615610100020316600290048015610df95780601f10610dce57610100808354040283529160200191610df9565b820191906000526020600020905b815481529060010190602001808311610ddc57829003601f168201915b50505050509050919050565b6000610e0f611a46565b82108015610e1d5750600082115b9050919050565b6000600160009054906101000a900473ffffffffffffffffffffffffffffffffffffffff1673ffffffffffffffffffffffffffffffffffffffff163373ffffffffffffffffffffffffffffffffffffffff161415610edd576001600360008473ffffffffffffffffffffffffffffffffffffffff1673ffffffffffffffffffffffffffffffffffffffff16815260200190815260200160002060006101000a81548160ff02191690831515021790555060019050610ee2565b600090505b919050565b6000600460026000848152602001908152602001600020600901541480610f24575060006002600084815260200190815260200160002060090154145b1515610f2f57600080fd5b60008060009054906101000a900473ffffffffffffffffffffffffffffffffffffffff1673ffffffffffffffffffffffffffffffffffffffff16638282469d84336040518363ffffffff167c0100000000000000000000000000000000000000000000000000000000028152600401610fa992919061256e565b602060405180830381600087803b158015610fc357600080fd5b505af1158015610fd7573d6000803e3d6000fd5b505050506040513d601f19601f82011682018060405250610ffb91908101906121f0565b90506000809054906101000a900473ffffffffffffffffffffffffffffffffffffffff1673ffffffffffffffffffffffffffffffffffffffff16630356613b8433846040518463ffffffff167c010000000000000000000000000000000000000000000000000000000002815260040161107793929190612597565b602060405180830381600087803b15801561109157600080fd5b505af11580156110a5573d6000803e3d6000fd5b505050506040513d601f19601f820116820180604052506110c991908101906120c7565b915050919050565b60006002600083815260200190815260200160002060050160009054906101000a900473ffffffffffffffffffffffffffffffffffffffff169050919050565b6000808214806111a457506002600083815260200190815260200160002060050160009054906101000a900473ffffffffffffffffffffffffffffffffffffffff1673ffffffffffffffffffffffffffffffffffffffff163373ffffffffffffffffffffffffffffffffffffffff161480156111a3575060036002600084815260200190815260200160002060090154105b5b15611444576101e0604051908101604052806009548152602001868152602001878152602001858152602001600060405190808252806020026020018201604052801561120557816020015b60608152602001906001900390816111f05790505b5081526020013373ffffffffffffffffffffffffffffffffffffffff1681526020018481526020016000815260200183815260200160008152602001600081526020016000815260200160008152602001600081526020014281525060026000600954815260200190815260200160002060008201518160000155602082015181600101908051906020019061129c929190611cdf565b5060408201518160020190805190602001906112b9929190611cdf565b5060608201518160030190805190602001906112d6929190611d5f565b5060808201518160040190805190602001906112f3929190611d5f565b5060a08201518160050160006101000a81548173ffffffffffffffffffffffffffffffffffffffff021916908373ffffffffffffffffffffffffffffffffffffffff16021790555060c0820151816006019080519060200190611357929190611cdf565b5060e082015181600701556101008201518160080155610120820151816009015561014082015181600a015561016082015181600b015561018082015181600c01556101a082015181600d01556101c082015181600e0155905050600082141515611429576009546002600084815260200190815260200160002060080181905550600260008381526020019081526020016000206009015460026000600954815260200190815260200160002060090181905550600460026000848152602001908152602001600020600901819055505b60096000815480929190600101919050555060019050611449565b600090505b95945050505050565b6000600a825111151561146157fe5b60036002600085815260200190815260200160002060090154101561167a5760028060008581526020019081526020016000206009015414156116265760606006600085815260200190815260200160002080548060200260200160405190810160405280929190818152602001828054801561153357602002820191906000526020600020905b8160009054906101000a900473ffffffffffffffffffffffffffffffffffffffff1673ffffffffffffffffffffffffffffffffffffffff16815260200190600101908083116114e9575b50505050509050600080905060008090505b82518110156115af57828181518110151561155c57fe5b9060200190602002015173ffffffffffffffffffffffffffffffffffffffff163373ffffffffffffffffffffffffffffffffffffffff1614156115a257600191506115af565b8080600101915050611545565b506000151581151514156115c85760009250505061167f565b60026000868152602001908152602001600020600401849080600181540180825580915050906001820390600052602060002001600090919290919091509080519060200190611619929190611dbf565b505060019250505061167f565b60026000848152602001908152602001600020600401829080600181540180825580915050906001820390600052602060002001600090919290919091509080519060200190611677929190611dbf565b50505b600090505b92915050565b60006009548310151561169457fe5b6000821180156116a55750600a8211155b15156116ad57fe5b6008600084815260200190815260200160002060003373ffffffffffffffffffffffffffffffffffffffff1673ffffffffffffffffffffffffffffffffffffffff16815260200190815260200160002060009054906101000a900460ff1615151561171457fe5b8160026000858152602001908152602001600020600b0160008282540192505081905550600160026000858152602001908152602001600020600a01600082825401925050819055506001905092915050565b6060600560008373ffffffffffffffffffffffffffffffffffffffff1673ffffffffffffffffffffffffffffffffffffffff168152602001908152602001600020805480602002602001604051908101604052809291908181526020016000905b82821015611884578382906000526020600020018054600181600116156101000203166002900480601f0160208091040260200160405190810160405280929190818152602001828054600181600116156101000203166002900480156118705780601f1061184557610100808354040283529160200191611870565b820191906000526020600020905b81548152906001019060200180831161185357829003601f168201915b5050505050815260200190600101906117c8565b505050509050919050565b6060600260008381526020019081526020016000206006018054600181600116156101000203166002900480601f01602080910402602001604051908101604052809291908181526020018280546001816001161561010002031660029004801561193b5780601f106119105761010080835404028352916020019161193b565b820191906000526020600020905b81548152906001019060200180831161191e57829003601f168201915b50505050509050919050565b606060026000838152602001908152602001600020600401805480602002602001604051908101604052809291908181526020016000905b82821015611a3b578382906000526020600020018054600181600116156101000203166002900480601f016020809104026020016040519081016040528092919081815260200182805460018160011615610100020316600290048015611a275780601f106119fc57610100808354040283529160200191611a27565b820191906000526020600020905b815481529060010190602001808311611a0a57829003601f168201915b50505050508152602001906001019061197f565b505050509050919050565b6000600954905090565b600060095482101515611a5f57fe5b60006002600084815260200190815260200160002060090154141515611a8157fe5b6004546006600084815260200190815260200160002080549050101515611aa457fe5b600360003373ffffffffffffffffffffffffffffffffffffffff1673ffffffffffffffffffffffffffffffffffffffff16815260200190815260200160002060009054906101000a900460ff161515611af957fe5b60008090505b600560003373ffffffffffffffffffffffffffffffffffffffff1673ffffffffffffffffffffffffffffffffffffffff16815260200190815260200160002080549050811015611c515760008090505b6002600085815260200190815260200160002060030180549050811015611c435780821415611c3657600660008581526020019081526020016000203390806001815401808255809150509060018203906000526020600020016000909192909190916101000a81548173ffffffffffffffffffffffffffffffffffffffff021916908373ffffffffffffffffffffffffffffffffffffffff1602179055505060045460066000868152602001908152602001600020805490501415611c2b576002806000868152602001908152602001600020600901819055505b600192505050611c57565b8180600101925050611b4f565b508080600101915050611aff565b50600090505b919050565b828054828255906000526020600020908101928215611cab579160200282015b82811115611caa578251829080519060200190611c9a929190611cdf565b5091602001919060010190611c7c565b5b509050611cb89190611e3f565b5090565b608060405190810160405280600490602082028038833980820191505090505090565b828054600181600116156101000203166002900490600052602060002090601f016020900481019282601f10611d2057805160ff1916838001178555611d4e565b82800160010185558215611d4e579182015b82811115611d4d578251825591602001919060010190611d32565b5b509050611d5b9190611e6b565b5090565b828054828255906000526020600020908101928215611dae579160200282015b82811115611dad578251829080519060200190611d9d929190611cdf565b5091602001919060010190611d7f565b5b509050611dbb9190611e3f565b5090565b828054600181600116156101000203166002900490600052602060002090601f016020900481019282601f10611e0057805160ff1916838001178555611e2e565b82800160010185558215611e2e579182015b82811115611e2d578251825591602001919060010190611e12565b5b509050611e3b9190611e6b565b5090565b611e6891905b80821115611e645760008181611e5b9190611e90565b50600101611e45565b5090565b90565b611e8d91905b80821115611e89576000816000905550600101611e71565b5090565b90565b50805460018160011615610100020316600290046000825580601f10611eb65750611ed5565b601f016020900490600052602060002090810190611ed49190611e6b565b5b50565b6000611ee48235612745565b905092915050565b600082601f8301121515611eff57600080fd5b8135611f12611f0d826125fb565b6125ce565b9150818183526020840193506020810190508360005b83811015611f585781358601611f3e8882611f76565b845260208401935060208301925050600181019050611f28565b5050505092915050565b6000611f6e8251612757565b905092915050565b600082601f8301121515611f8957600080fd5b8135611f9c611f9782612623565b6125ce565b91508082526020830160208301858383011115611fb857600080fd5b611fc38382846127a3565b50505092915050565b600082601f8301121515611fdf57600080fd5b8135611ff2611fed8261264f565b6125ce565b9150808252602083016020830185838301111561200e57600080fd5b6120198382846127a3565b50505092915050565b600061202e8235612763565b905092915050565b60006120428251612763565b905092915050565b60006020828403121561205c57600080fd5b600061206a84828501611ed8565b91505092915050565b6000806040838503121561208657600080fd5b600061209485828601611ed8565b925050602083013567ffffffffffffffff8111156120b157600080fd5b6120bd85828601611eec565b9150509250929050565b6000602082840312156120d957600080fd5b60006120e784828501611f62565b91505092915050565b600080600080600060a0868803121561210857600080fd5b600086013567ffffffffffffffff81111561212257600080fd5b61212e88828901611fcc565b955050602086013567ffffffffffffffff81111561214b57600080fd5b61215788828901611fcc565b945050604086013567ffffffffffffffff81111561217457600080fd5b61218088828901611eec565b935050606086013567ffffffffffffffff81111561219d57600080fd5b6121a988828901611fcc565b92505060806121ba88828901612022565b9150509295509295909350565b6000602082840312156121d957600080fd5b60006121e784828501612022565b91505092915050565b60006020828403121561220257600080fd5b600061221084828501612036565b91505092915050565b6000806040838503121561222c57600080fd5b600061223a85828601612022565b925050602083013567ffffffffffffffff81111561225757600080fd5b61226385828601611fcc565b9150509250929050565b6000806040838503121561228057600080fd5b600061228e85828601612022565b925050602061229f85828601612022565b9150509250929050565b6122b28161276d565b82525050565b6122c1816126fd565b82525050565b60006122d28261269f565b8084526020840193506122e48361267b565b60005b82811015612316576122fa8683516122b8565b612303826126d6565b91506020860195506001810190506122e7565b50849250505092915050565b600061232d826126aa565b8084526020840193508360208202850161234685612688565b60005b8481101561237f578383038852612361838351612420565b925061236c826126e3565b9150602088019750600181019050612349565b508196508694505050505092915050565b612399816126b5565b6123a282612695565b60005b828110156123d4576123b8858351612456565b6123c1826126f0565b91506020850194506001810190506123a5565b5050505050565b6123e48161270f565b82525050565b60006123f5826126cb565b8084526124098160208601602086016127b2565b612412816127e5565b602085010191505092915050565b600061242b826126c0565b80845261243f8160208601602086016127b2565b612448816127e5565b602085010191505092915050565b61245f8161273b565b82525050565b600060208201905061247a60008301846122b8565b92915050565b600060608201905061249560008301866122a9565b6124a26020830185612456565b6124af6040830184612456565b949350505050565b600060208201905081810360008301526124d181846122c7565b905092915050565b600060208201905081810360008301526124f38184612322565b905092915050565b60006080820190506125106000830184612390565b92915050565b600060208201905061252b60008301846123db565b92915050565b6000602082019050818103600083015261254b81846123ea565b905092915050565b60006020820190506125686000830184612456565b92915050565b60006040820190506125836000830185612456565b61259060208301846122a9565b9392505050565b60006060820190506125ac6000830186612456565b6125b960208301856122a9565b6125c66040830184612456565b949350505050565b6000604051905081810181811067ffffffffffffffff821117156125f157600080fd5b8060405250919050565b600067ffffffffffffffff82111561261257600080fd5b602082029050602081019050919050565b600067ffffffffffffffff82111561263a57600080fd5b601f19601f8301169050602081019050919050565b600067ffffffffffffffff82111561266657600080fd5b601f19601f8301169050602081019050919050565b6000602082019050919050565b6000602082019050919050565b6000819050919050565b600081519050919050565b600081519050919050565b600060049050919050565b600081519050919050565b600081519050919050565b6000602082019050919050565b6000602082019050919050565b6000602082019050919050565b60006127088261271b565b9050919050565b60008115159050919050565b600073ffffffffffffffffffffffffffffffffffffffff82169050919050565b6000819050919050565b60006127508261271b565b9050919050565b60008115159050919050565b6000819050919050565b60006127788261277f565b9050919050565b600061278a82612791565b9050919050565b600061279c8261271b565b9050919050565b82818337600083830152505050565b60005b838110156127d05780820151818401526020810190506127b5565b838111156127df576000848401525b50505050565b6000601f19601f830116905091905056fea265627a7a72305820098cce80cc16d5ff63ed0c79122ab3588a130bad12519b1d48b9df70a9c98e276c6578706572696d656e74616cf50037",
  "source": "pragma solidity 0.5.0;\r\npragma experimental ABIEncoderV2;\r\nimport \"./CAJCoin.sol\";\r\n\r\ncontract Review {\r\n    \r\n    //token contract\r\n    CAJCoin tokenContract;\r\n\r\n    address public devAddress;\r\n\r\n    //Paper struct\r\n    struct Paper {\r\n        //id of the paper\r\n        uint256 id;\r\n        //file url of paper\r\n        string location; // maybe change later\r\n        //title of paper\r\n        string title;\r\n        //paper tags\r\n        string[] tags;\r\n        //comments\r\n        string[] comments;\r\n        //uploader of paper\r\n        address author;\r\n        //name of author & creds\r\n        string authorNameCreds;\r\n        //id of previous paper if this is a revision\r\n        uint256 prevId;\r\n        //id of nect paper if this is an old copy\r\n        uint256 nextId;\r\n        //state of the paper,\r\n        //(0 unreviewed, 1 ready for review, 2 under review, 3 published, 4 old version of a different paper, 5 for dead)\r\n        uint state;\r\n        //vote related stuff\r\n        uint256 userVotes;\r\n        uint256 userScore;\r\n        uint reviewerVotes;\r\n        uint reviewerScore;\r\n        //date\r\n        uint256 date;\r\n    \r\n    }\r\n\r\n    // paper ids to paper objects\r\n    mapping(uint256 => Paper) private papers;\r\n\r\n    //mapping of addresses to booleans representing wether an address is \"verified\"\r\n    mapping(address => bool) private verifiedUsers;\r\n\r\n    //constant\r\n    uint256 NUMBER_OF_REVIEWERS = 15;\r\n    \r\n    //mapping of an address to the topics the verified user is allowed to review\r\n    mapping(address => string[]) allowedReviewerTopics;\r\n    \r\n    //mapping of reviewers currently reviewing a paper\r\n    mapping(uint256 => address[]) private reviewersForPaper;\r\n    \r\n    //track if reviewers and users have alreayd voted on a paper\r\n    mapping(uint256 => mapping(address => bool)) private reviewerHasVoted;\r\n    mapping(uint256 => mapping(address => bool)) private userHasVoted;\r\n    \r\n    //next id to be assigned\r\n    uint256 private currentId; \r\n    \r\n\r\n    // constructor\r\n    constructor() public {//(uint threshold) public {\r\n        // 0 is used as a null value for ids\r\n        currentId = 1;\r\n        devAddress = msg.sender;\r\n        // impliment some sort of limit on staking tokens\r\n    }\r\n\r\n    //getter for current ID\r\n    function getCurrentID() public returns (uint256 id) {\r\n        return currentId;\r\n    }\r\n\r\n    //check if a paper exists\r\n    function paperExists(uint256 _id) public returns (bool exists) {\r\n        return _id < getCurrentID() && _id > 0;\r\n    }\r\n\r\n    // add a new paper with the specified fields\r\n    function addPaper(string memory _title, string memory _location, string[] memory _tags, string memory _authorNameCreds, uint256 _prevID) public returns (bool success) { \r\n        if (_prevID == 0 ||\r\n            (msg.sender == papers[_prevID].author) && papers[_prevID].state < 3) {\r\n                papers[currentId] = Paper(currentId, _location, _title, _tags, new string[](0), msg.sender, _authorNameCreds, 0, _prevID, 0, 0, 0, 0, 0, block.timestamp);\r\n                if (_prevID != 0) {\r\n                    papers[_prevID].nextId = currentId;\r\n                    papers[currentId].state = papers[_prevID].state;\r\n                    papers[_prevID].state = 4;\r\n                }\r\n                currentId++;\r\n                return true;\r\n        }\r\n        return false;\r\n    }\r\n\r\n    //getter methods for papers\r\n    function getPaperTitle(uint256 _id) public returns (string memory title) {\r\n        title = papers[_id].title;\r\n    }\r\n\r\n    function getPaperLocation(uint256 _id) public returns (string memory location) {\r\n        location = papers[_id].location;\r\n    }\r\n\r\n    function getPaperTags(uint256 _id) public returns (string[] memory tags) {\r\n        tags = papers[_id].tags;\r\n    }\r\n\r\n    function getPaperComments(uint256 _id) public returns (string[] memory comments) {\r\n        comments = papers[_id].comments;\r\n    }\r\n\r\n    function getPaperAuthor(uint256 _id) public returns (address author) {\r\n        author = papers[_id].author;\r\n    }\r\n\r\n    function getPaperAuthorName(uint256 _id) public returns (string memory author) {\r\n        author = papers[_id].authorNameCreds;\r\n    }\r\n\r\n    function getPaperPrevId(uint256 _id) public returns (uint256 prevId) {\r\n        prevId = papers[_id].prevId;\r\n    }\r\n\r\n    function getPaperNextId(uint256 _id) public returns (uint256 nextId) {\r\n        nextId = papers[_id].nextId;\r\n    }\r\n\r\n    function getPaperState(uint256 _id) public returns (uint256 state) {\r\n        state = papers[_id].state;\r\n    }\r\n\r\n    function getPaperVotes(uint256 _id) public returns (uint256[4] memory votes) {\r\n        votes = [papers[_id].userScore, papers[_id].userVotes, papers[_id].reviewerScore, papers[_id].reviewerVotes];\r\n    }\r\n\r\n    function getPaperDate(uint256 _id) public returns (uint256 date) {\r\n        date = papers[_id].date;\r\n    }\r\n\r\n    \r\n\r\n    //user signs up to review a paper\r\n    function addReviewerForPaper(uint256 _id) public returns (bool success) {\r\n        //first check if the paper can take more reviewers\r\n        assert(_id < currentId);\r\n        assert(papers[_id].state == 0);\r\n        assert(reviewersForPaper[_id].length < NUMBER_OF_REVIEWERS);\r\n        //check if user is a reviewer\r\n        assert(verifiedUsers[msg.sender]);\r\n        //check for tags, and if they match, add the user and return true\r\n        //if this would reach the limit, change the state of the paper as well\r\n        for (uint i = 0; i < allowedReviewerTopics[msg.sender].length; i++) {\r\n            for (uint j = 0; j < papers[_id].tags.length; i++) {\r\n                if (i == j) {\r\n                    reviewersForPaper[_id].push(msg.sender);\r\n                    if (reviewersForPaper[_id].length == NUMBER_OF_REVIEWERS) {\r\n                        papers[_id].state = 2;\r\n                    }\r\n                    return true;\r\n                }\r\n            }\r\n        }\r\n        return false;   \r\n    }\r\n\r\n    //comment on papers\r\n    function addComment(uint256 _id, string memory _comment) public returns (bool success) {\r\n        assert(bytes(_comment).length > 10);\r\n        if (papers[_id].state < 3) {\r\n            //if the paper is under review, only reviewers can comment\r\n            if(papers[_id].state == 2) {\r\n               address[] memory reviewers = reviewersForPaper[_id];\r\n                bool x = false;\r\n                for (uint i = 0; i < reviewers.length; i++) {\r\n                    if (msg.sender == reviewers[i]) {\r\n                        x = true;\r\n                        break;\r\n                    }\r\n                }\r\n                if (x == false) {\r\n                    return false;\r\n                } else {\r\n                    papers[_id].comments.push(_comment);\r\n                    return true;\r\n                } \r\n            } else {\r\n                papers[_id].comments.push(_comment);\r\n            }\r\n        }\r\n        return false;\r\n    }\r\n\r\n    //get reviewers for a paper\r\n    function getReviewersForPaper(uint256 _id) public returns (address[] memory reviewers) {\r\n        return reviewersForPaper[_id];\r\n    }\r\n\r\n    //get topics for reviewer\r\n    function getTopicsForReviewer(address _reviewer) public returns (string[] memory topics) {\r\n        return allowedReviewerTopics[_reviewer];\r\n    }\r\n\r\n    //verify  a user, only the dev account can do this because we onboard them\r\n    function addVerifiedUser(address _user) public returns (bool success) {\r\n        if (msg.sender == devAddress) {\r\n            verifiedUsers[_user] = true;\r\n            return true;\r\n        } else {\r\n            return false;\r\n        }\r\n    }\r\n\r\n    // reset the topics for a reviewer, only dev can do this\r\n    function addTopicsForReviewer(address _user, string[] memory _topics) public returns (bool success) {\r\n        if (msg.sender == devAddress) {\r\n            allowedReviewerTopics[_user] = _topics;\r\n            return true;\r\n        } else {\r\n            return false;\r\n        }\r\n    }\r\n\r\n    //reviewer votes on a paper\r\n    function reviewerVoteOnPaper(uint256 _id, bool vote) private returns (bool success) {\r\n        assert(verifiedUsers[msg.sender]);\r\n        assert(reviewerHasVoted[_id][msg.sender] == false);\r\n        address[] storage reviewers = reviewersForPaper[_id];\r\n        bool x = false;\r\n        for (uint i = 0; i < reviewers.length; i++) {\r\n            if (msg.sender == reviewers[i]) {\r\n                x = true;\r\n                break;\r\n            }\r\n        }\r\n        if (x == false) {\r\n            return false;\r\n        }\r\n        papers[_id].reviewerVotes += 1;\r\n        if (vote) {\r\n            papers[_id].reviewerScore += 1;\r\n        }\r\n\r\n        //check if paper is to be published or killed yet and distribute tokens\r\n        if(papers[_id].reviewerScore >= 10 ||\r\n            (papers[_id].reviewerScore < 10 && papers[_id].reviewerVotes == 15)) {\r\n            if (papers[_id].reviewerScore >= 10) {\r\n                //publish\r\n                papers[_id].state = 3;\r\n            } else {\r\n                //kill\r\n                papers[_id].state = 5;\r\n            }\r\n            //distribute tokens\r\n            uint256 amountToDistriute = getNumTokens(_id) / 15;\r\n            for (uint i = 0; i < reviewers.length; i++) {\r\n                tokenContract.collectTokens(_id, reviewers[i], amountToDistriute);\r\n            }\r\n        } \r\n        return true;   \r\n    }\r\n\r\n    //userVoteOnPaper\r\n    function userVoteOnPaper(uint256 _id, uint256 _vote) public returns (bool success) {\r\n        assert(_id < currentId);\r\n        assert(_vote > 0 && _vote <= 10);\r\n        assert(!userHasVoted[_id][msg.sender]);\r\n        papers[_id].userScore += _vote;\r\n        papers[_id].userVotes += 1;\r\n        return true;\r\n    }\r\n\r\n    //stake tokens\r\n    function stakeTokens(uint256 _id, uint256 _amount) public returns (bool success) {\r\n        assert(paperExists(_id));\r\n        assert(papers[_id].state == 0);\r\n        assert(_amount >= 1);\r\n        success = tokenContract.stakeTokens(msg.sender, _id, _amount);\r\n        \r\n    }\r\n\r\n    //revokes all of a user's tokens from an old revision of a paper\r\n    function revokeTokens(uint256 _id) public returns (bool success) {\r\n        require(papers[_id].state == 4 || papers[_id].state == 0);\r\n        uint256 amount = tokenContract.tokensStakedByUser(_id, msg.sender);\r\n        return tokenContract.collectTokens(_id, msg.sender, amount);\r\n    }\r\n\r\n    //get current number of tokens for a paper\r\n    function getNumTokens(uint256 _id) public returns (uint256) {\r\n        return tokenContract.paperBalance(_id);\r\n    }\r\n\r\n}",
  "sourcePath": "C:\\Users\\Joe\\Development\\curatedacademicjournal\\contracts\\Review.sol",
  "compiler": {
    "name": "solc",
    "version": "0.5.0+commit.1d4f565a.Emscripten.clang"
  },
  "schemaVersion": "3.0.2",
  "updatedAt": "2019-04-28T05:54:55.286Z",
  "devdoc": {
    "methods": {}
  },
  "userdoc": {
    "methods": {}
  }
}