{
  "contractName": "Review",
  "abi": [
    {
      "constant": true,
      "inputs": [],
      "name": "devAddress",
      "outputs": [
        {
          "name": "",
          "type": "address"
        }
      ],
      "payable": false,
      "stateMutability": "view",
      "type": "function"
    },
    {
      "inputs": [],
      "payable": false,
      "stateMutability": "nonpayable",
      "type": "constructor"
    },
    {
      "constant": false,
      "inputs": [],
      "name": "getCurrentID",
      "outputs": [
        {
          "name": "id",
          "type": "uint256"
        }
      ],
      "payable": false,
      "stateMutability": "nonpayable",
      "type": "function"
    },
    {
      "constant": false,
      "inputs": [
        {
          "name": "_id",
          "type": "uint256"
        }
      ],
      "name": "paperExists",
      "outputs": [
        {
          "name": "exists",
          "type": "bool"
        }
      ],
      "payable": false,
      "stateMutability": "nonpayable",
      "type": "function"
    },
    {
      "constant": false,
      "inputs": [
        {
          "name": "_title",
          "type": "string"
        },
        {
          "name": "_location",
          "type": "string"
        },
        {
          "name": "_tags",
          "type": "string[]"
        },
        {
          "name": "_authorNameCreds",
          "type": "string"
        },
        {
          "name": "_prevID",
          "type": "uint256"
        }
      ],
      "name": "addPaper",
      "outputs": [
        {
          "name": "success",
          "type": "bool"
        }
      ],
      "payable": false,
      "stateMutability": "nonpayable",
      "type": "function"
    },
    {
      "constant": false,
      "inputs": [
        {
          "name": "_id",
          "type": "uint256"
        }
      ],
      "name": "getPaperTitle",
      "outputs": [
        {
          "name": "",
          "type": "string"
        }
      ],
      "payable": false,
      "stateMutability": "nonpayable",
      "type": "function"
    },
    {
      "constant": false,
      "inputs": [
        {
          "name": "_id",
          "type": "uint256"
        }
      ],
      "name": "getPaperLocation",
      "outputs": [
        {
          "name": "location",
          "type": "string"
        }
      ],
      "payable": false,
      "stateMutability": "nonpayable",
      "type": "function"
    },
    {
      "constant": false,
      "inputs": [
        {
          "name": "_id",
          "type": "uint256"
        }
      ],
      "name": "getPaperTags",
      "outputs": [
        {
          "name": "tags",
          "type": "string[]"
        }
      ],
      "payable": false,
      "stateMutability": "nonpayable",
      "type": "function"
    },
    {
      "constant": false,
      "inputs": [
        {
          "name": "_id",
          "type": "uint256"
        }
      ],
      "name": "getPaperComments",
      "outputs": [
        {
          "name": "comments",
          "type": "string[]"
        }
      ],
      "payable": false,
      "stateMutability": "nonpayable",
      "type": "function"
    },
    {
      "constant": false,
      "inputs": [
        {
          "name": "_id",
          "type": "uint256"
        }
      ],
      "name": "getPaperAuthor",
      "outputs": [
        {
          "name": "author",
          "type": "address"
        }
      ],
      "payable": false,
      "stateMutability": "nonpayable",
      "type": "function"
    },
    {
      "constant": false,
      "inputs": [
        {
          "name": "_id",
          "type": "uint256"
        }
      ],
      "name": "getPaperAuthorName",
      "outputs": [
        {
          "name": "author",
          "type": "string"
        }
      ],
      "payable": false,
      "stateMutability": "nonpayable",
      "type": "function"
    },
    {
      "constant": false,
      "inputs": [
        {
          "name": "_id",
          "type": "uint256"
        }
      ],
      "name": "getPaperPrevId",
      "outputs": [
        {
          "name": "prevId",
          "type": "uint256"
        }
      ],
      "payable": false,
      "stateMutability": "nonpayable",
      "type": "function"
    },
    {
      "constant": false,
      "inputs": [
        {
          "name": "_id",
          "type": "uint256"
        }
      ],
      "name": "getPaperNextId",
      "outputs": [
        {
          "name": "nextId",
          "type": "uint256"
        }
      ],
      "payable": false,
      "stateMutability": "nonpayable",
      "type": "function"
    },
    {
      "constant": false,
      "inputs": [
        {
          "name": "_id",
          "type": "uint256"
        }
      ],
      "name": "getPaperState",
      "outputs": [
        {
          "name": "state",
          "type": "uint256"
        }
      ],
      "payable": false,
      "stateMutability": "nonpayable",
      "type": "function"
    },
    {
      "constant": false,
      "inputs": [
        {
          "name": "_id",
          "type": "uint256"
        }
      ],
      "name": "getPaperVotes",
      "outputs": [
        {
          "name": "votes",
          "type": "uint256[4]"
        }
      ],
      "payable": false,
      "stateMutability": "nonpayable",
      "type": "function"
    },
    {
      "constant": false,
      "inputs": [
        {
          "name": "_id",
          "type": "uint256"
        }
      ],
      "name": "getPaperDate",
      "outputs": [
        {
          "name": "date",
          "type": "uint256"
        }
      ],
      "payable": false,
      "stateMutability": "nonpayable",
      "type": "function"
    },
    {
      "constant": false,
      "inputs": [
        {
          "name": "_id",
          "type": "uint256"
        }
      ],
      "name": "addReviewerForPaper",
      "outputs": [
        {
          "name": "success",
          "type": "bool"
        }
      ],
      "payable": false,
      "stateMutability": "nonpayable",
      "type": "function"
    },
    {
      "constant": false,
      "inputs": [
        {
          "name": "_id",
          "type": "uint256"
        },
        {
          "name": "_comment",
          "type": "string"
        }
      ],
      "name": "addComment",
      "outputs": [
        {
          "name": "success",
          "type": "bool"
        }
      ],
      "payable": false,
      "stateMutability": "nonpayable",
      "type": "function"
    },
    {
      "constant": false,
      "inputs": [
        {
          "name": "_id",
          "type": "uint256"
        }
      ],
      "name": "getReviewersForPaper",
      "outputs": [
        {
          "name": "reviewers",
          "type": "address[]"
        }
      ],
      "payable": false,
      "stateMutability": "nonpayable",
      "type": "function"
    },
    {
      "constant": false,
      "inputs": [
        {
          "name": "_reviewer",
          "type": "address"
        }
      ],
      "name": "getTopicsForReviewer",
      "outputs": [
        {
          "name": "topics",
          "type": "string[]"
        }
      ],
      "payable": false,
      "stateMutability": "nonpayable",
      "type": "function"
    },
    {
      "constant": false,
      "inputs": [
        {
          "name": "_user",
          "type": "address"
        }
      ],
      "name": "addVerifiedUser",
      "outputs": [
        {
          "name": "success",
          "type": "bool"
        }
      ],
      "payable": false,
      "stateMutability": "nonpayable",
      "type": "function"
    },
    {
      "constant": false,
      "inputs": [
        {
          "name": "_user",
          "type": "address"
        },
        {
          "name": "_topics",
          "type": "string[]"
        }
      ],
      "name": "addTopicsForReviewer",
      "outputs": [
        {
          "name": "success",
          "type": "bool"
        }
      ],
      "payable": false,
      "stateMutability": "nonpayable",
      "type": "function"
    },
    {
      "constant": false,
      "inputs": [
        {
          "name": "_id",
          "type": "uint256"
        },
        {
          "name": "vote",
          "type": "bool"
        }
      ],
      "name": "reviewerVoteOnPaper",
      "outputs": [
        {
          "name": "success",
          "type": "bool"
        }
      ],
      "payable": false,
      "stateMutability": "nonpayable",
      "type": "function"
    },
    {
      "constant": false,
      "inputs": [
        {
          "name": "_id",
          "type": "uint256"
        },
        {
          "name": "_vote",
          "type": "uint256"
        },
        {
          "name": "_amount",
          "type": "uint256"
        }
      ],
      "name": "userVoteOnPaper",
      "outputs": [
        {
          "name": "success",
          "type": "bool"
        }
      ],
      "payable": false,
      "stateMutability": "nonpayable",
      "type": "function"
    },
    {
      "constant": false,
      "inputs": [
        {
          "name": "_id",
          "type": "uint256"
        }
      ],
      "name": "revokeTokens",
      "outputs": [
        {
          "name": "success",
          "type": "bool"
        }
      ],
      "payable": false,
      "stateMutability": "nonpayable",
      "type": "function"
    },
    {
      "constant": false,
      "inputs": [
        {
          "name": "_id",
          "type": "uint256"
        }
      ],
      "name": "getNumTokens",
      "outputs": [
        {
          "name": "",
          "type": "uint256"
        }
      ],
      "payable": false,
      "stateMutability": "nonpayable",
      "type": "function"
    },
    {
      "constant": false,
      "inputs": [
        {
          "name": "addr",
          "type": "address"
        }
      ],
      "name": "setContract",
      "outputs": [],
      "payable": false,
      "stateMutability": "nonpayable",
      "type": "function"
    }
  ],
  "bytecode": "0x6080604052600a60045534801561001557600080fd5b50600160098190555033600160006101000a81548173ffffffffffffffffffffffffffffffffffffffff021916908373ffffffffffffffffffffffffffffffffffffffff160217905550600160036000600160009054906101000a900473ffffffffffffffffffffffffffffffffffffffff1673ffffffffffffffffffffffffffffffffffffffff1673ffffffffffffffffffffffffffffffffffffffff16815260200190815260200160002060006101000a81548160ff021916908315150217905550612f36806100e86000396000f3fe608060405260043610610154576000357c0100000000000000000000000000000000000000000000000000000000900463ffffffff1680630642e896146101595780630fcef437146101965780632119249f146101d35780632ec3a85e1461021057806332f566a31461024d5780633ad10ef61461028a57806349e5124d146102b5578063532ca62b146102f25780635cbdfd611461032f57806364ce598d1461036c578063662e509f146103a95780637186008f146103e657806375f890ab14610423578063766984421461044c5780637d644de61461048957806388e3c5d6146104c65780638bff9c93146105035780639b9c803d146105405780639ddd60491461057d578063a23f2e29146105ba578063aa7e5683146105f7578063c651c66b14610634578063d931e60214610671578063dc39a441146106ae578063ef1e7df3146106eb578063f641ba4b14610716575b600080fd5b34801561016557600080fd5b50610180600480360361017b9190810190612847565b610753565b60405161018d9190612c00565b60405180910390f35b3480156101a257600080fd5b506101bd60048036036101b89190810190612847565b610810565b6040516101ca9190612c22565b60405180910390f35b3480156101df57600080fd5b506101fa60048036036101f59190810190612847565b610830565b6040516102079190612c22565b60405180910390f35b34801561021c57600080fd5b5061023760048036036102329190810190612847565b610901565b6040516102449190612c22565b60405180910390f35b34801561025957600080fd5b50610274600480360361026f9190810190612847565b610921565b6040516102819190612b86565b60405180910390f35b34801561029657600080fd5b5061029f6109c2565b6040516102ac9190612b34565b60405180910390f35b3480156102c157600080fd5b506102dc60048036036102d791908101906126f3565b6109e8565b6040516102e99190612be5565b60405180910390f35b3480156102fe57600080fd5b5061031960048036036103149190810190612847565b610aa8565b6040516103269190612c22565b60405180910390f35b34801561033b57600080fd5b5061035660048036036103519190810190612847565b610ac8565b6040516103639190612bca565b60405180910390f35b34801561037857600080fd5b50610393600480360361038e9190810190612847565b610b51565b6040516103a09190612ba8565b60405180910390f35b3480156103b557600080fd5b506103d060048036036103cb9190810190612929565b610c50565b6040516103dd9190612be5565b60405180910390f35b3480156103f257600080fd5b5061040d60048036036104089190810190612847565b610d51565b60405161041a9190612c22565b60405180910390f35b34801561042f57600080fd5b5061044a600480360361044591908101906126ca565b610d71565b005b34801561045857600080fd5b50610473600480360361046e9190810190612847565b610e0d565b6040516104809190612c00565b60405180910390f35b34801561049557600080fd5b506104b060048036036104ab9190810190612847565b610ec5565b6040516104bd9190612be5565b60405180910390f35b3480156104d257600080fd5b506104ed60048036036104e891908101906126ca565b610ee4565b6040516104fa9190612be5565b60405180910390f35b34801561050f57600080fd5b5061052a60048036036105259190810190612847565b610fa7565b6040516105379190612be5565b60405180910390f35b34801561054c57600080fd5b5061056760048036036105629190810190612847565b611170565b6040516105749190612b34565b60405180910390f35b34801561058957600080fd5b506105a4600480360361059f9190810190612899565b6111b0565b6040516105b19190612be5565b60405180910390f35b3480156105c657600080fd5b506105e160048036036105dc9190810190612770565b61158c565b6040516105ee9190612be5565b60405180910390f35b34801561060357600080fd5b5061061e600480360361061991908101906128d5565b6118cd565b60405161062b9190612be5565b60405180910390f35b34801561064057600080fd5b5061065b600480360361065691908101906126ca565b611af6565b6040516106689190612ba8565b60405180910390f35b34801561067d57600080fd5b5061069860048036036106939190810190612847565b611c1e565b6040516106a59190612c00565b60405180910390f35b3480156106ba57600080fd5b506106d560048036036106d09190810190612847565b611cd6565b6040516106e29190612ba8565b60405180910390f35b3480156106f757600080fd5b50610700611dd5565b60405161070d9190612c22565b60405180910390f35b34801561072257600080fd5b5061073d60048036036107389190810190612847565b611ddf565b60405161074a9190612be5565b60405180910390f35b606080600260008481526020019081526020016000206002018054600181600116156101000203166002900480601f0160208091040260200160405190810160405280929190818152602001828054600181600116156101000203166002900480156108005780601f106107d557610100808354040283529160200191610800565b820191906000526020600020905b8154815290600101906020018083116107e357829003601f168201915b5050505050905080915050919050565b600060026000838152602001908152602001600020600801549050919050565b60008060009054906101000a900473ffffffffffffffffffffffffffffffffffffffff1673ffffffffffffffffffffffffffffffffffffffff166356bdaf3a836040518263ffffffff167c01000000000000000000000000000000000000000000000000000000000281526004016108a89190612c22565b602060405180830381600087803b1580156108c257600080fd5b505af11580156108d6573d6000803e3d6000fd5b505050506040513d601f19601f820116820180604052506108fa9190810190612870565b9050919050565b600060026000838152602001908152602001600020600901549050919050565b6060600660008381526020019081526020016000208054806020026020016040519081016040528092919081815260200182805480156109b657602002820191906000526020600020905b8160009054906101000a900473ffffffffffffffffffffffffffffffffffffffff1673ffffffffffffffffffffffffffffffffffffffff168152602001906001019080831161096c575b50505050509050919050565b600160009054906101000a900473ffffffffffffffffffffffffffffffffffffffff1681565b6000600160009054906101000a900473ffffffffffffffffffffffffffffffffffffffff1673ffffffffffffffffffffffffffffffffffffffff163373ffffffffffffffffffffffffffffffffffffffff161415610a9d5781600560008573ffffffffffffffffffffffffffffffffffffffff1673ffffffffffffffffffffffffffffffffffffffff1681526020019081526020016000209080519060200190610a939291906122c8565b5060019050610aa2565b600090505b92915050565b600060026000838152602001908152602001600020600701549050919050565b610ad0612328565b60806040519081016040528060026000858152602001908152602001600020600b0154815260200160026000858152602001908152602001600020600a0154815260200160026000858152602001908152602001600020600d0154815260200160026000858152602001908152602001600020600c01548152509050919050565b606060026000838152602001908152602001600020600301805480602002602001604051908101604052809291908181526020016000905b82821015610c45578382906000526020600020018054600181600116156101000203166002900480601f016020809104026020016040519081016040528092919081815260200182805460018160011615610100020316600290048015610c315780601f10610c0657610100808354040283529160200191610c31565b820191906000526020600020905b815481529060010190602001808311610c1457829003601f168201915b505050505081526020019060010190610b89565b505050509050919050565b600060095484101515610c5f57fe5b600083118015610c705750600a8311155b1515610c7857fe5b6008600085815260200190815260200160002060003373ffffffffffffffffffffffffffffffffffffffff1673ffffffffffffffffffffffffffffffffffffffff16815260200190815260200160002060009054906101000a900460ff16151515610cdf57fe5b6001821015610cf15760009050610d4a565b610cfb84836121b2565b508260026000868152602001908152602001600020600b0160008282540192505081905550600160026000868152602001908152602001600020600a0160008282540192505081905550600190505b9392505050565b600060026000838152602001908152602001600020600e01549050919050565b600160009054906101000a900473ffffffffffffffffffffffffffffffffffffffff1673ffffffffffffffffffffffffffffffffffffffff163373ffffffffffffffffffffffffffffffffffffffff16141515610dca57fe5b806000806101000a81548173ffffffffffffffffffffffffffffffffffffffff021916908373ffffffffffffffffffffffffffffffffffffffff16021790555050565b6060600260008381526020019081526020016000206001018054600181600116156101000203166002900480601f016020809104026020016040519081016040528092919081815260200182805460018160011615610100020316600290048015610eb95780601f10610e8e57610100808354040283529160200191610eb9565b820191906000526020600020905b815481529060010190602001808311610e9c57829003601f168201915b50505050509050919050565b6000610ecf611dd5565b82108015610edd5750600082115b9050919050565b6000600160009054906101000a900473ffffffffffffffffffffffffffffffffffffffff1673ffffffffffffffffffffffffffffffffffffffff163373ffffffffffffffffffffffffffffffffffffffff161415610f9d576001600360008473ffffffffffffffffffffffffffffffffffffffff1673ffffffffffffffffffffffffffffffffffffffff16815260200190815260200160002060006101000a81548160ff02191690831515021790555060019050610fa2565b600090505b919050565b600060046002600084815260200190815260200160002060090154141515610fce57600080fd5b60008060009054906101000a900473ffffffffffffffffffffffffffffffffffffffff1673ffffffffffffffffffffffffffffffffffffffff16638282469d84336040518363ffffffff167c0100000000000000000000000000000000000000000000000000000000028152600401611048929190612c3d565b602060405180830381600087803b15801561106257600080fd5b505af1158015611076573d6000803e3d6000fd5b505050506040513d601f19601f8201168201806040525061109a9190810190612870565b90506000809054906101000a900473ffffffffffffffffffffffffffffffffffffffff1673ffffffffffffffffffffffffffffffffffffffff16630356613b8433846040518463ffffffff167c010000000000000000000000000000000000000000000000000000000002815260040161111693929190612c66565b602060405180830381600087803b15801561113057600080fd5b505af1158015611144573d6000803e3d6000fd5b505050506040513d601f19601f820116820180604052506111689190810190612747565b915050919050565b60006002600083815260200190815260200160002060050160009054906101000a900473ffffffffffffffffffffffffffffffffffffffff169050919050565b6000600360003373ffffffffffffffffffffffffffffffffffffffff1673ffffffffffffffffffffffffffffffffffffffff16815260200190815260200160002060009054906101000a900460ff16151561120757fe5b600015156007600085815260200190815260200160002060003373ffffffffffffffffffffffffffffffffffffffff1673ffffffffffffffffffffffffffffffffffffffff16815260200190815260200160002060009054906101000a900460ff16151514151561127457fe5b6000600660008581526020019081526020016000209050600080905060008090505b82805490508110156113245782818154811015156112b057fe5b9060005260206000200160009054906101000a900473ffffffffffffffffffffffffffffffffffffffff1673ffffffffffffffffffffffffffffffffffffffff163373ffffffffffffffffffffffffffffffffffffffff1614156113175760019150611324565b8080600101915050611296565b50801561158157600160026000878152602001908152602001600020600c0160008282540192505081905550831561137c57600160026000878152602001908152602001600020600d01600082825401925050819055505b600a60026000878152602001908152602001600020600d01541015806113db5750600a60026000878152602001908152602001600020600d01541080156113da575060045460026000878152602001908152602001600020600c0154145b5b1561158057600a60026000878152602001908152602001600020600d0154101515611421576003600260008781526020019081526020016000206009018190555061143e565b600560026000878152602001908152602001600020600901819055505b600060045461144c87610830565b81151561145557fe5b04905060008090505b838054905081101561157d576000809054906101000a900473ffffffffffffffffffffffffffffffffffffffff1673ffffffffffffffffffffffffffffffffffffffff16630356613b8886848154811015156114b657fe5b9060005260206000200160009054906101000a900473ffffffffffffffffffffffffffffffffffffffff16856040518463ffffffff167c010000000000000000000000000000000000000000000000000000000002815260040161151c93929190612c9d565b602060405180830381600087803b15801561153657600080fd5b505af115801561154a573d6000803e3d6000fd5b505050506040513d601f19601f8201168201806040525061156e9190810190612747565b9250808060010191505061145e565b50505b5b809250505092915050565b60008082148061161f57506002600083815260200190815260200160002060050160009054906101000a900473ffffffffffffffffffffffffffffffffffffffff1673ffffffffffffffffffffffffffffffffffffffff163373ffffffffffffffffffffffffffffffffffffffff1614801561161e575060036002600084815260200190815260200160002060090154105b5b156118bf576101e0604051908101604052806009548152602001868152602001878152602001858152602001600060405190808252806020026020018201604052801561168057816020015b606081526020019060019003908161166b5790505b5081526020013373ffffffffffffffffffffffffffffffffffffffff1681526020018481526020018381526020016000815260200160008152602001600081526020016000815260200160008152602001600081526020014281525060026000600954815260200190815260200160002060008201518160000155602082015181600101908051906020019061171792919061234b565b50604082015181600201908051906020019061173492919061234b565b5060608201518160030190805190602001906117519291906123cb565b50608082015181600401908051906020019061176e9291906123cb565b5060a08201518160050160006101000a81548173ffffffffffffffffffffffffffffffffffffffff021916908373ffffffffffffffffffffffffffffffffffffffff16021790555060c08201518160060190805190602001906117d292919061234b565b5060e082015181600701556101008201518160080155610120820151816009015561014082015181600a015561016082015181600b015561018082015181600c01556101a082015181600d01556101c082015181600e01559050506000821415156118a4576009546002600084815260200190815260200160002060080181905550600260008381526020019081526020016000206009015460026000600954815260200190815260200160002060090181905550600460026000848152602001908152602001600020600901819055505b600960008154809291906001019190505550600190506118c4565b600090505b95945050505050565b6000600a82511115156118dc57fe5b600360026000858152602001908152602001600020600901541015611aeb576002806000858152602001908152602001600020600901541415611a8f576060600660008581526020019081526020016000208054806020026020016040519081016040528092919081815260200182805480156119ae57602002820191906000526020600020905b8160009054906101000a900473ffffffffffffffffffffffffffffffffffffffff1673ffffffffffffffffffffffffffffffffffffffff1681526020019060010190808311611964575b50505050509050600080905060008090505b8251811015611a2a5782818151811015156119d757fe5b9060200190602002015173ffffffffffffffffffffffffffffffffffffffff163373ffffffffffffffffffffffffffffffffffffffff161415611a1d5760019150611a2a565b80806001019150506119c0565b508015611a855760026000868152602001908152602001600020600401849080600181540180825580915050906001820390600052602060002001600090919290919091509080519060200190611a8292919061242b565b50505b8092505050611af0565b60026000848152602001908152602001600020600401829080600181540180825580915050906001820390600052602060002001600090919290919091509080519060200190611ae092919061242b565b505060019050611af0565b600090505b92915050565b6060600560008373ffffffffffffffffffffffffffffffffffffffff1673ffffffffffffffffffffffffffffffffffffffff168152602001908152602001600020805480602002602001604051908101604052809291908181526020016000905b82821015611c13578382906000526020600020018054600181600116156101000203166002900480601f016020809104026020016040519081016040528092919081815260200182805460018160011615610100020316600290048015611bff5780601f10611bd457610100808354040283529160200191611bff565b820191906000526020600020905b815481529060010190602001808311611be257829003601f168201915b505050505081526020019060010190611b57565b505050509050919050565b6060600260008381526020019081526020016000206006018054600181600116156101000203166002900480601f016020809104026020016040519081016040528092919081815260200182805460018160011615610100020316600290048015611cca5780601f10611c9f57610100808354040283529160200191611cca565b820191906000526020600020905b815481529060010190602001808311611cad57829003601f168201915b50505050509050919050565b606060026000838152602001908152602001600020600401805480602002602001604051908101604052809291908181526020016000905b82821015611dca578382906000526020600020018054600181600116156101000203166002900480601f016020809104026020016040519081016040528092919081815260200182805460018160011615610100020316600290048015611db65780601f10611d8b57610100808354040283529160200191611db6565b820191906000526020600020905b815481529060010190602001808311611d9957829003601f168201915b505050505081526020019060010190611d0e565b505050509050919050565b6000600954905090565b600060095482101515611dee57fe5b60006002600084815260200190815260200160002060090154141515611e1057fe5b6004546006600084815260200190815260200160002080549050101515611e3357fe5b600360003373ffffffffffffffffffffffffffffffffffffffff1673ffffffffffffffffffffffffffffffffffffffff16815260200190815260200160002060009054906101000a900460ff161515611e8857fe5b6060600560003373ffffffffffffffffffffffffffffffffffffffff1673ffffffffffffffffffffffffffffffffffffffff168152602001908152602001600020805480602002602001604051908101604052809291908181526020016000905b82821015611fa5578382906000526020600020018054600181600116156101000203166002900480601f016020809104026020016040519081016040528092919081815260200182805460018160011615610100020316600290048015611f915780601f10611f6657610100808354040283529160200191611f91565b820191906000526020600020905b815481529060010190602001808311611f7457829003601f168201915b505050505081526020019060010190611ee9565b505050509050606060026000858152602001908152602001600020600301805480602002602001604051908101604052809291908181526020016000905b8282101561209f578382906000526020600020018054600181600116156101000203166002900480601f01602080910402602001604051908101604052809291908181526020018280546001816001161561010002031660029004801561208b5780601f106120605761010080835404028352916020019161208b565b820191906000526020600020905b81548152906001019060200180831161206e57829003601f168201915b505050505081526020019060010190611fe3565b50505050905060008090505b82518110156121a55760008090505b82518110156121975760011561218a57600660008781526020019081526020016000203390806001815401808255809150509060018203906000526020600020016000909192909190916101000a81548173ffffffffffffffffffffffffffffffffffffffff021916908373ffffffffffffffffffffffffffffffffffffffff160217905550506004546006600088815260200190815260200160002080549050141561217d576002806000888152602001908152602001600020600901819055505b60019450505050506121ad565b81806001019250506120ba565b5080806001019150506120ab565b506000925050505b919050565b60006121bd83610ec5565b15156121c557fe5b600060026000858152602001908152602001600020600901541415156121e757fe5b600182101515156121f457fe5b6000809054906101000a900473ffffffffffffffffffffffffffffffffffffffff1673ffffffffffffffffffffffffffffffffffffffff16630cff8e8f3385856040518463ffffffff167c010000000000000000000000000000000000000000000000000000000002815260040161226e93929190612b4f565b602060405180830381600087803b15801561228857600080fd5b505af115801561229c573d6000803e3d6000fd5b505050506040513d601f19601f820116820180604052506122c09190810190612747565b905092915050565b828054828255906000526020600020908101928215612317579160200282015b8281111561231657825182908051906020019061230692919061234b565b50916020019190600101906122e8565b5b50905061232491906124ab565b5090565b608060405190810160405280600490602082028038833980820191505090505090565b828054600181600116156101000203166002900490600052602060002090601f016020900481019282601f1061238c57805160ff19168380011785556123ba565b828001600101855582156123ba579182015b828111156123b957825182559160200191906001019061239e565b5b5090506123c791906124d7565b5090565b82805482825590600052602060002090810192821561241a579160200282015b8281111561241957825182908051906020019061240992919061234b565b50916020019190600101906123eb565b5b50905061242791906124ab565b5090565b828054600181600116156101000203166002900490600052602060002090601f016020900481019282601f1061246c57805160ff191683800117855561249a565b8280016001018555821561249a579182015b8281111561249957825182559160200191906001019061247e565b5b5090506124a791906124d7565b5090565b6124d491905b808211156124d057600081816124c791906124fc565b506001016124b1565b5090565b90565b6124f991905b808211156124f55760008160009055506001016124dd565b5090565b90565b50805460018160011615610100020316600290046000825580601f106125225750612541565b601f01602090049060005260206000209081019061254091906124d7565b5b50565b60006125508235612e4b565b905092915050565b600082601f830112151561256b57600080fd5b813561257e61257982612d01565b612cd4565b9150818183526020840193506020810190508360005b838110156125c457813586016125aa88826125f6565b845260208401935060208301925050600181019050612594565b5050505092915050565b60006125da8235612e5d565b905092915050565b60006125ee8251612e5d565b905092915050565b600082601f830112151561260957600080fd5b813561261c61261782612d29565b612cd4565b9150808252602083016020830185838301111561263857600080fd5b612643838284612ea9565b50505092915050565b600082601f830112151561265f57600080fd5b813561267261266d82612d55565b612cd4565b9150808252602083016020830185838301111561268e57600080fd5b612699838284612ea9565b50505092915050565b60006126ae8235612e69565b905092915050565b60006126c28251612e69565b905092915050565b6000602082840312156126dc57600080fd5b60006126ea84828501612544565b91505092915050565b6000806040838503121561270657600080fd5b600061271485828601612544565b925050602083013567ffffffffffffffff81111561273157600080fd5b61273d85828601612558565b9150509250929050565b60006020828403121561275957600080fd5b6000612767848285016125e2565b91505092915050565b600080600080600060a0868803121561278857600080fd5b600086013567ffffffffffffffff8111156127a257600080fd5b6127ae8882890161264c565b955050602086013567ffffffffffffffff8111156127cb57600080fd5b6127d78882890161264c565b945050604086013567ffffffffffffffff8111156127f457600080fd5b61280088828901612558565b935050606086013567ffffffffffffffff81111561281d57600080fd5b6128298882890161264c565b925050608061283a888289016126a2565b9150509295509295909350565b60006020828403121561285957600080fd5b6000612867848285016126a2565b91505092915050565b60006020828403121561288257600080fd5b6000612890848285016126b6565b91505092915050565b600080604083850312156128ac57600080fd5b60006128ba858286016126a2565b92505060206128cb858286016125ce565b9150509250929050565b600080604083850312156128e857600080fd5b60006128f6858286016126a2565b925050602083013567ffffffffffffffff81111561291357600080fd5b61291f8582860161264c565b9150509250929050565b60008060006060848603121561293e57600080fd5b600061294c868287016126a2565b935050602061295d868287016126a2565b925050604061296e868287016126a2565b9150509250925092565b61298181612e73565b82525050565b61299081612e03565b82525050565b60006129a182612da5565b8084526020840193506129b383612d81565b60005b828110156129e5576129c9868351612987565b6129d282612ddc565b91506020860195506001810190506129b6565b50849250505092915050565b60006129fc82612db0565b80845260208401935083602082028501612a1585612d8e565b60005b84811015612a4e578383038852612a30838351612aef565b9250612a3b82612de9565b9150602088019750600181019050612a18565b508196508694505050505092915050565b612a6881612dbb565b612a7182612d9b565b60005b82811015612aa357612a87858351612b25565b612a9082612df6565b9150602085019450600181019050612a74565b5050505050565b612ab381612e15565b82525050565b6000612ac482612dd1565b808452612ad8816020860160208601612eb8565b612ae181612eeb565b602085010191505092915050565b6000612afa82612dc6565b808452612b0e816020860160208601612eb8565b612b1781612eeb565b602085010191505092915050565b612b2e81612e41565b82525050565b6000602082019050612b496000830184612987565b92915050565b6000606082019050612b646000830186612978565b612b716020830185612b25565b612b7e6040830184612b25565b949350505050565b60006020820190508181036000830152612ba08184612996565b905092915050565b60006020820190508181036000830152612bc281846129f1565b905092915050565b6000608082019050612bdf6000830184612a5f565b92915050565b6000602082019050612bfa6000830184612aaa565b92915050565b60006020820190508181036000830152612c1a8184612ab9565b905092915050565b6000602082019050612c376000830184612b25565b92915050565b6000604082019050612c526000830185612b25565b612c5f6020830184612978565b9392505050565b6000606082019050612c7b6000830186612b25565b612c886020830185612978565b612c956040830184612b25565b949350505050565b6000606082019050612cb26000830186612b25565b612cbf6020830185612987565b612ccc6040830184612b25565b949350505050565b6000604051905081810181811067ffffffffffffffff82111715612cf757600080fd5b8060405250919050565b600067ffffffffffffffff821115612d1857600080fd5b602082029050602081019050919050565b600067ffffffffffffffff821115612d4057600080fd5b601f19601f8301169050602081019050919050565b600067ffffffffffffffff821115612d6c57600080fd5b601f19601f8301169050602081019050919050565b6000602082019050919050565b6000602082019050919050565b6000819050919050565b600081519050919050565b600081519050919050565b600060049050919050565b600081519050919050565b600081519050919050565b6000602082019050919050565b6000602082019050919050565b6000602082019050919050565b6000612e0e82612e21565b9050919050565b60008115159050919050565b600073ffffffffffffffffffffffffffffffffffffffff82169050919050565b6000819050919050565b6000612e5682612e21565b9050919050565b60008115159050919050565b6000819050919050565b6000612e7e82612e85565b9050919050565b6000612e9082612e97565b9050919050565b6000612ea282612e21565b9050919050565b82818337600083830152505050565b60005b83811015612ed6578082015181840152602081019050612ebb565b83811115612ee5576000848401525b50505050565b6000601f19601f830116905091905056fea265627a7a7230582058f27f81a567e17217dd56fb3e09ac64eb13873f13befe0b20304919979545d86c6578706572696d656e74616cf50037",
  "source": "pragma solidity 0.5.0;\npragma experimental ABIEncoderV2;\nimport \"./CAJCoin.sol\";\n\ncontract Review {\n\n    //token contract\n    CAJCoin tokenContract;\n\n    address public devAddress;\n\n    //Paper struct\n    struct Paper {\n        //id of the paper\n        uint256 id;\n        //file url of paper\n        string location;\n        //title of paper\n        string title;\n        //paper tags\n        string[] tags;\n        //comments\n        string[] comments;\n        // addr uploader of paper\n        address author;\n        //name of author & creds\n        string authorNameCreds;\n        //id of previous paper if this is a revision\n        uint256 prevId;\n        //id of nect paper if this is an old copy\n        uint256 nextId;\n        //state of the paper,\n        //(0 unreviewed, 1 ready for review, 2 under review (only professionals can review), 3 published, 4 old version of a different paper, 5 for dead)\n        uint state;\n        //vote related stuff\n        uint256 userVotes;\n        uint256 userScore;\n        uint reviewerVotes;\n        uint reviewerScore;\n        //date\n        uint256 date;\n\n    }\n\n    // paper ids to paper objects\n    mapping(uint256 => Paper) private papers;\n\n    //mapping of addresses to booleans representing wether an address is \"verified\"\n    mapping(address => bool) private verifiedUsers;\n\n    //constant; max number of professional reviewers until paper is pushed to being reviewed and published\n    uint256 NUMBER_OF_REVIEWERS = 10;\n\n    //mapping of an address to the topics the verified user is allowed to review\n    mapping(address => string[]) allowedReviewerTopics;\n\n    //mapping of reviewers currently reviewing a paper\n    mapping(uint256 => address[]) private reviewersForPaper;\n\n    //track if reviewers and users have alreayd voted on a paper\n    mapping(uint256 => mapping(address => bool)) private reviewerHasVoted;\n    mapping(uint256 => mapping(address => bool)) private userHasVoted;\n\n    //next id to be assigned\n    uint256 private currentId;\n\n\n    // constructor\n    constructor() public {//(uint threshold) public {\n        // 0 is used as a null value for ids\n        currentId = 1;\n        devAddress = msg.sender;\n        verifiedUsers[devAddress] = true;\n        // impliment some sort of limit on staking tokens\n        //tokenContract = CAJCoin(coinAddr);\n    }\n\n    //getter for current ID; actually the next id to be assigned\n    function getCurrentID() public returns (uint256 id) {\n        return currentId;\n    }\n\n    //check if a paper exists\n    function paperExists(uint256 _id) public returns (bool exists) {\n        return _id < getCurrentID() && _id > 0;\n    }\n\n    // add a new paper with the specified fields\n    function addPaper(string memory _title, string memory _location, string[] memory _tags, string memory _authorNameCreds, uint256 _prevID) public returns (bool success) {\n        if (_prevID == 0 ||\n            (msg.sender == papers[_prevID].author) && papers[_prevID].state < 3) {\n                papers[currentId] = Paper(currentId, _location, _title, _tags, new string[](0), msg.sender, _authorNameCreds, _prevID, 0, 0, 0, 0, 0, 0, block.timestamp);\n                if (_prevID != 0) {\n                    papers[_prevID].nextId = currentId;\n                    papers[currentId].state = papers[_prevID].state;\n                    papers[_prevID].state = 4;\n                }\n                currentId++;\n                return true;\n        }\n        return false;\n    }\n\n    //getter methods for papers\n    function getPaperTitle(uint256 _id) public returns (string memory) {\n        string memory title = papers[_id].title;\n        return title;\n    }\n\n    function getPaperLocation(uint256 _id) public returns (string memory location) {\n        location = papers[_id].location;\n    }\n\n    function getPaperTags(uint256 _id) public returns (string[] memory tags) {\n        tags = papers[_id].tags;\n    }\n\n    function getPaperComments(uint256 _id) public returns (string[] memory comments) {\n        comments = papers[_id].comments;\n    }\n\n    function getPaperAuthor(uint256 _id) public returns (address author) {\n        author = papers[_id].author;\n    }\n\n    function getPaperAuthorName(uint256 _id) public returns (string memory author) {\n        author = papers[_id].authorNameCreds;\n    }\n\n    function getPaperPrevId(uint256 _id) public returns (uint256 prevId) {\n        prevId = papers[_id].prevId;\n    }\n\n    function getPaperNextId(uint256 _id) public returns (uint256 nextId) {\n        nextId = papers[_id].nextId;\n    }\n\n    function getPaperState(uint256 _id) public returns (uint256 state) {\n        state = papers[_id].state;\n    }\n\n    function getPaperVotes(uint256 _id) public returns (uint256[4] memory votes) {\n        votes = [papers[_id].userScore, papers[_id].userVotes, papers[_id].reviewerScore, papers[_id].reviewerVotes];\n    }\n\n    function getPaperDate(uint256 _id) public returns (uint256 date) {\n        date = papers[_id].date;\n    }\n\n    //user signs up to review a paper\n    function addReviewerForPaper(uint256 _id) public returns (bool success) {\n        //first check if the paper can take more reviewers\n        assert(_id < currentId);\n        assert(papers[_id].state == 0);\n        assert(reviewersForPaper[_id].length < NUMBER_OF_REVIEWERS);\n        //check if user is a reviewer\n        assert(verifiedUsers[msg.sender]);\n        //check for tags, and if they match, add the user and return true\n        //if this would reach the limit, change the state of the paper as well\n        string[] memory topics = allowedReviewerTopics[msg.sender];\n        string[] memory tags = papers[_id].tags;\n        for (uint i = 0; i < topics.length; i++) {\n            for (uint j = 0; j < tags.length; i++) {\n                if (true) {\n                    reviewersForPaper[_id].push(msg.sender);\n                    if (reviewersForPaper[_id].length == NUMBER_OF_REVIEWERS) {\n                        papers[_id].state = 2; //now, only professionals can review this paper\n                    }\n                    return true;\n                }\n            }\n        }\n        return false;\n    }\n\n    //comment on papers\n    function addComment(uint256 _id, string memory _comment) public returns (bool success) {\n        assert(bytes(_comment).length > 10);\n        if (papers[_id].state < 3) {\n            //if the paper is under review, only reviewers can comment\n            if(papers[_id].state == 2) {\n                address[] memory reviewers = reviewersForPaper[_id];\n                bool x = false;\n                for (uint i = 0; i < reviewers.length; i++) {\n                    if (msg.sender == reviewers[i]) {\n                        x = true;\n                        break;\n                    }\n                }\n\n                if (x) {\n                    papers[_id].comments.push(_comment);\n                }\n                return x;\n            } else {\n                papers[_id].comments.push(_comment);\n                return true;\n            }\n        }\n        return false;\n    }\n\n    //get reviewers for a paper\n    function getReviewersForPaper(uint256 _id) public returns (address[] memory reviewers) {\n        reviewers = reviewersForPaper[_id];\n    }\n\n    //get topics for reviewer\n    function getTopicsForReviewer(address _reviewer) public returns (string[] memory topics) {\n        topics = allowedReviewerTopics[_reviewer];\n    }\n\n    //verify a user, only the dev account can do this because we onboard them\n    function addVerifiedUser(address _user) public returns (bool success) {\n        if (msg.sender == devAddress) {\n            verifiedUsers[_user] = true;\n            return true;\n        }\n        return false;\n    }\n\n    // reset the topics for a reviewer, only dev can do this\n    function addTopicsForReviewer(address _user, string[] memory _topics) public returns (bool success) {\n        if (msg.sender == devAddress) {\n            allowedReviewerTopics[_user] = _topics;\n            return true;\n        }\n        return false;\n    }\n\n    //reviewer votes on a paper\n    function reviewerVoteOnPaper(uint256 _id, bool vote) public returns (bool success) {\n        assert(verifiedUsers[msg.sender]);\n        assert(reviewerHasVoted[_id][msg.sender] == false);\n        address[] storage reviewers = reviewersForPaper[_id];\n        bool x = false;\n        for (uint i = 0; i < reviewers.length; i++) {\n            if (msg.sender == reviewers[i]) {\n                x = true;\n                break;\n            }\n        }\n\n        if (x) {\n            papers[_id].reviewerVotes += 1;\n            if (vote) {\n                papers[_id].reviewerScore += 1;\n            }\n\n            //check if paper is to be published or killed yet and distribute tokens\n            if(papers[_id].reviewerScore >= 10 ||\n                (papers[_id].reviewerScore < 10 && papers[_id].reviewerVotes == NUMBER_OF_REVIEWERS)) {\n                if (papers[_id].reviewerScore >= 10) {\n                    //publish\n                    papers[_id].state = 3;\n                } else {\n                    //kill\n                    papers[_id].state = 5;\n                }\n                //distribute tokens\n                uint256 amountToDistriute = getNumTokens(_id) / NUMBER_OF_REVIEWERS;\n                for (uint i = 0; i < reviewers.length; i++) {\n                    x = tokenContract.collectTokens(_id, reviewers[i], amountToDistriute);\n                }\n            }\n        }\n        return x;\n    }\n\n    // vote function updates given paper (passed in id) with the vote associated with the msg.sender\n    // method guards against double voting and staying within voting range [0, 10]\n    function userVoteOnPaper(uint256 _id, uint256 _vote, uint256 _amount) public returns (bool success) {\n        assert(_id < currentId);\n        assert(_vote > 0 && _vote <= 10);\n        assert(!userHasVoted[_id][msg.sender]);\n        if (_amount < 1) {\n            return false;\n        }\n        stakeTokens(_id, _amount);\n        papers[_id].userScore += _vote;\n        papers[_id].userVotes += 1;\n        return true;\n    }\n\n    // stake tokens onto an existing paper (staked token value contributes to review process)\n    function stakeTokens(uint256 _id, uint256 _amount) private returns (bool success) {\n        assert(paperExists(_id));\n        assert(papers[_id].state == 0);\n        assert(_amount >= 1);\n        success = tokenContract.stakeTokens(msg.sender, _id, _amount);\n\n    }\n\n    // revokes all of a user's tokens from an old revision of a paper\n    function revokeTokens(uint256 _id) public returns (bool success) {\n        require(papers[_id].state == 4); //old draft or unreviewed\n        uint256 amount = tokenContract.tokensStakedByUser(_id, msg.sender);\n        return tokenContract.collectTokens(_id, msg.sender, amount);\n    }\n\n    //get current number of tokens for a paper\n    function getNumTokens(uint256 _id) public returns (uint256) {\n        return tokenContract.paperBalance(_id);\n    }\n\n    function setContract(address addr) public {\n        assert(msg.sender == devAddress);\n        tokenContract = CAJCoin(addr);\n    }\n\n}\n",
  "sourcePath": "/Users/olivialee/Desktop/CAJ/contracts/Review.sol",
  "compiler": {
    "name": "solc",
    "version": "0.5.0+commit.1d4f565a.Emscripten.clang"
  },
  "schemaVersion": "3.0.9",
  "updatedAt": "2019-05-04T06:46:27.196Z",
  "devdoc": {
    "methods": {}
  },
  "userdoc": {
    "methods": {}
  }
}