{
  "contractName": "Review",
  "abi": [
    {
      "constant": true,
      "inputs": [],
      "name": "devAddress",
      "outputs": [
        {
          "name": "",
          "type": "address"
        }
      ],
      "payable": false,
      "stateMutability": "view",
      "type": "function"
    },
    {
      "inputs": [],
      "payable": false,
      "stateMutability": "nonpayable",
      "type": "constructor"
    },
    {
      "constant": false,
      "inputs": [],
      "name": "getCurrentID",
      "outputs": [
        {
          "name": "id",
          "type": "uint256"
        }
      ],
      "payable": false,
      "stateMutability": "nonpayable",
      "type": "function"
    },
    {
      "constant": false,
      "inputs": [
        {
          "name": "_id",
          "type": "uint256"
        }
      ],
      "name": "paperExists",
      "outputs": [
        {
          "name": "exists",
          "type": "bool"
        }
      ],
      "payable": false,
      "stateMutability": "nonpayable",
      "type": "function"
    },
    {
      "constant": false,
      "inputs": [
        {
          "name": "_title",
          "type": "string"
        },
        {
          "name": "_location",
          "type": "string"
        },
        {
          "name": "_tags",
          "type": "string[]"
        },
        {
          "name": "_authorNameCreds",
          "type": "string"
        },
        {
          "name": "_prevID",
          "type": "uint256"
        }
      ],
      "name": "addPaper",
      "outputs": [
        {
          "name": "success",
          "type": "bool"
        }
      ],
      "payable": false,
      "stateMutability": "nonpayable",
      "type": "function"
    },
    {
      "constant": false,
      "inputs": [
        {
          "name": "_id",
          "type": "uint256"
        }
      ],
      "name": "getPaperTitle",
      "outputs": [
        {
          "name": "",
          "type": "string"
        }
      ],
      "payable": false,
      "stateMutability": "nonpayable",
      "type": "function"
    },
    {
      "constant": false,
      "inputs": [
        {
          "name": "_id",
          "type": "uint256"
        }
      ],
      "name": "getPaperLocation",
      "outputs": [
        {
          "name": "location",
          "type": "string"
        }
      ],
      "payable": false,
      "stateMutability": "nonpayable",
      "type": "function"
    },
    {
      "constant": false,
      "inputs": [
        {
          "name": "_id",
          "type": "uint256"
        }
      ],
      "name": "getPaperTags",
      "outputs": [
        {
          "name": "tags",
          "type": "string[]"
        }
      ],
      "payable": false,
      "stateMutability": "nonpayable",
      "type": "function"
    },
    {
      "constant": false,
      "inputs": [
        {
          "name": "_id",
          "type": "uint256"
        }
      ],
      "name": "getPaperComments",
      "outputs": [
        {
          "name": "comments",
          "type": "string[]"
        }
      ],
      "payable": false,
      "stateMutability": "nonpayable",
      "type": "function"
    },
    {
      "constant": false,
      "inputs": [
        {
          "name": "_id",
          "type": "uint256"
        }
      ],
      "name": "getPaperAuthor",
      "outputs": [
        {
          "name": "author",
          "type": "address"
        }
      ],
      "payable": false,
      "stateMutability": "nonpayable",
      "type": "function"
    },
    {
      "constant": false,
      "inputs": [
        {
          "name": "_id",
          "type": "uint256"
        }
      ],
      "name": "getPaperAuthorName",
      "outputs": [
        {
          "name": "author",
          "type": "string"
        }
      ],
      "payable": false,
      "stateMutability": "nonpayable",
      "type": "function"
    },
    {
      "constant": false,
      "inputs": [
        {
          "name": "_id",
          "type": "uint256"
        }
      ],
      "name": "getPaperPrevId",
      "outputs": [
        {
          "name": "prevId",
          "type": "uint256"
        }
      ],
      "payable": false,
      "stateMutability": "nonpayable",
      "type": "function"
    },
    {
      "constant": false,
      "inputs": [
        {
          "name": "_id",
          "type": "uint256"
        }
      ],
      "name": "getPaperNextId",
      "outputs": [
        {
          "name": "nextId",
          "type": "uint256"
        }
      ],
      "payable": false,
      "stateMutability": "nonpayable",
      "type": "function"
    },
    {
      "constant": false,
      "inputs": [
        {
          "name": "_id",
          "type": "uint256"
        }
      ],
      "name": "getPaperState",
      "outputs": [
        {
          "name": "state",
          "type": "uint256"
        }
      ],
      "payable": false,
      "stateMutability": "nonpayable",
      "type": "function"
    },
    {
      "constant": false,
      "inputs": [
        {
          "name": "_id",
          "type": "uint256"
        }
      ],
      "name": "getPaperVotes",
      "outputs": [
        {
          "name": "votes",
          "type": "uint256[4]"
        }
      ],
      "payable": false,
      "stateMutability": "nonpayable",
      "type": "function"
    },
    {
      "constant": false,
      "inputs": [
        {
          "name": "_id",
          "type": "uint256"
        }
      ],
      "name": "getPaperDate",
      "outputs": [
        {
          "name": "date",
          "type": "uint256"
        }
      ],
      "payable": false,
      "stateMutability": "nonpayable",
      "type": "function"
    },
    {
      "constant": false,
      "inputs": [
        {
          "name": "_id",
          "type": "uint256"
        }
      ],
      "name": "addReviewerForPaper",
      "outputs": [
        {
          "name": "success",
          "type": "bool"
        }
      ],
      "payable": false,
      "stateMutability": "nonpayable",
      "type": "function"
    },
    {
      "constant": false,
      "inputs": [
        {
          "name": "_id",
          "type": "uint256"
        },
        {
          "name": "_comment",
          "type": "string"
        }
      ],
      "name": "addComment",
      "outputs": [
        {
          "name": "success",
          "type": "bool"
        }
      ],
      "payable": false,
      "stateMutability": "nonpayable",
      "type": "function"
    },
    {
      "constant": false,
      "inputs": [
        {
          "name": "_id",
          "type": "uint256"
        }
      ],
      "name": "getReviewersForPaper",
      "outputs": [
        {
          "name": "reviewers",
          "type": "address[]"
        }
      ],
      "payable": false,
      "stateMutability": "nonpayable",
      "type": "function"
    },
    {
      "constant": false,
      "inputs": [
        {
          "name": "_reviewer",
          "type": "address"
        }
      ],
      "name": "getTopicsForReviewer",
      "outputs": [
        {
          "name": "topics",
          "type": "string[]"
        }
      ],
      "payable": false,
      "stateMutability": "nonpayable",
      "type": "function"
    },
    {
      "constant": false,
      "inputs": [
        {
          "name": "_user",
          "type": "address"
        }
      ],
      "name": "addVerifiedUser",
      "outputs": [
        {
          "name": "success",
          "type": "bool"
        }
      ],
      "payable": false,
      "stateMutability": "nonpayable",
      "type": "function"
    },
    {
      "constant": false,
      "inputs": [
        {
          "name": "_user",
          "type": "address"
        },
        {
          "name": "_topics",
          "type": "string[]"
        }
      ],
      "name": "addTopicsForReviewer",
      "outputs": [
        {
          "name": "success",
          "type": "bool"
        }
      ],
      "payable": false,
      "stateMutability": "nonpayable",
      "type": "function"
    },
    {
      "constant": false,
      "inputs": [
        {
          "name": "_id",
          "type": "uint256"
        },
        {
          "name": "vote",
          "type": "bool"
        }
      ],
      "name": "reviewerVoteOnPaper",
      "outputs": [
        {
          "name": "success",
          "type": "bool"
        }
      ],
      "payable": false,
      "stateMutability": "nonpayable",
      "type": "function"
    },
    {
      "constant": false,
      "inputs": [
        {
          "name": "_id",
          "type": "uint256"
        },
        {
          "name": "_vote",
          "type": "uint256"
        },
        {
          "name": "_amount",
          "type": "uint256"
        }
      ],
      "name": "userVoteOnPaper",
      "outputs": [
        {
          "name": "success",
          "type": "bool"
        }
      ],
      "payable": false,
      "stateMutability": "nonpayable",
      "type": "function"
    },
    {
      "constant": false,
      "inputs": [
        {
          "name": "_id",
          "type": "uint256"
        },
        {
          "name": "_amount",
          "type": "uint256"
        }
      ],
      "name": "stakeTokens",
      "outputs": [
        {
          "name": "success",
          "type": "bool"
        }
      ],
      "payable": false,
      "stateMutability": "nonpayable",
      "type": "function"
    },
    {
      "constant": false,
      "inputs": [
        {
          "name": "_id",
          "type": "uint256"
        }
      ],
      "name": "revokeTokens",
      "outputs": [
        {
          "name": "success",
          "type": "bool"
        }
      ],
      "payable": false,
      "stateMutability": "nonpayable",
      "type": "function"
    },
    {
      "constant": false,
      "inputs": [
        {
          "name": "_id",
          "type": "uint256"
        }
      ],
      "name": "getNumTokens",
      "outputs": [
        {
          "name": "",
          "type": "uint256"
        }
      ],
      "payable": false,
      "stateMutability": "nonpayable",
      "type": "function"
    },
    {
      "constant": false,
      "inputs": [
        {
          "name": "addr",
          "type": "address"
        }
      ],
      "name": "setContract",
      "outputs": [],
      "payable": false,
      "stateMutability": "nonpayable",
      "type": "function"
    }
  ],
  "bytecode": "0x6080604052600a60045534801561001557600080fd5b50600160098190555033600160006101000a81548173ffffffffffffffffffffffffffffffffffffffff021916908373ffffffffffffffffffffffffffffffffffffffff160217905550600160036000600160009054906101000a900473ffffffffffffffffffffffffffffffffffffffff1673ffffffffffffffffffffffffffffffffffffffff1673ffffffffffffffffffffffffffffffffffffffff16815260200190815260200160002060006101000a81548160ff021916908315150217905550612fba806100e86000396000f3fe60806040526004361061015f576000357c0100000000000000000000000000000000000000000000000000000000900463ffffffff1680630642e896146101645780630fcef437146101a15780632119249f146101de5780632ec3a85e1461021b57806332f566a3146102585780633ad10ef6146102955780633b7b6188146102c057806349e5124d146102fd578063532ca62b1461033a5780635cbdfd611461037757806364ce598d146103b4578063662e509f146103f15780637186008f1461042e57806375f890ab1461046b57806376698442146104945780637d644de6146104d157806388e3c5d61461050e5780638bff9c931461054b5780639b9c803d146105885780639ddd6049146105c5578063a23f2e2914610602578063aa7e56831461063f578063c651c66b1461067c578063d931e602146106b9578063dc39a441146106f6578063ef1e7df314610733578063f641ba4b1461075e575b600080fd5b34801561017057600080fd5b5061018b6004803603610186919081019061288f565b61079b565b6040516101989190612c84565b60405180910390f35b3480156101ad57600080fd5b506101c860048036036101c3919081019061288f565b610858565b6040516101d59190612ca6565b60405180910390f35b3480156101ea57600080fd5b506102056004803603610200919081019061288f565b610878565b6040516102129190612ca6565b60405180910390f35b34801561022757600080fd5b50610242600480360361023d919081019061288f565b610949565b60405161024f9190612ca6565b60405180910390f35b34801561026457600080fd5b5061027f600480360361027a919081019061288f565b610969565b60405161028c9190612c0a565b60405180910390f35b3480156102a157600080fd5b506102aa610a0a565b6040516102b79190612bb8565b60405180910390f35b3480156102cc57600080fd5b506102e760048036036102e29190810190612971565b610a30565b6040516102f49190612c69565b60405180910390f35b34801561030957600080fd5b50610324600480360361031f919081019061273b565b610b46565b6040516103319190612c69565b60405180910390f35b34801561034657600080fd5b50610361600480360361035c919081019061288f565b610c06565b60405161036e9190612ca6565b60405180910390f35b34801561038357600080fd5b5061039e6004803603610399919081019061288f565b610c26565b6040516103ab9190612c4e565b60405180910390f35b3480156103c057600080fd5b506103db60048036036103d6919081019061288f565b610caf565b6040516103e89190612c2c565b60405180910390f35b3480156103fd57600080fd5b50610418600480360361041391908101906129ad565b610dae565b6040516104259190612c69565b60405180910390f35b34801561043a57600080fd5b506104556004803603610450919081019061288f565b610eaf565b6040516104629190612ca6565b60405180910390f35b34801561047757600080fd5b50610492600480360361048d9190810190612712565b610ecf565b005b3480156104a057600080fd5b506104bb60048036036104b6919081019061288f565b610f6b565b6040516104c89190612c84565b60405180910390f35b3480156104dd57600080fd5b506104f860048036036104f3919081019061288f565b611023565b6040516105059190612c69565b60405180910390f35b34801561051a57600080fd5b5061053560048036036105309190810190612712565b611042565b6040516105429190612c69565b60405180910390f35b34801561055757600080fd5b50610572600480360361056d919081019061288f565b611105565b60405161057f9190612c69565b60405180910390f35b34801561059457600080fd5b506105af60048036036105aa919081019061288f565b6112ce565b6040516105bc9190612bb8565b60405180910390f35b3480156105d157600080fd5b506105ec60048036036105e791908101906128e1565b61130e565b6040516105f99190612c69565b60405180910390f35b34801561060e57600080fd5b50610629600480360361062491908101906127b8565b6116ea565b6040516106369190612c69565b60405180910390f35b34801561064b57600080fd5b506106666004803603610661919081019061291d565b611a2b565b6040516106739190612c69565b60405180910390f35b34801561068857600080fd5b506106a3600480360361069e9190810190612712565b611c54565b6040516106b09190612c2c565b60405180910390f35b3480156106c557600080fd5b506106e060048036036106db919081019061288f565b611d7c565b6040516106ed9190612c84565b60405180910390f35b34801561070257600080fd5b5061071d6004803603610718919081019061288f565b611e34565b60405161072a9190612c2c565b60405180910390f35b34801561073f57600080fd5b50610748611f33565b6040516107559190612ca6565b60405180910390f35b34801561076a57600080fd5b506107856004803603610780919081019061288f565b611f3d565b6040516107929190612c69565b60405180910390f35b606080600260008481526020019081526020016000206002018054600181600116156101000203166002900480601f0160208091040260200160405190810160405280929190818152602001828054600181600116156101000203166002900480156108485780601f1061081d57610100808354040283529160200191610848565b820191906000526020600020905b81548152906001019060200180831161082b57829003601f168201915b5050505050905080915050919050565b600060026000838152602001908152602001600020600801549050919050565b60008060009054906101000a900473ffffffffffffffffffffffffffffffffffffffff1673ffffffffffffffffffffffffffffffffffffffff166356bdaf3a836040518263ffffffff167c01000000000000000000000000000000000000000000000000000000000281526004016108f09190612ca6565b602060405180830381600087803b15801561090a57600080fd5b505af115801561091e573d6000803e3d6000fd5b505050506040513d601f19601f8201168201806040525061094291908101906128b8565b9050919050565b600060026000838152602001908152602001600020600901549050919050565b6060600660008381526020019081526020016000208054806020026020016040519081016040528092919081815260200182805480156109fe57602002820191906000526020600020905b8160009054906101000a900473ffffffffffffffffffffffffffffffffffffffff1673ffffffffffffffffffffffffffffffffffffffff16815260200190600101908083116109b4575b50505050509050919050565b600160009054906101000a900473ffffffffffffffffffffffffffffffffffffffff1681565b6000610a3b83611023565b1515610a4357fe5b60006002600085815260200190815260200160002060090154141515610a6557fe5b60018210151515610a7257fe5b6000809054906101000a900473ffffffffffffffffffffffffffffffffffffffff1673ffffffffffffffffffffffffffffffffffffffff16630cff8e8f3385856040518463ffffffff167c0100000000000000000000000000000000000000000000000000000000028152600401610aec93929190612bd3565b602060405180830381600087803b158015610b0657600080fd5b505af1158015610b1a573d6000803e3d6000fd5b505050506040513d601f19601f82011682018060405250610b3e919081019061278f565b905092915050565b6000600160009054906101000a900473ffffffffffffffffffffffffffffffffffffffff1673ffffffffffffffffffffffffffffffffffffffff163373ffffffffffffffffffffffffffffffffffffffff161415610bfb5781600560008573ffffffffffffffffffffffffffffffffffffffff1673ffffffffffffffffffffffffffffffffffffffff1681526020019081526020016000209080519060200190610bf1929190612310565b5060019050610c00565b600090505b92915050565b600060026000838152602001908152602001600020600701549050919050565b610c2e612370565b60806040519081016040528060026000858152602001908152602001600020600b0154815260200160026000858152602001908152602001600020600a0154815260200160026000858152602001908152602001600020600d0154815260200160026000858152602001908152602001600020600c01548152509050919050565b606060026000838152602001908152602001600020600301805480602002602001604051908101604052809291908181526020016000905b82821015610da3578382906000526020600020018054600181600116156101000203166002900480601f016020809104026020016040519081016040528092919081815260200182805460018160011615610100020316600290048015610d8f5780601f10610d6457610100808354040283529160200191610d8f565b820191906000526020600020905b815481529060010190602001808311610d7257829003601f168201915b505050505081526020019060010190610ce7565b505050509050919050565b600060095484101515610dbd57fe5b600083118015610dce5750600a8311155b1515610dd657fe5b6008600085815260200190815260200160002060003373ffffffffffffffffffffffffffffffffffffffff1673ffffffffffffffffffffffffffffffffffffffff16815260200190815260200160002060009054906101000a900460ff16151515610e3d57fe5b6001821015610e4f5760009050610ea8565b610e598483610a30565b508260026000868152602001908152602001600020600b0160008282540192505081905550600160026000868152602001908152602001600020600a0160008282540192505081905550600190505b9392505050565b600060026000838152602001908152602001600020600e01549050919050565b600160009054906101000a900473ffffffffffffffffffffffffffffffffffffffff1673ffffffffffffffffffffffffffffffffffffffff163373ffffffffffffffffffffffffffffffffffffffff16141515610f2857fe5b806000806101000a81548173ffffffffffffffffffffffffffffffffffffffff021916908373ffffffffffffffffffffffffffffffffffffffff16021790555050565b6060600260008381526020019081526020016000206001018054600181600116156101000203166002900480601f0160208091040260200160405190810160405280929190818152602001828054600181600116156101000203166002900480156110175780601f10610fec57610100808354040283529160200191611017565b820191906000526020600020905b815481529060010190602001808311610ffa57829003601f168201915b50505050509050919050565b600061102d611f33565b8210801561103b5750600082115b9050919050565b6000600160009054906101000a900473ffffffffffffffffffffffffffffffffffffffff1673ffffffffffffffffffffffffffffffffffffffff163373ffffffffffffffffffffffffffffffffffffffff1614156110fb576001600360008473ffffffffffffffffffffffffffffffffffffffff1673ffffffffffffffffffffffffffffffffffffffff16815260200190815260200160002060006101000a81548160ff02191690831515021790555060019050611100565b600090505b919050565b60006004600260008481526020019081526020016000206009015414151561112c57600080fd5b60008060009054906101000a900473ffffffffffffffffffffffffffffffffffffffff1673ffffffffffffffffffffffffffffffffffffffff16638282469d84336040518363ffffffff167c01000000000000000000000000000000000000000000000000000000000281526004016111a6929190612cc1565b602060405180830381600087803b1580156111c057600080fd5b505af11580156111d4573d6000803e3d6000fd5b505050506040513d601f19601f820116820180604052506111f891908101906128b8565b90506000809054906101000a900473ffffffffffffffffffffffffffffffffffffffff1673ffffffffffffffffffffffffffffffffffffffff16630356613b8433846040518463ffffffff167c010000000000000000000000000000000000000000000000000000000002815260040161127493929190612cea565b602060405180830381600087803b15801561128e57600080fd5b505af11580156112a2573d6000803e3d6000fd5b505050506040513d601f19601f820116820180604052506112c6919081019061278f565b915050919050565b60006002600083815260200190815260200160002060050160009054906101000a900473ffffffffffffffffffffffffffffffffffffffff169050919050565b6000600360003373ffffffffffffffffffffffffffffffffffffffff1673ffffffffffffffffffffffffffffffffffffffff16815260200190815260200160002060009054906101000a900460ff16151561136557fe5b600015156007600085815260200190815260200160002060003373ffffffffffffffffffffffffffffffffffffffff1673ffffffffffffffffffffffffffffffffffffffff16815260200190815260200160002060009054906101000a900460ff1615151415156113d257fe5b6000600660008581526020019081526020016000209050600080905060008090505b828054905081101561148257828181548110151561140e57fe5b9060005260206000200160009054906101000a900473ffffffffffffffffffffffffffffffffffffffff1673ffffffffffffffffffffffffffffffffffffffff163373ffffffffffffffffffffffffffffffffffffffff1614156114755760019150611482565b80806001019150506113f4565b5080156116df57600160026000878152602001908152602001600020600c016000828254019250508190555083156114da57600160026000878152602001908152602001600020600d01600082825401925050819055505b600a60026000878152602001908152602001600020600d01541015806115395750600a60026000878152602001908152602001600020600d0154108015611538575060045460026000878152602001908152602001600020600c0154145b5b156116de57600a60026000878152602001908152602001600020600d015410151561157f576003600260008781526020019081526020016000206009018190555061159c565b600560026000878152602001908152602001600020600901819055505b60006004546115aa87610878565b8115156115b357fe5b04905060008090505b83805490508110156116db576000809054906101000a900473ffffffffffffffffffffffffffffffffffffffff1673ffffffffffffffffffffffffffffffffffffffff16630356613b88868481548110151561161457fe5b9060005260206000200160009054906101000a900473ffffffffffffffffffffffffffffffffffffffff16856040518463ffffffff167c010000000000000000000000000000000000000000000000000000000002815260040161167a93929190612d21565b602060405180830381600087803b15801561169457600080fd5b505af11580156116a8573d6000803e3d6000fd5b505050506040513d601f19601f820116820180604052506116cc919081019061278f565b925080806001019150506115bc565b50505b5b809250505092915050565b60008082148061177d57506002600083815260200190815260200160002060050160009054906101000a900473ffffffffffffffffffffffffffffffffffffffff1673ffffffffffffffffffffffffffffffffffffffff163373ffffffffffffffffffffffffffffffffffffffff1614801561177c575060036002600084815260200190815260200160002060090154105b5b15611a1d576101e060405190810160405280600954815260200186815260200187815260200185815260200160006040519080825280602002602001820160405280156117de57816020015b60608152602001906001900390816117c95790505b5081526020013373ffffffffffffffffffffffffffffffffffffffff16815260200184815260200183815260200160008152602001600081526020016000815260200160008152602001600081526020016000815260200142815250600260006009548152602001908152602001600020600082015181600001556020820151816001019080519060200190611875929190612393565b506040820151816002019080519060200190611892929190612393565b5060608201518160030190805190602001906118af929190612413565b5060808201518160040190805190602001906118cc929190612413565b5060a08201518160050160006101000a81548173ffffffffffffffffffffffffffffffffffffffff021916908373ffffffffffffffffffffffffffffffffffffffff16021790555060c0820151816006019080519060200190611930929190612393565b5060e082015181600701556101008201518160080155610120820151816009015561014082015181600a015561016082015181600b015561018082015181600c01556101a082015181600d01556101c082015181600e0155905050600082141515611a02576009546002600084815260200190815260200160002060080181905550600260008381526020019081526020016000206009015460026000600954815260200190815260200160002060090181905550600460026000848152602001908152602001600020600901819055505b60096000815480929190600101919050555060019050611a22565b600090505b95945050505050565b6000600a8251111515611a3a57fe5b600360026000858152602001908152602001600020600901541015611c49576002806000858152602001908152602001600020600901541415611bed57606060066000858152602001908152602001600020805480602002602001604051908101604052809291908181526020018280548015611b0c57602002820191906000526020600020905b8160009054906101000a900473ffffffffffffffffffffffffffffffffffffffff1673ffffffffffffffffffffffffffffffffffffffff1681526020019060010190808311611ac2575b50505050509050600080905060008090505b8251811015611b88578281815181101515611b3557fe5b9060200190602002015173ffffffffffffffffffffffffffffffffffffffff163373ffffffffffffffffffffffffffffffffffffffff161415611b7b5760019150611b88565b8080600101915050611b1e565b508015611be35760026000868152602001908152602001600020600401849080600181540180825580915050906001820390600052602060002001600090919290919091509080519060200190611be0929190612473565b50505b8092505050611c4e565b60026000848152602001908152602001600020600401829080600181540180825580915050906001820390600052602060002001600090919290919091509080519060200190611c3e929190612473565b505060019050611c4e565b600090505b92915050565b6060600560008373ffffffffffffffffffffffffffffffffffffffff1673ffffffffffffffffffffffffffffffffffffffff168152602001908152602001600020805480602002602001604051908101604052809291908181526020016000905b82821015611d71578382906000526020600020018054600181600116156101000203166002900480601f016020809104026020016040519081016040528092919081815260200182805460018160011615610100020316600290048015611d5d5780601f10611d3257610100808354040283529160200191611d5d565b820191906000526020600020905b815481529060010190602001808311611d4057829003601f168201915b505050505081526020019060010190611cb5565b505050509050919050565b6060600260008381526020019081526020016000206006018054600181600116156101000203166002900480601f016020809104026020016040519081016040528092919081815260200182805460018160011615610100020316600290048015611e285780601f10611dfd57610100808354040283529160200191611e28565b820191906000526020600020905b815481529060010190602001808311611e0b57829003601f168201915b50505050509050919050565b606060026000838152602001908152602001600020600401805480602002602001604051908101604052809291908181526020016000905b82821015611f28578382906000526020600020018054600181600116156101000203166002900480601f016020809104026020016040519081016040528092919081815260200182805460018160011615610100020316600290048015611f145780601f10611ee957610100808354040283529160200191611f14565b820191906000526020600020905b815481529060010190602001808311611ef757829003601f168201915b505050505081526020019060010190611e6c565b505050509050919050565b6000600954905090565b600060095482101515611f4c57fe5b60006002600084815260200190815260200160002060090154141515611f6e57fe5b6004546006600084815260200190815260200160002080549050101515611f9157fe5b600360003373ffffffffffffffffffffffffffffffffffffffff1673ffffffffffffffffffffffffffffffffffffffff16815260200190815260200160002060009054906101000a900460ff161515611fe657fe5b6060600560003373ffffffffffffffffffffffffffffffffffffffff1673ffffffffffffffffffffffffffffffffffffffff168152602001908152602001600020805480602002602001604051908101604052809291908181526020016000905b82821015612103578382906000526020600020018054600181600116156101000203166002900480601f0160208091040260200160405190810160405280929190818152602001828054600181600116156101000203166002900480156120ef5780601f106120c4576101008083540402835291602001916120ef565b820191906000526020600020905b8154815290600101906020018083116120d257829003601f168201915b505050505081526020019060010190612047565b505050509050606060026000858152602001908152602001600020600301805480602002602001604051908101604052809291908181526020016000905b828210156121fd578382906000526020600020018054600181600116156101000203166002900480601f0160208091040260200160405190810160405280929190818152602001828054600181600116156101000203166002900480156121e95780601f106121be576101008083540402835291602001916121e9565b820191906000526020600020905b8154815290600101906020018083116121cc57829003601f168201915b505050505081526020019060010190612141565b50505050905060008090505b82518110156123035760008090505b82518110156122f5576001156122e857600660008781526020019081526020016000203390806001815401808255809150509060018203906000526020600020016000909192909190916101000a81548173ffffffffffffffffffffffffffffffffffffffff021916908373ffffffffffffffffffffffffffffffffffffffff16021790555050600454600660008881526020019081526020016000208054905014156122db576002806000888152602001908152602001600020600901819055505b600194505050505061230b565b8180600101925050612218565b508080600101915050612209565b506000925050505b919050565b82805482825590600052602060002090810192821561235f579160200282015b8281111561235e57825182908051906020019061234e929190612393565b5091602001919060010190612330565b5b50905061236c91906124f3565b5090565b608060405190810160405280600490602082028038833980820191505090505090565b828054600181600116156101000203166002900490600052602060002090601f016020900481019282601f106123d457805160ff1916838001178555612402565b82800160010185558215612402579182015b828111156124015782518255916020019190600101906123e6565b5b50905061240f919061251f565b5090565b828054828255906000526020600020908101928215612462579160200282015b82811115612461578251829080519060200190612451929190612393565b5091602001919060010190612433565b5b50905061246f91906124f3565b5090565b828054600181600116156101000203166002900490600052602060002090601f016020900481019282601f106124b457805160ff19168380011785556124e2565b828001600101855582156124e2579182015b828111156124e15782518255916020019190600101906124c6565b5b5090506124ef919061251f565b5090565b61251c91905b80821115612518576000818161250f9190612544565b506001016124f9565b5090565b90565b61254191905b8082111561253d576000816000905550600101612525565b5090565b90565b50805460018160011615610100020316600290046000825580601f1061256a5750612589565b601f016020900490600052602060002090810190612588919061251f565b5b50565b60006125988235612ecf565b905092915050565b600082601f83011215156125b357600080fd5b81356125c66125c182612d85565b612d58565b9150818183526020840193506020810190508360005b8381101561260c57813586016125f2888261263e565b8452602084019350602083019250506001810190506125dc565b5050505092915050565b60006126228235612ee1565b905092915050565b60006126368251612ee1565b905092915050565b600082601f830112151561265157600080fd5b813561266461265f82612dad565b612d58565b9150808252602083016020830185838301111561268057600080fd5b61268b838284612f2d565b50505092915050565b600082601f83011215156126a757600080fd5b81356126ba6126b582612dd9565b612d58565b915080825260208301602083018583830111156126d657600080fd5b6126e1838284612f2d565b50505092915050565b60006126f68235612eed565b905092915050565b600061270a8251612eed565b905092915050565b60006020828403121561272457600080fd5b60006127328482850161258c565b91505092915050565b6000806040838503121561274e57600080fd5b600061275c8582860161258c565b925050602083013567ffffffffffffffff81111561277957600080fd5b612785858286016125a0565b9150509250929050565b6000602082840312156127a157600080fd5b60006127af8482850161262a565b91505092915050565b600080600080600060a086880312156127d057600080fd5b600086013567ffffffffffffffff8111156127ea57600080fd5b6127f688828901612694565b955050602086013567ffffffffffffffff81111561281357600080fd5b61281f88828901612694565b945050604086013567ffffffffffffffff81111561283c57600080fd5b612848888289016125a0565b935050606086013567ffffffffffffffff81111561286557600080fd5b61287188828901612694565b9250506080612882888289016126ea565b9150509295509295909350565b6000602082840312156128a157600080fd5b60006128af848285016126ea565b91505092915050565b6000602082840312156128ca57600080fd5b60006128d8848285016126fe565b91505092915050565b600080604083850312156128f457600080fd5b6000612902858286016126ea565b925050602061291385828601612616565b9150509250929050565b6000806040838503121561293057600080fd5b600061293e858286016126ea565b925050602083013567ffffffffffffffff81111561295b57600080fd5b61296785828601612694565b9150509250929050565b6000806040838503121561298457600080fd5b6000612992858286016126ea565b92505060206129a3858286016126ea565b9150509250929050565b6000806000606084860312156129c257600080fd5b60006129d0868287016126ea565b93505060206129e1868287016126ea565b92505060406129f2868287016126ea565b9150509250925092565b612a0581612ef7565b82525050565b612a1481612e87565b82525050565b6000612a2582612e29565b808452602084019350612a3783612e05565b60005b82811015612a6957612a4d868351612a0b565b612a5682612e60565b9150602086019550600181019050612a3a565b50849250505092915050565b6000612a8082612e34565b80845260208401935083602082028501612a9985612e12565b60005b84811015612ad2578383038852612ab4838351612b73565b9250612abf82612e6d565b9150602088019750600181019050612a9c565b508196508694505050505092915050565b612aec81612e3f565b612af582612e1f565b60005b82811015612b2757612b0b858351612ba9565b612b1482612e7a565b9150602085019450600181019050612af8565b5050505050565b612b3781612e99565b82525050565b6000612b4882612e55565b808452612b5c816020860160208601612f3c565b612b6581612f6f565b602085010191505092915050565b6000612b7e82612e4a565b808452612b92816020860160208601612f3c565b612b9b81612f6f565b602085010191505092915050565b612bb281612ec5565b82525050565b6000602082019050612bcd6000830184612a0b565b92915050565b6000606082019050612be860008301866129fc565b612bf56020830185612ba9565b612c026040830184612ba9565b949350505050565b60006020820190508181036000830152612c248184612a1a565b905092915050565b60006020820190508181036000830152612c468184612a75565b905092915050565b6000608082019050612c636000830184612ae3565b92915050565b6000602082019050612c7e6000830184612b2e565b92915050565b60006020820190508181036000830152612c9e8184612b3d565b905092915050565b6000602082019050612cbb6000830184612ba9565b92915050565b6000604082019050612cd66000830185612ba9565b612ce360208301846129fc565b9392505050565b6000606082019050612cff6000830186612ba9565b612d0c60208301856129fc565b612d196040830184612ba9565b949350505050565b6000606082019050612d366000830186612ba9565b612d436020830185612a0b565b612d506040830184612ba9565b949350505050565b6000604051905081810181811067ffffffffffffffff82111715612d7b57600080fd5b8060405250919050565b600067ffffffffffffffff821115612d9c57600080fd5b602082029050602081019050919050565b600067ffffffffffffffff821115612dc457600080fd5b601f19601f8301169050602081019050919050565b600067ffffffffffffffff821115612df057600080fd5b601f19601f8301169050602081019050919050565b6000602082019050919050565b6000602082019050919050565b6000819050919050565b600081519050919050565b600081519050919050565b600060049050919050565b600081519050919050565b600081519050919050565b6000602082019050919050565b6000602082019050919050565b6000602082019050919050565b6000612e9282612ea5565b9050919050565b60008115159050919050565b600073ffffffffffffffffffffffffffffffffffffffff82169050919050565b6000819050919050565b6000612eda82612ea5565b9050919050565b60008115159050919050565b6000819050919050565b6000612f0282612f09565b9050919050565b6000612f1482612f1b565b9050919050565b6000612f2682612ea5565b9050919050565b82818337600083830152505050565b60005b83811015612f5a578082015181840152602081019050612f3f565b83811115612f69576000848401525b50505050565b6000601f19601f830116905091905056fea265627a7a7230582076e442954e7341738cada909c6f740937fd1c66c30b96d2da75012cc18e8e57c6c6578706572696d656e74616cf50037",
  "source": "pragma solidity 0.5.0;\npragma experimental ABIEncoderV2;\nimport \"./CAJCoin.sol\";\n\ncontract Review {\n\n    //token contract\n    CAJCoin tokenContract;\n\n    address public devAddress;\n\n    //Paper struct\n    struct Paper {\n        //id of the paper\n        uint256 id;\n        //file url of paper\n        string location;\n        //title of paper\n        string title;\n        //paper tags\n        string[] tags;\n        //comments\n        string[] comments;\n        // addr uploader of paper\n        address author;\n        //name of author & creds\n        string authorNameCreds;\n        //id of previous paper if this is a revision\n        uint256 prevId;\n        //id of nect paper if this is an old copy\n        uint256 nextId;\n        //state of the paper,\n        //(0 unreviewed, 1 ready for review, 2 under review (only professionals can review), 3 published, 4 old version of a different paper, 5 for dead)\n        uint state;\n        //vote related stuff\n        uint256 userVotes;\n        uint256 userScore;\n        uint reviewerVotes;\n        uint reviewerScore;\n        //date\n        uint256 date;\n\n    }\n\n    // paper ids to paper objects\n    mapping(uint256 => Paper) private papers;\n\n    //mapping of addresses to booleans representing wether an address is \"verified\"\n    mapping(address => bool) private verifiedUsers;\n\n    //constant; max number of professional reviewers until paper is pushed to being reviewed and published\n    uint256 NUMBER_OF_REVIEWERS = 10;\n\n    //mapping of an address to the topics the verified user is allowed to review\n    mapping(address => string[]) allowedReviewerTopics;\n\n    //mapping of reviewers currently reviewing a paper\n    mapping(uint256 => address[]) private reviewersForPaper;\n\n    //track if reviewers and users have alreayd voted on a paper\n    mapping(uint256 => mapping(address => bool)) private reviewerHasVoted;\n    mapping(uint256 => mapping(address => bool)) private userHasVoted;\n\n    //next id to be assigned\n    uint256 private currentId;\n\n\n    // constructor\n    constructor() public {//(uint threshold) public {\n        // 0 is used as a null value for ids\n        currentId = 1;\n        devAddress = msg.sender;\n        verifiedUsers[devAddress] = true;\n        // impliment some sort of limit on staking tokens\n        //tokenContract = CAJCoin(coinAddr);\n    }\n\n    //getter for current ID; actually the next id to be assigned\n    function getCurrentID() public returns (uint256 id) {\n        return currentId;\n    }\n\n    //check if a paper exists\n    function paperExists(uint256 _id) public returns (bool exists) {\n        return _id < getCurrentID() && _id > 0;\n    }\n\n    // add a new paper with the specified fields\n    function addPaper(string memory _title, string memory _location, string[] memory _tags, string memory _authorNameCreds, uint256 _prevID) public returns (bool success) {\n        if (_prevID == 0 ||\n            (msg.sender == papers[_prevID].author) && papers[_prevID].state < 3) {\n                papers[currentId] = Paper(currentId, _location, _title, _tags, new string[](0), msg.sender, _authorNameCreds, _prevID, 0, 0, 0, 0, 0, 0, block.timestamp);\n                if (_prevID != 0) {\n                    papers[_prevID].nextId = currentId;\n                    papers[currentId].state = papers[_prevID].state;\n                    papers[_prevID].state = 4;\n                }\n                currentId++;\n                return true;\n        }\n        return false;\n    }\n\n    //getter methods for papers\n    function getPaperTitle(uint256 _id) public returns (string memory) {\n        string memory title = papers[_id].title;\n        return title;\n    }\n\n    function getPaperLocation(uint256 _id) public returns (string memory location) {\n        location = papers[_id].location;\n    }\n\n    function getPaperTags(uint256 _id) public returns (string[] memory tags) {\n        tags = papers[_id].tags;\n    }\n\n    function getPaperComments(uint256 _id) public returns (string[] memory comments) {\n        comments = papers[_id].comments;\n    }\n\n    function getPaperAuthor(uint256 _id) public returns (address author) {\n        author = papers[_id].author;\n    }\n\n    function getPaperAuthorName(uint256 _id) public returns (string memory author) {\n        author = papers[_id].authorNameCreds;\n    }\n\n    function getPaperPrevId(uint256 _id) public returns (uint256 prevId) {\n        prevId = papers[_id].prevId;\n    }\n\n    function getPaperNextId(uint256 _id) public returns (uint256 nextId) {\n        nextId = papers[_id].nextId;\n    }\n\n    function getPaperState(uint256 _id) public returns (uint256 state) {\n        state = papers[_id].state;\n    }\n\n    function getPaperVotes(uint256 _id) public returns (uint256[4] memory votes) {\n        votes = [papers[_id].userScore, papers[_id].userVotes, papers[_id].reviewerScore, papers[_id].reviewerVotes];\n    }\n\n    function getPaperDate(uint256 _id) public returns (uint256 date) {\n        date = papers[_id].date;\n    }\n\n    //user signs up to review a paper\n    function addReviewerForPaper(uint256 _id) public returns (bool success) {\n        //first check if the paper can take more reviewers\n        assert(_id < currentId);\n        assert(papers[_id].state == 0);\n        assert(reviewersForPaper[_id].length < NUMBER_OF_REVIEWERS);\n        //check if user is a reviewer\n        assert(verifiedUsers[msg.sender]);\n        //check for tags, and if they match, add the user and return true\n        //if this would reach the limit, change the state of the paper as well\n        string[] memory topics = allowedReviewerTopics[msg.sender];\n        string[] memory tags = papers[_id].tags;\n        for (uint i = 0; i < topics.length; i++) {\n            for (uint j = 0; j < tags.length; i++) {\n                if (true) {\n                    reviewersForPaper[_id].push(msg.sender);\n                    if (reviewersForPaper[_id].length == NUMBER_OF_REVIEWERS) {\n                        papers[_id].state = 2; //now, only professionals can review this paper\n                    }\n                    return true;\n                }\n            }\n        }\n        return false;\n    }\n\n    //comment on papers\n    function addComment(uint256 _id, string memory _comment) public returns (bool success) {\n        assert(bytes(_comment).length > 10);\n        if (papers[_id].state < 3) {\n            //if the paper is under review, only reviewers can comment\n            if(papers[_id].state == 2) {\n                address[] memory reviewers = reviewersForPaper[_id];\n                bool x = false;\n                for (uint i = 0; i < reviewers.length; i++) {\n                    if (msg.sender == reviewers[i]) {\n                        x = true;\n                        break;\n                    }\n                }\n\n                if (x) {\n                    papers[_id].comments.push(_comment);\n                }\n                return x;\n            } else {\n                papers[_id].comments.push(_comment);\n                return true;\n            }\n        }\n        return false;\n    }\n\n    //get reviewers for a paper\n    function getReviewersForPaper(uint256 _id) public returns (address[] memory reviewers) {\n        reviewers = reviewersForPaper[_id];\n    }\n\n    //get topics for reviewer\n    function getTopicsForReviewer(address _reviewer) public returns (string[] memory topics) {\n        topics = allowedReviewerTopics[_reviewer];\n    }\n\n    //verify a user, only the dev account can do this because we onboard them\n    function addVerifiedUser(address _user) public returns (bool success) {\n        if (msg.sender == devAddress) {\n            verifiedUsers[_user] = true;\n            return true;\n        }\n        return false;\n    }\n\n    // reset the topics for a reviewer, only dev can do this\n    function addTopicsForReviewer(address _user, string[] memory _topics) public returns (bool success) {\n        if (msg.sender == devAddress) {\n            allowedReviewerTopics[_user] = _topics;\n            return true;\n        }\n        return false;\n    }\n\n    //reviewer votes on a paper\n    function reviewerVoteOnPaper(uint256 _id, bool vote) public returns (bool success) {\n        assert(verifiedUsers[msg.sender]);\n        assert(reviewerHasVoted[_id][msg.sender] == false);\n        address[] storage reviewers = reviewersForPaper[_id];\n        bool x = false;\n        for (uint i = 0; i < reviewers.length; i++) {\n            if (msg.sender == reviewers[i]) {\n                x = true;\n                break;\n            }\n        }\n\n        if (x) {\n            papers[_id].reviewerVotes += 1;\n            if (vote) {\n                papers[_id].reviewerScore += 1;\n            }\n\n            //check if paper is to be published or killed yet and distribute tokens\n            if(papers[_id].reviewerScore >= 10 ||\n                (papers[_id].reviewerScore < 10 && papers[_id].reviewerVotes == NUMBER_OF_REVIEWERS)) {\n                if (papers[_id].reviewerScore >= 10) {\n                    //publish\n                    papers[_id].state = 3;\n                } else {\n                    //kill\n                    papers[_id].state = 5;\n                }\n                //distribute tokens\n                uint256 amountToDistriute = getNumTokens(_id) / NUMBER_OF_REVIEWERS;\n                for (uint i = 0; i < reviewers.length; i++) {\n                    x = tokenContract.collectTokens(_id, reviewers[i], amountToDistriute);\n                }\n            }\n        }\n        return x;\n    }\n\n    // vote function updates given paper (passed in id) with the vote associated with the msg.sender\n    // method guards against double voting and staying within voting range [0, 10]\n    function userVoteOnPaper(uint256 _id, uint256 _vote, uint256 _amount) public returns (bool success) {\n        assert(_id < currentId);\n        assert(_vote > 0 && _vote <= 10);\n        assert(!userHasVoted[_id][msg.sender]);\n        if (_amount < 1) {\n            return false;\n        }\n        stakeTokens(_id, _amount);\n        papers[_id].userScore += _vote;\n        papers[_id].userVotes += 1;\n        return true;\n    }\n\n    // stake tokens onto an existing paper (staked token value contributes to review process)\n    function stakeTokens(uint256 _id, uint256 _amount) public returns (bool success) {\n        assert(paperExists(_id));\n        assert(papers[_id].state == 0);\n        assert(_amount >= 1);\n        success = tokenContract.stakeTokens(msg.sender, _id, _amount);\n\n    }\n\n    // revokes all of a user's tokens from an old revision of a paper\n    function revokeTokens(uint256 _id) public returns (bool success) {\n        require(papers[_id].state == 4); //old draft or unreviewed\n        uint256 amount = tokenContract.tokensStakedByUser(_id, msg.sender);\n        return tokenContract.collectTokens(_id, msg.sender, amount);\n    }\n\n    //get current number of tokens for a paper\n    function getNumTokens(uint256 _id) public returns (uint256) {\n        return tokenContract.paperBalance(_id);\n    }\n\n    function setContract(address addr) public {\n        assert(msg.sender == devAddress);\n        tokenContract = CAJCoin(addr);\n    }\n\n}\n",
  "sourcePath": "/Users/olivialee/Desktop/CAJ/contracts/Review.sol",
  "compiler": {
    "name": "solc",
    "version": "0.5.0+commit.1d4f565a.Emscripten.clang"
  },
  "schemaVersion": "3.0.9",
  "updatedAt": "2019-05-03T16:10:30.953Z",
  "devdoc": {
    "methods": {}
  },
  "userdoc": {
    "methods": {}
  }
}