{
  "contractName": "Review",
  "abi": [
    {
      "constant": true,
      "inputs": [],
      "name": "devAddress",
      "outputs": [
        {
          "name": "",
          "type": "address"
        }
      ],
      "payable": false,
      "stateMutability": "view",
      "type": "function",
      "signature": "0x3ad10ef6"
    },
    {
      "inputs": [],
      "payable": false,
      "stateMutability": "nonpayable",
      "type": "constructor",
      "signature": "constructor"
    },
    {
      "constant": false,
      "inputs": [],
      "name": "sample",
      "outputs": [
        {
          "name": "",
          "type": "bool"
        }
      ],
      "payable": false,
      "stateMutability": "nonpayable",
      "type": "function",
      "signature": "0xc9482a5d"
    },
    {
      "constant": false,
      "inputs": [],
      "name": "getCurrentID",
      "outputs": [
        {
          "name": "id",
          "type": "uint256"
        }
      ],
      "payable": false,
      "stateMutability": "nonpayable",
      "type": "function",
      "signature": "0xef1e7df3"
    },
    {
      "constant": false,
      "inputs": [
        {
          "name": "_id",
          "type": "uint256"
        }
      ],
      "name": "paperExists",
      "outputs": [
        {
          "name": "exists",
          "type": "bool"
        }
      ],
      "payable": false,
      "stateMutability": "nonpayable",
      "type": "function",
      "signature": "0x7d644de6"
    },
    {
      "constant": false,
      "inputs": [
        {
          "name": "_title",
          "type": "string"
        },
        {
          "name": "_location",
          "type": "string"
        },
        {
          "name": "_tags",
          "type": "string[]"
        },
        {
          "name": "_authorNameCreds",
          "type": "string"
        },
        {
          "name": "_prevID",
          "type": "uint256"
        }
      ],
      "name": "addPaper",
      "outputs": [
        {
          "name": "success",
          "type": "bool"
        }
      ],
      "payable": false,
      "stateMutability": "nonpayable",
      "type": "function",
      "signature": "0xa23f2e29"
    },
    {
      "constant": false,
      "inputs": [
        {
          "name": "_id",
          "type": "uint256"
        }
      ],
      "name": "getPaperTitle",
      "outputs": [
        {
          "name": "",
          "type": "string"
        }
      ],
      "payable": false,
      "stateMutability": "nonpayable",
      "type": "function",
      "signature": "0x0642e896"
    },
    {
      "constant": false,
      "inputs": [
        {
          "name": "_id",
          "type": "uint256"
        }
      ],
      "name": "getPaperLocation",
      "outputs": [
        {
          "name": "location",
          "type": "string"
        }
      ],
      "payable": false,
      "stateMutability": "nonpayable",
      "type": "function",
      "signature": "0x76698442"
    },
    {
      "constant": false,
      "inputs": [
        {
          "name": "_id",
          "type": "uint256"
        }
      ],
      "name": "getPaperTags",
      "outputs": [
        {
          "name": "tags",
          "type": "string[]"
        }
      ],
      "payable": false,
      "stateMutability": "nonpayable",
      "type": "function",
      "signature": "0x64ce598d"
    },
    {
      "constant": false,
      "inputs": [
        {
          "name": "_id",
          "type": "uint256"
        }
      ],
      "name": "getPaperComments",
      "outputs": [
        {
          "name": "comments",
          "type": "string[]"
        }
      ],
      "payable": false,
      "stateMutability": "nonpayable",
      "type": "function",
      "signature": "0xdc39a441"
    },
    {
      "constant": false,
      "inputs": [
        {
          "name": "_id",
          "type": "uint256"
        }
      ],
      "name": "getPaperAuthor",
      "outputs": [
        {
          "name": "author",
          "type": "address"
        }
      ],
      "payable": false,
      "stateMutability": "nonpayable",
      "type": "function",
      "signature": "0x9b9c803d"
    },
    {
      "constant": false,
      "inputs": [
        {
          "name": "_id",
          "type": "uint256"
        }
      ],
      "name": "getPaperAuthorName",
      "outputs": [
        {
          "name": "author",
          "type": "string"
        }
      ],
      "payable": false,
      "stateMutability": "nonpayable",
      "type": "function",
      "signature": "0xd931e602"
    },
    {
      "constant": false,
      "inputs": [
        {
          "name": "_id",
          "type": "uint256"
        }
      ],
      "name": "getPaperPrevId",
      "outputs": [
        {
          "name": "prevId",
          "type": "uint256"
        }
      ],
      "payable": false,
      "stateMutability": "nonpayable",
      "type": "function",
      "signature": "0x532ca62b"
    },
    {
      "constant": false,
      "inputs": [
        {
          "name": "_id",
          "type": "uint256"
        }
      ],
      "name": "getPaperNextId",
      "outputs": [
        {
          "name": "nextId",
          "type": "uint256"
        }
      ],
      "payable": false,
      "stateMutability": "nonpayable",
      "type": "function",
      "signature": "0x0fcef437"
    },
    {
      "constant": false,
      "inputs": [
        {
          "name": "_id",
          "type": "uint256"
        }
      ],
      "name": "getPaperState",
      "outputs": [
        {
          "name": "state",
          "type": "uint256"
        }
      ],
      "payable": false,
      "stateMutability": "nonpayable",
      "type": "function",
      "signature": "0x2ec3a85e"
    },
    {
      "constant": false,
      "inputs": [
        {
          "name": "_id",
          "type": "uint256"
        }
      ],
      "name": "getPaperVotes",
      "outputs": [
        {
          "name": "votes",
          "type": "uint256[4]"
        }
      ],
      "payable": false,
      "stateMutability": "nonpayable",
      "type": "function",
      "signature": "0x5cbdfd61"
    },
    {
      "constant": false,
      "inputs": [
        {
          "name": "_id",
          "type": "uint256"
        }
      ],
      "name": "getPaperDate",
      "outputs": [
        {
          "name": "date",
          "type": "uint256"
        }
      ],
      "payable": false,
      "stateMutability": "nonpayable",
      "type": "function",
      "signature": "0x7186008f"
    },
    {
      "constant": false,
      "inputs": [
        {
          "name": "_id",
          "type": "uint256"
        }
      ],
      "name": "addReviewerForPaper",
      "outputs": [
        {
          "name": "success",
          "type": "bool"
        }
      ],
      "payable": false,
      "stateMutability": "nonpayable",
      "type": "function",
      "signature": "0xf641ba4b"
    },
    {
      "constant": false,
      "inputs": [
        {
          "name": "_id",
          "type": "uint256"
        },
        {
          "name": "_comment",
          "type": "string"
        }
      ],
      "name": "addComment",
      "outputs": [
        {
          "name": "success",
          "type": "bool"
        }
      ],
      "payable": false,
      "stateMutability": "nonpayable",
      "type": "function",
      "signature": "0xaa7e5683"
    },
    {
      "constant": false,
      "inputs": [
        {
          "name": "_id",
          "type": "uint256"
        }
      ],
      "name": "getReviewersForPaper",
      "outputs": [
        {
          "name": "reviewers",
          "type": "address[]"
        }
      ],
      "payable": false,
      "stateMutability": "nonpayable",
      "type": "function",
      "signature": "0x32f566a3"
    },
    {
      "constant": false,
      "inputs": [
        {
          "name": "_reviewer",
          "type": "address"
        }
      ],
      "name": "getTopicsForReviewer",
      "outputs": [
        {
          "name": "topics",
          "type": "string[]"
        }
      ],
      "payable": false,
      "stateMutability": "nonpayable",
      "type": "function",
      "signature": "0xc651c66b"
    },
    {
      "constant": false,
      "inputs": [
        {
          "name": "_user",
          "type": "address"
        }
      ],
      "name": "addVerifiedUser",
      "outputs": [
        {
          "name": "success",
          "type": "bool"
        }
      ],
      "payable": false,
      "stateMutability": "nonpayable",
      "type": "function",
      "signature": "0x88e3c5d6"
    },
    {
      "constant": false,
      "inputs": [
        {
          "name": "_user",
          "type": "address"
        },
        {
          "name": "_topics",
          "type": "string[]"
        }
      ],
      "name": "addTopicsForReviewer",
      "outputs": [
        {
          "name": "success",
          "type": "bool"
        }
      ],
      "payable": false,
      "stateMutability": "nonpayable",
      "type": "function",
      "signature": "0x49e5124d"
    },
    {
      "constant": false,
      "inputs": [
        {
          "name": "_id",
          "type": "uint256"
        },
        {
          "name": "vote",
          "type": "bool"
        }
      ],
      "name": "reviewerVoteOnPaper",
      "outputs": [
        {
          "name": "success",
          "type": "bool"
        }
      ],
      "payable": false,
      "stateMutability": "nonpayable",
      "type": "function",
      "signature": "0x9ddd6049"
    },
    {
      "constant": false,
      "inputs": [
        {
          "name": "_id",
          "type": "uint256"
        },
        {
          "name": "_vote",
          "type": "uint256"
        },
        {
          "name": "_amount",
          "type": "uint256"
        }
      ],
      "name": "userVoteOnPaper",
      "outputs": [
        {
          "name": "success",
          "type": "bool"
        }
      ],
      "payable": false,
      "stateMutability": "nonpayable",
      "type": "function",
      "signature": "0x662e509f"
    },
    {
      "constant": false,
      "inputs": [
        {
          "name": "_id",
          "type": "uint256"
        }
      ],
      "name": "revokeTokens",
      "outputs": [
        {
          "name": "success",
          "type": "bool"
        }
      ],
      "payable": false,
      "stateMutability": "nonpayable",
      "type": "function",
      "signature": "0x8bff9c93"
    },
    {
      "constant": false,
      "inputs": [
        {
          "name": "_id",
          "type": "uint256"
        }
      ],
      "name": "getNumTokens",
      "outputs": [
        {
          "name": "",
          "type": "uint256"
        }
      ],
      "payable": false,
      "stateMutability": "nonpayable",
      "type": "function",
      "signature": "0x2119249f"
    },
    {
      "constant": false,
      "inputs": [
        {
          "name": "addr",
          "type": "address"
        }
      ],
      "name": "setContract",
      "outputs": [],
      "payable": false,
      "stateMutability": "nonpayable",
      "type": "function",
      "signature": "0x75f890ab"
    }
  ],
  "bytecode": "0x6080604052600a60045534801561001557600080fd5b50600160098190555033600160006101000a81548173ffffffffffffffffffffffffffffffffffffffff021916908373ffffffffffffffffffffffffffffffffffffffff160217905550600160036000600160009054906101000a900473ffffffffffffffffffffffffffffffffffffffff1673ffffffffffffffffffffffffffffffffffffffff1673ffffffffffffffffffffffffffffffffffffffff16815260200190815260200160002060006101000a81548160ff02191690831515021790555061396e806100e86000396000f3fe60806040526004361061015f576000357c0100000000000000000000000000000000000000000000000000000000900463ffffffff1680630642e896146101645780630fcef437146101a15780632119249f146101de5780632ec3a85e1461021b57806332f566a3146102585780633ad10ef61461029557806349e5124d146102c0578063532ca62b146102fd5780635cbdfd611461033a57806364ce598d14610377578063662e509f146103b45780637186008f146103f157806375f890ab1461042e57806376698442146104575780637d644de61461049457806388e3c5d6146104d15780638bff9c931461050e5780639b9c803d1461054b5780639ddd604914610588578063a23f2e29146105c5578063aa7e568314610602578063c651c66b1461063f578063c9482a5d1461067c578063d931e602146106a7578063dc39a441146106e4578063ef1e7df314610721578063f641ba4b1461074c575b600080fd5b34801561017057600080fd5b5061018b6004803603610186919081019061327f565b610789565b6040516101989190613638565b60405180910390f35b3480156101ad57600080fd5b506101c860048036036101c3919081019061327f565b610846565b6040516101d5919061365a565b60405180910390f35b3480156101ea57600080fd5b506102056004803603610200919081019061327f565b610866565b604051610212919061365a565b60405180910390f35b34801561022757600080fd5b50610242600480360361023d919081019061327f565b610937565b60405161024f919061365a565b60405180910390f35b34801561026457600080fd5b5061027f600480360361027a919081019061327f565b610957565b60405161028c91906135be565b60405180910390f35b3480156102a157600080fd5b506102aa6109f8565b6040516102b7919061356c565b60405180910390f35b3480156102cc57600080fd5b506102e760048036036102e2919081019061312b565b610a1e565b6040516102f4919061361d565b60405180910390f35b34801561030957600080fd5b50610324600480360361031f919081019061327f565b610ade565b604051610331919061365a565b60405180910390f35b34801561034657600080fd5b50610361600480360361035c919081019061327f565b610afe565b60405161036e9190613602565b60405180910390f35b34801561038357600080fd5b5061039e6004803603610399919081019061327f565b610b87565b6040516103ab91906135e0565b60405180910390f35b3480156103c057600080fd5b506103db60048036036103d69190810190613361565b610c86565b6040516103e8919061361d565b60405180910390f35b3480156103fd57600080fd5b506104186004803603610413919081019061327f565b610d87565b604051610425919061365a565b60405180910390f35b34801561043a57600080fd5b5061045560048036036104509190810190613102565b610da7565b005b34801561046357600080fd5b5061047e6004803603610479919081019061327f565b610e43565b60405161048b9190613638565b60405180910390f35b3480156104a057600080fd5b506104bb60048036036104b6919081019061327f565b610efb565b6040516104c8919061361d565b60405180910390f35b3480156104dd57600080fd5b506104f860048036036104f39190810190613102565b610f1a565b604051610505919061361d565b60405180910390f35b34801561051a57600080fd5b506105356004803603610530919081019061327f565b610fdd565b604051610542919061361d565b60405180910390f35b34801561055757600080fd5b50610572600480360361056d919081019061327f565b6111a6565b60405161057f919061356c565b60405180910390f35b34801561059457600080fd5b506105af60048036036105aa91908101906132d1565b6111e6565b6040516105bc919061361d565b60405180910390f35b3480156105d157600080fd5b506105ec60048036036105e791908101906131a8565b6115c2565b6040516105f9919061361d565b60405180910390f35b34801561060e57600080fd5b506106296004803603610624919081019061330d565b611903565b604051610636919061361d565b60405180910390f35b34801561064b57600080fd5b5061066660048036036106619190810190613102565b611b2c565b60405161067391906135e0565b60405180910390f35b34801561068857600080fd5b50610691611c54565b60405161069e919061361d565b60405180910390f35b3480156106b357600080fd5b506106ce60048036036106c9919081019061327f565b612656565b6040516106db9190613638565b60405180910390f35b3480156106f057600080fd5b5061070b6004803603610706919081019061327f565b61270e565b60405161071891906135e0565b60405180910390f35b34801561072d57600080fd5b5061073661280d565b604051610743919061365a565b60405180910390f35b34801561075857600080fd5b50610773600480360361076e919081019061327f565b612817565b604051610780919061361d565b60405180910390f35b606080600260008481526020019081526020016000206002018054600181600116156101000203166002900480601f0160208091040260200160405190810160405280929190818152602001828054600181600116156101000203166002900480156108365780601f1061080b57610100808354040283529160200191610836565b820191906000526020600020905b81548152906001019060200180831161081957829003601f168201915b5050505050905080915050919050565b600060026000838152602001908152602001600020600801549050919050565b60008060009054906101000a900473ffffffffffffffffffffffffffffffffffffffff1673ffffffffffffffffffffffffffffffffffffffff166356bdaf3a836040518263ffffffff167c01000000000000000000000000000000000000000000000000000000000281526004016108de919061365a565b602060405180830381600087803b1580156108f857600080fd5b505af115801561090c573d6000803e3d6000fd5b505050506040513d601f19601f8201168201806040525061093091908101906132a8565b9050919050565b600060026000838152602001908152602001600020600901549050919050565b6060600660008381526020019081526020016000208054806020026020016040519081016040528092919081815260200182805480156109ec57602002820191906000526020600020905b8160009054906101000a900473ffffffffffffffffffffffffffffffffffffffff1673ffffffffffffffffffffffffffffffffffffffff16815260200190600101908083116109a2575b50505050509050919050565b600160009054906101000a900473ffffffffffffffffffffffffffffffffffffffff1681565b6000600160009054906101000a900473ffffffffffffffffffffffffffffffffffffffff1673ffffffffffffffffffffffffffffffffffffffff163373ffffffffffffffffffffffffffffffffffffffff161415610ad35781600560008573ffffffffffffffffffffffffffffffffffffffff1673ffffffffffffffffffffffffffffffffffffffff1681526020019081526020016000209080519060200190610ac9929190612d00565b5060019050610ad8565b600090505b92915050565b600060026000838152602001908152602001600020600701549050919050565b610b06612d60565b60806040519081016040528060026000858152602001908152602001600020600b0154815260200160026000858152602001908152602001600020600a0154815260200160026000858152602001908152602001600020600d0154815260200160026000858152602001908152602001600020600c01548152509050919050565b606060026000838152602001908152602001600020600301805480602002602001604051908101604052809291908181526020016000905b82821015610c7b578382906000526020600020018054600181600116156101000203166002900480601f016020809104026020016040519081016040528092919081815260200182805460018160011615610100020316600290048015610c675780601f10610c3c57610100808354040283529160200191610c67565b820191906000526020600020905b815481529060010190602001808311610c4a57829003601f168201915b505050505081526020019060010190610bbf565b505050509050919050565b600060095484101515610c9557fe5b600083118015610ca65750600a8311155b1515610cae57fe5b6008600085815260200190815260200160002060003373ffffffffffffffffffffffffffffffffffffffff1673ffffffffffffffffffffffffffffffffffffffff16815260200190815260200160002060009054906101000a900460ff16151515610d1557fe5b6001821015610d275760009050610d80565b610d318483612bea565b508260026000868152602001908152602001600020600b0160008282540192505081905550600160026000868152602001908152602001600020600a0160008282540192505081905550600190505b9392505050565b600060026000838152602001908152602001600020600e01549050919050565b600160009054906101000a900473ffffffffffffffffffffffffffffffffffffffff1673ffffffffffffffffffffffffffffffffffffffff163373ffffffffffffffffffffffffffffffffffffffff16141515610e0057fe5b806000806101000a81548173ffffffffffffffffffffffffffffffffffffffff021916908373ffffffffffffffffffffffffffffffffffffffff16021790555050565b6060600260008381526020019081526020016000206001018054600181600116156101000203166002900480601f016020809104026020016040519081016040528092919081815260200182805460018160011615610100020316600290048015610eef5780601f10610ec457610100808354040283529160200191610eef565b820191906000526020600020905b815481529060010190602001808311610ed257829003601f168201915b50505050509050919050565b6000610f0561280d565b82108015610f135750600082115b9050919050565b6000600160009054906101000a900473ffffffffffffffffffffffffffffffffffffffff1673ffffffffffffffffffffffffffffffffffffffff163373ffffffffffffffffffffffffffffffffffffffff161415610fd3576001600360008473ffffffffffffffffffffffffffffffffffffffff1673ffffffffffffffffffffffffffffffffffffffff16815260200190815260200160002060006101000a81548160ff02191690831515021790555060019050610fd8565b600090505b919050565b60006004600260008481526020019081526020016000206009015414151561100457600080fd5b60008060009054906101000a900473ffffffffffffffffffffffffffffffffffffffff1673ffffffffffffffffffffffffffffffffffffffff16638282469d84336040518363ffffffff167c010000000000000000000000000000000000000000000000000000000002815260040161107e929190613675565b602060405180830381600087803b15801561109857600080fd5b505af11580156110ac573d6000803e3d6000fd5b505050506040513d601f19601f820116820180604052506110d091908101906132a8565b90506000809054906101000a900473ffffffffffffffffffffffffffffffffffffffff1673ffffffffffffffffffffffffffffffffffffffff16630356613b8433846040518463ffffffff167c010000000000000000000000000000000000000000000000000000000002815260040161114c9392919061369e565b602060405180830381600087803b15801561116657600080fd5b505af115801561117a573d6000803e3d6000fd5b505050506040513d601f19601f8201168201806040525061119e919081019061317f565b915050919050565b60006002600083815260200190815260200160002060050160009054906101000a900473ffffffffffffffffffffffffffffffffffffffff169050919050565b6000600360003373ffffffffffffffffffffffffffffffffffffffff1673ffffffffffffffffffffffffffffffffffffffff16815260200190815260200160002060009054906101000a900460ff16151561123d57fe5b600015156007600085815260200190815260200160002060003373ffffffffffffffffffffffffffffffffffffffff1673ffffffffffffffffffffffffffffffffffffffff16815260200190815260200160002060009054906101000a900460ff1615151415156112aa57fe5b6000600660008581526020019081526020016000209050600080905060008090505b828054905081101561135a5782818154811015156112e657fe5b9060005260206000200160009054906101000a900473ffffffffffffffffffffffffffffffffffffffff1673ffffffffffffffffffffffffffffffffffffffff163373ffffffffffffffffffffffffffffffffffffffff16141561134d576001915061135a565b80806001019150506112cc565b5080156115b757600160026000878152602001908152602001600020600c016000828254019250508190555083156113b257600160026000878152602001908152602001600020600d01600082825401925050819055505b600a60026000878152602001908152602001600020600d01541015806114115750600a60026000878152602001908152602001600020600d0154108015611410575060045460026000878152602001908152602001600020600c0154145b5b156115b657600a60026000878152602001908152602001600020600d01541015156114575760036002600087815260200190815260200160002060090181905550611474565b600560026000878152602001908152602001600020600901819055505b600060045461148287610866565b81151561148b57fe5b04905060008090505b83805490508110156115b3576000809054906101000a900473ffffffffffffffffffffffffffffffffffffffff1673ffffffffffffffffffffffffffffffffffffffff16630356613b8886848154811015156114ec57fe5b9060005260206000200160009054906101000a900473ffffffffffffffffffffffffffffffffffffffff16856040518463ffffffff167c0100000000000000000000000000000000000000000000000000000000028152600401611552939291906136d5565b602060405180830381600087803b15801561156c57600080fd5b505af1158015611580573d6000803e3d6000fd5b505050506040513d601f19601f820116820180604052506115a4919081019061317f565b92508080600101915050611494565b50505b5b809250505092915050565b60008082148061165557506002600083815260200190815260200160002060050160009054906101000a900473ffffffffffffffffffffffffffffffffffffffff1673ffffffffffffffffffffffffffffffffffffffff163373ffffffffffffffffffffffffffffffffffffffff16148015611654575060036002600084815260200190815260200160002060090154105b5b156118f5576101e060405190810160405280600954815260200186815260200187815260200185815260200160006040519080825280602002602001820160405280156116b657816020015b60608152602001906001900390816116a15790505b5081526020013373ffffffffffffffffffffffffffffffffffffffff1681526020018481526020018381526020016000815260200160008152602001600081526020016000815260200160008152602001600081526020014281525060026000600954815260200190815260200160002060008201518160000155602082015181600101908051906020019061174d929190612d83565b50604082015181600201908051906020019061176a929190612d83565b506060820151816003019080519060200190611787929190612e03565b5060808201518160040190805190602001906117a4929190612e03565b5060a08201518160050160006101000a81548173ffffffffffffffffffffffffffffffffffffffff021916908373ffffffffffffffffffffffffffffffffffffffff16021790555060c0820151816006019080519060200190611808929190612d83565b5060e082015181600701556101008201518160080155610120820151816009015561014082015181600a015561016082015181600b015561018082015181600c01556101a082015181600d01556101c082015181600e01559050506000821415156118da576009546002600084815260200190815260200160002060080181905550600260008381526020019081526020016000206009015460026000600954815260200190815260200160002060090181905550600460026000848152602001908152602001600020600901819055505b600960008154809291906001019190505550600190506118fa565b600090505b95945050505050565b6000600a825111151561191257fe5b600360026000858152602001908152602001600020600901541015611b21576002806000858152602001908152602001600020600901541415611ac5576060600660008581526020019081526020016000208054806020026020016040519081016040528092919081815260200182805480156119e457602002820191906000526020600020905b8160009054906101000a900473ffffffffffffffffffffffffffffffffffffffff1673ffffffffffffffffffffffffffffffffffffffff168152602001906001019080831161199a575b50505050509050600080905060008090505b8251811015611a60578281815181101515611a0d57fe5b9060200190602002015173ffffffffffffffffffffffffffffffffffffffff163373ffffffffffffffffffffffffffffffffffffffff161415611a535760019150611a60565b80806001019150506119f6565b508015611abb5760026000868152602001908152602001600020600401849080600181540180825580915050906001820390600052602060002001600090919290919091509080519060200190611ab8929190612e63565b50505b8092505050611b26565b60026000848152602001908152602001600020600401829080600181540180825580915050906001820390600052602060002001600090919290919091509080519060200190611b16929190612e63565b505060019050611b26565b600090505b92915050565b6060600560008373ffffffffffffffffffffffffffffffffffffffff1673ffffffffffffffffffffffffffffffffffffffff168152602001908152602001600020805480602002602001604051908101604052809291908181526020016000905b82821015611c49578382906000526020600020018054600181600116156101000203166002900480601f016020809104026020016040519081016040528092919081815260200182805460018160011615610100020316600290048015611c355780601f10611c0a57610100808354040283529160200191611c35565b820191906000526020600020905b815481529060010190602001808311611c1857829003601f168201915b505050505081526020019060010190611b8d565b505050509050919050565b600060606040805190810160405280600e81526020017f53616d706c652050617065722031000000000000000000000000000000000000815250905060606020604051908101604052806000815250905060606040805190810160405280600581526020017f616e696d65000000000000000000000000000000000000000000000000000000815250816000815181101515611cec57fe5b906020019060200201819052506040805190810160405280600d81526020017f64656570206c6561726e696e6700000000000000000000000000000000000000815250816001815181101515611d3e57fe5b9060200190602002018190525060606040805190810160405280600a81526020017f4a6f652042726f64657200000000000000000000000000000000000000000000815250905060008090506101e06040519081016040528060095481526020018581526020018681526020018481526020016000604051908082528060200260200182016040528015611de657816020015b6060815260200190600190039081611dd15790505b5081526020013373ffffffffffffffffffffffffffffffffffffffff168152602001838152602001828152602001600081526020016000815260200160008152602001600081526020016000815260200160008152602001428152506002600060018152602001908152602001600020600082015181600001556020820151816001019080519060200190611e7c929190612d83565b506040820151816002019080519060200190611e99929190612d83565b506060820151816003019080519060200190611eb6929190612e03565b506080820151816004019080519060200190611ed3929190612e03565b5060a08201518160050160006101000a81548173ffffffffffffffffffffffffffffffffffffffff021916908373ffffffffffffffffffffffffffffffffffffffff16021790555060c0820151816006019080519060200190611f37929190612d83565b5060e082015181600701556101008201518160080155610120820151816009015561014082015181600a015561016082015181600b015561018082015181600c01556101a082015181600d01556101c082015181600e015590505060096000815480929190600101919050555060606040805190810160405280600e81526020017f53616d706c652050617065722032000000000000000000000000000000000000815250905060606020604051908101604052806000815250905060606040805190810160405280600581526020017f616e696d6500000000000000000000000000000000000000000000000000000081525081600081518110151561203a57fe5b906020019060200201819052506040805190810160405280600d81526020017f64656570206c6561726e696e670000000000000000000000000000000000000081525081600181518110151561208c57fe5b9060200190602002018190525060606040805190810160405280600a81526020017f4f6c69766961204c656500000000000000000000000000000000000000000000815250905060008090506101e0604051908101604052806009548152602001858152602001868152602001848152602001600060405190808252806020026020018201604052801561213457816020015b606081526020019060019003908161211f5790505b5081526020013373ffffffffffffffffffffffffffffffffffffffff1681526020018381526020018281526020016000815260200160008152602001600081526020016000815260200160008152602001600081526020014281525060026000600281526020019081526020016000206000820151816000015560208201518160010190805190602001906121ca929190612d83565b5060408201518160020190805190602001906121e7929190612d83565b506060820151816003019080519060200190612204929190612e03565b506080820151816004019080519060200190612221929190612e03565b5060a08201518160050160006101000a81548173ffffffffffffffffffffffffffffffffffffffff021916908373ffffffffffffffffffffffffffffffffffffffff16021790555060c0820151816006019080519060200190612285929190612d83565b5060e082015181600701556101008201518160080155610120820151816009015561014082015181600a015561016082015181600b015561018082015181600c01556101a082015181600d01556101c082015181600e015590505060096000815480929190600101919050555060606040805190810160405280600e81526020017f53616d706c652050617065722033000000000000000000000000000000000000815250905060606020604051908101604052806000815250905060606040805190810160405280600581526020017f616e696d6500000000000000000000000000000000000000000000000000000081525081600081518110151561238857fe5b906020019060200201819052506040805190810160405280600d81526020017f64656570206c6561726e696e67000000000000000000000000000000000000008152508160018151811015156123da57fe5b9060200190602002018190525060606040805190810160405280601181526020017f4a656e2048752c20537573616e204c696e000000000000000000000000000000815250905060008090506101e0604051908101604052806009548152602001858152602001868152602001848152602001600060405190808252806020026020018201604052801561248257816020015b606081526020019060019003908161246d5790505b5081526020013373ffffffffffffffffffffffffffffffffffffffff168152602001838152602001828152602001600081526020016000815260200160008152602001600081526020016000815260200160008152602001428152506002600060038152602001908152602001600020600082015181600001556020820151816001019080519060200190612518929190612d83565b506040820151816002019080519060200190612535929190612d83565b506060820151816003019080519060200190612552929190612e03565b50608082015181600401908051906020019061256f929190612e03565b5060a08201518160050160006101000a81548173ffffffffffffffffffffffffffffffffffffffff021916908373ffffffffffffffffffffffffffffffffffffffff16021790555060c08201518160060190805190602001906125d3929190612d83565b5060e082015181600701556101008201518160080155610120820151816009015561014082015181600a015561016082015181600b015561018082015181600c01556101a082015181600d01556101c082015181600e015590505060096000815480929190600101919050555060019f5050505050505050505050505050505090565b6060600260008381526020019081526020016000206006018054600181600116156101000203166002900480601f0160208091040260200160405190810160405280929190818152602001828054600181600116156101000203166002900480156127025780601f106126d757610100808354040283529160200191612702565b820191906000526020600020905b8154815290600101906020018083116126e557829003601f168201915b50505050509050919050565b606060026000838152602001908152602001600020600401805480602002602001604051908101604052809291908181526020016000905b82821015612802578382906000526020600020018054600181600116156101000203166002900480601f0160208091040260200160405190810160405280929190818152602001828054600181600116156101000203166002900480156127ee5780601f106127c3576101008083540402835291602001916127ee565b820191906000526020600020905b8154815290600101906020018083116127d157829003601f168201915b505050505081526020019060010190612746565b505050509050919050565b6000600954905090565b60006009548210151561282657fe5b6000600260008481526020019081526020016000206009015414151561284857fe5b600454600660008481526020019081526020016000208054905010151561286b57fe5b600360003373ffffffffffffffffffffffffffffffffffffffff1673ffffffffffffffffffffffffffffffffffffffff16815260200190815260200160002060009054906101000a900460ff1615156128c057fe5b6060600560003373ffffffffffffffffffffffffffffffffffffffff1673ffffffffffffffffffffffffffffffffffffffff168152602001908152602001600020805480602002602001604051908101604052809291908181526020016000905b828210156129dd578382906000526020600020018054600181600116156101000203166002900480601f0160208091040260200160405190810160405280929190818152602001828054600181600116156101000203166002900480156129c95780601f1061299e576101008083540402835291602001916129c9565b820191906000526020600020905b8154815290600101906020018083116129ac57829003601f168201915b505050505081526020019060010190612921565b505050509050606060026000858152602001908152602001600020600301805480602002602001604051908101604052809291908181526020016000905b82821015612ad7578382906000526020600020018054600181600116156101000203166002900480601f016020809104026020016040519081016040528092919081815260200182805460018160011615610100020316600290048015612ac35780601f10612a9857610100808354040283529160200191612ac3565b820191906000526020600020905b815481529060010190602001808311612aa657829003601f168201915b505050505081526020019060010190612a1b565b50505050905060008090505b8251811015612bdd5760008090505b8251811015612bcf57600115612bc257600660008781526020019081526020016000203390806001815401808255809150509060018203906000526020600020016000909192909190916101000a81548173ffffffffffffffffffffffffffffffffffffffff021916908373ffffffffffffffffffffffffffffffffffffffff1602179055505060045460066000888152602001908152602001600020805490501415612bb5576002806000888152602001908152602001600020600901819055505b6001945050505050612be5565b8180600101925050612af2565b508080600101915050612ae3565b506000925050505b919050565b6000612bf583610efb565b1515612bfd57fe5b60006002600085815260200190815260200160002060090154141515612c1f57fe5b60018210151515612c2c57fe5b6000809054906101000a900473ffffffffffffffffffffffffffffffffffffffff1673ffffffffffffffffffffffffffffffffffffffff16630cff8e8f3385856040518463ffffffff167c0100000000000000000000000000000000000000000000000000000000028152600401612ca693929190613587565b602060405180830381600087803b158015612cc057600080fd5b505af1158015612cd4573d6000803e3d6000fd5b505050506040513d601f19601f82011682018060405250612cf8919081019061317f565b905092915050565b828054828255906000526020600020908101928215612d4f579160200282015b82811115612d4e578251829080519060200190612d3e929190612d83565b5091602001919060010190612d20565b5b509050612d5c9190612ee3565b5090565b608060405190810160405280600490602082028038833980820191505090505090565b828054600181600116156101000203166002900490600052602060002090601f016020900481019282601f10612dc457805160ff1916838001178555612df2565b82800160010185558215612df2579182015b82811115612df1578251825591602001919060010190612dd6565b5b509050612dff9190612f0f565b5090565b828054828255906000526020600020908101928215612e52579160200282015b82811115612e51578251829080519060200190612e41929190612d83565b5091602001919060010190612e23565b5b509050612e5f9190612ee3565b5090565b828054600181600116156101000203166002900490600052602060002090601f016020900481019282601f10612ea457805160ff1916838001178555612ed2565b82800160010185558215612ed2579182015b82811115612ed1578251825591602001919060010190612eb6565b5b509050612edf9190612f0f565b5090565b612f0c91905b80821115612f085760008181612eff9190612f34565b50600101612ee9565b5090565b90565b612f3191905b80821115612f2d576000816000905550600101612f15565b5090565b90565b50805460018160011615610100020316600290046000825580601f10612f5a5750612f79565b601f016020900490600052602060002090810190612f789190612f0f565b5b50565b6000612f888235613883565b905092915050565b600082601f8301121515612fa357600080fd5b8135612fb6612fb182613739565b61370c565b9150818183526020840193506020810190508360005b83811015612ffc5781358601612fe2888261302e565b845260208401935060208301925050600181019050612fcc565b5050505092915050565b60006130128235613895565b905092915050565b60006130268251613895565b905092915050565b600082601f830112151561304157600080fd5b813561305461304f82613761565b61370c565b9150808252602083016020830185838301111561307057600080fd5b61307b8382846138e1565b50505092915050565b600082601f830112151561309757600080fd5b81356130aa6130a58261378d565b61370c565b915080825260208301602083018583830111156130c657600080fd5b6130d18382846138e1565b50505092915050565b60006130e682356138a1565b905092915050565b60006130fa82516138a1565b905092915050565b60006020828403121561311457600080fd5b600061312284828501612f7c565b91505092915050565b6000806040838503121561313e57600080fd5b600061314c85828601612f7c565b925050602083013567ffffffffffffffff81111561316957600080fd5b61317585828601612f90565b9150509250929050565b60006020828403121561319157600080fd5b600061319f8482850161301a565b91505092915050565b600080600080600060a086880312156131c057600080fd5b600086013567ffffffffffffffff8111156131da57600080fd5b6131e688828901613084565b955050602086013567ffffffffffffffff81111561320357600080fd5b61320f88828901613084565b945050604086013567ffffffffffffffff81111561322c57600080fd5b61323888828901612f90565b935050606086013567ffffffffffffffff81111561325557600080fd5b61326188828901613084565b9250506080613272888289016130da565b9150509295509295909350565b60006020828403121561329157600080fd5b600061329f848285016130da565b91505092915050565b6000602082840312156132ba57600080fd5b60006132c8848285016130ee565b91505092915050565b600080604083850312156132e457600080fd5b60006132f2858286016130da565b925050602061330385828601613006565b9150509250929050565b6000806040838503121561332057600080fd5b600061332e858286016130da565b925050602083013567ffffffffffffffff81111561334b57600080fd5b61335785828601613084565b9150509250929050565b60008060006060848603121561337657600080fd5b6000613384868287016130da565b9350506020613395868287016130da565b92505060406133a6868287016130da565b9150509250925092565b6133b9816138ab565b82525050565b6133c88161383b565b82525050565b60006133d9826137dd565b8084526020840193506133eb836137b9565b60005b8281101561341d576134018683516133bf565b61340a82613814565b91506020860195506001810190506133ee565b50849250505092915050565b6000613434826137e8565b8084526020840193508360208202850161344d856137c6565b60005b84811015613486578383038852613468838351613527565b925061347382613821565b9150602088019750600181019050613450565b508196508694505050505092915050565b6134a0816137f3565b6134a9826137d3565b60005b828110156134db576134bf85835161355d565b6134c88261382e565b91506020850194506001810190506134ac565b5050505050565b6134eb8161384d565b82525050565b60006134fc82613809565b8084526135108160208601602086016138f0565b61351981613923565b602085010191505092915050565b6000613532826137fe565b8084526135468160208601602086016138f0565b61354f81613923565b602085010191505092915050565b61356681613879565b82525050565b600060208201905061358160008301846133bf565b92915050565b600060608201905061359c60008301866133b0565b6135a9602083018561355d565b6135b6604083018461355d565b949350505050565b600060208201905081810360008301526135d881846133ce565b905092915050565b600060208201905081810360008301526135fa8184613429565b905092915050565b60006080820190506136176000830184613497565b92915050565b600060208201905061363260008301846134e2565b92915050565b6000602082019050818103600083015261365281846134f1565b905092915050565b600060208201905061366f600083018461355d565b92915050565b600060408201905061368a600083018561355d565b61369760208301846133b0565b9392505050565b60006060820190506136b3600083018661355d565b6136c060208301856133b0565b6136cd604083018461355d565b949350505050565b60006060820190506136ea600083018661355d565b6136f760208301856133bf565b613704604083018461355d565b949350505050565b6000604051905081810181811067ffffffffffffffff8211171561372f57600080fd5b8060405250919050565b600067ffffffffffffffff82111561375057600080fd5b602082029050602081019050919050565b600067ffffffffffffffff82111561377857600080fd5b601f19601f8301169050602081019050919050565b600067ffffffffffffffff8211156137a457600080fd5b601f19601f8301169050602081019050919050565b6000602082019050919050565b6000602082019050919050565b6000819050919050565b600081519050919050565b600081519050919050565b600060049050919050565b600081519050919050565b600081519050919050565b6000602082019050919050565b6000602082019050919050565b6000602082019050919050565b600061384682613859565b9050919050565b60008115159050919050565b600073ffffffffffffffffffffffffffffffffffffffff82169050919050565b6000819050919050565b600061388e82613859565b9050919050565b60008115159050919050565b6000819050919050565b60006138b6826138bd565b9050919050565b60006138c8826138cf565b9050919050565b60006138da82613859565b9050919050565b82818337600083830152505050565b60005b8381101561390e5780820151818401526020810190506138f3565b8381111561391d576000848401525b50505050565b6000601f19601f830116905091905056fea265627a7a723058205d96516d9fbcf5d80d0bdafc5f08114e4ab0c909024daf40c232d594ec2378e66c6578706572696d656e74616cf50037",
  "source": "pragma solidity 0.5.0;\npragma experimental ABIEncoderV2;\nimport \"./CAJCoin.sol\";\n\ncontract Review {\n\n    //token contract\n    CAJCoin tokenContract;\n\n    address public devAddress;\n\n    //Paper struct\n    struct Paper {\n        //id of the paper\n        uint256 id;\n        //file url of paper\n        string location;\n        //title of paper\n        string title;\n        //paper tags\n        string[] tags;\n        //comments\n        string[] comments;\n        // addr uploader of paper\n        address author;\n        //name of author & creds\n        string authorNameCreds;\n        //id of previous paper if this is a revision\n        uint256 prevId;\n        //id of nect paper if this is an old copy\n        uint256 nextId;\n        //state of the paper,\n        //(0 unreviewed, 1 ready for review, 2 under review (only professionals can review), 3 published, 4 old version of a different paper, 5 for dead)\n        uint state;\n        //vote related stuff\n        uint256 userVotes;\n        uint256 userScore;\n        uint reviewerVotes;\n        uint reviewerScore;\n        //date\n        uint256 date;\n\n    }\n\n    // paper ids to paper objects\n    mapping(uint256 => Paper) private papers;\n\n    //mapping of addresses to booleans representing wether an address is \"verified\"\n    mapping(address => bool) private verifiedUsers;\n\n    //constant; max number of professional reviewers until paper is pushed to being reviewed and published\n    uint256 NUMBER_OF_REVIEWERS = 10;\n\n    //mapping of an address to the topics the verified user is allowed to review\n    mapping(address => string[]) allowedReviewerTopics;\n\n    //mapping of reviewers currently reviewing a paper\n    mapping(uint256 => address[]) private reviewersForPaper;\n\n    //track if reviewers and users have alreayd voted on a paper\n    mapping(uint256 => mapping(address => bool)) private reviewerHasVoted;\n    mapping(uint256 => mapping(address => bool)) private userHasVoted;\n\n    //next id to be assigned\n    uint256 private currentId;\n\n\n    // constructor\n    constructor() public {//(uint threshold) public {\n        // 0 is used as a null value for ids\n        currentId = 1;\n        devAddress = msg.sender;\n        verifiedUsers[devAddress] = true;\n        /* string memory _title = \"Sample Paper 1\";\n        string memory _location = \"\";\n        string[] memory _tags;\n        _tags[0] = \"anime\";\n        _tags[1] = \"deep learning\";\n        string memory _authorNameCreds = \"Joe Broder\";\n        uint256 _prevId = 0;\n        //papers[1] = Paper(currentId, _location, _title, _tags, new string[](0), msg.sender, _authorNameCreds, _prevId, 0, 0, 0, 0, 0, 0, block.timestamp);\n        verifiedUsers[devAddress] = true;\n        currentId++;\n\n        string memory yeet1 = \"Sample Paper 2\";\n        string memory yeet2 = \"\";\n        string[] memory t;\n        t[0] = \"anime\";\n        t[1] = \"deep learning\";\n        string memory yeet3 = \"Olivia Lee\";\n        uint256 yeet4 = 0;\n        //papers[2] = Paper(currentId, yeet2, yeet1, t, new string[](0), msg.sender, yeet3, yeet4, 0, 0, 0, 0, 0, 0, block.timestamp);\n        currentId++;\n\n       string memory one = \"Sample Paper 3\";\n       string memory two = \"\";\n       string[] memory more;\n       more[0] = \"anime\";\n       more[1] = \"deep learning\";\n       string memory three = \"Jen Hu, Susan Lin\";\n       uint256 four = 0;\n       //papers[3] = Paper(currentId, two, one, more, new string[](0), msg.sender, three, four, 0, 0, 0, 0, 0, 0, block.timestamp);\n       currentId++; */\n\n    }\n\n    function sample () public returns (bool) {\n        string memory _title = \"Sample Paper 1\";\n        string memory _location = \"\";\n        string[] memory _tags;\n        _tags[0] = \"anime\";\n        _tags[1] = \"deep learning\";\n        string memory _authorNameCreds = \"Joe Broder\";\n        uint256 _prevId = 0;\n        papers[1] = Paper(currentId, _location, _title, _tags, new string[](0), msg.sender, _authorNameCreds, _prevId, 0, 0, 0, 0, 0, 0, block.timestamp);\n        currentId++;\n\n        string memory yeet1 = \"Sample Paper 2\";\n        string memory yeet2 = \"\";\n        string[] memory t;\n        t[0] = \"anime\";\n        t[1] = \"deep learning\";\n        string memory yeet3 = \"Olivia Lee\";\n        uint256 yeet4 = 0;\n        papers[2] = Paper(currentId, yeet2, yeet1, t, new string[](0), msg.sender, yeet3, yeet4, 0, 0, 0, 0, 0, 0, block.timestamp);\n        currentId++;\n\n       string memory one = \"Sample Paper 3\";\n       string memory two = \"\";\n       string[] memory more;\n       more[0] = \"anime\";\n       more[1] = \"deep learning\";\n       string memory three = \"Jen Hu, Susan Lin\";\n       uint256 four = 0;\n       papers[3] = Paper(currentId, two, one, more, new string[](0), msg.sender, three, four, 0, 0, 0, 0, 0, 0, block.timestamp);\n       currentId++;\n       return true;\n    }\n\n\n    //getter for current ID; actually the next id to be assigned\n    function getCurrentID() public returns (uint256 id) {\n        return currentId;\n    }\n\n    //check if a paper exists\n    function paperExists(uint256 _id) public returns (bool exists) {\n        return _id < getCurrentID() && _id > 0;\n    }\n\n    // add a new paper with the specified fields\n    function addPaper(string memory _title, string memory _location, string[] memory _tags, string memory _authorNameCreds, uint256 _prevID) public returns (bool success) {\n        if (_prevID == 0 ||\n            (msg.sender == papers[_prevID].author) && papers[_prevID].state < 3) {\n                papers[currentId] = Paper(currentId, _location, _title, _tags, new string[](0), msg.sender, _authorNameCreds, _prevID, 0, 0, 0, 0, 0, 0, block.timestamp);\n                if (_prevID != 0) {\n                    papers[_prevID].nextId = currentId;\n                    papers[currentId].state = papers[_prevID].state;\n                    papers[_prevID].state = 4;\n                }\n                currentId++;\n                return true;\n        }\n        return false;\n    }\n\n    //getter methods for papers\n    function getPaperTitle(uint256 _id) public returns (string memory) {\n        string memory title = papers[_id].title;\n        return title;\n    }\n\n    function getPaperLocation(uint256 _id) public returns (string memory location) {\n        location = papers[_id].location;\n    }\n\n    function getPaperTags(uint256 _id) public returns (string[] memory tags) {\n        tags = papers[_id].tags;\n    }\n\n    function getPaperComments(uint256 _id) public returns (string[] memory comments) {\n        comments = papers[_id].comments;\n    }\n\n    function getPaperAuthor(uint256 _id) public returns (address author) {\n        author = papers[_id].author;\n    }\n\n    function getPaperAuthorName(uint256 _id) public returns (string memory author) {\n        author = papers[_id].authorNameCreds;\n    }\n\n    function getPaperPrevId(uint256 _id) public returns (uint256 prevId) {\n        prevId = papers[_id].prevId;\n    }\n\n    function getPaperNextId(uint256 _id) public returns (uint256 nextId) {\n        nextId = papers[_id].nextId;\n    }\n\n    function getPaperState(uint256 _id) public returns (uint256 state) {\n        state = papers[_id].state;\n    }\n\n    function getPaperVotes(uint256 _id) public returns (uint256[4] memory votes) {\n        votes = [papers[_id].userScore, papers[_id].userVotes, papers[_id].reviewerScore, papers[_id].reviewerVotes];\n    }\n\n    function getPaperDate(uint256 _id) public returns (uint256 date) {\n        date = papers[_id].date;\n    }\n\n    //user signs up to review a paper\n    function addReviewerForPaper(uint256 _id) public returns (bool success) {\n        //first check if the paper can take more reviewers\n        assert(_id < currentId);\n        assert(papers[_id].state == 0);\n        assert(reviewersForPaper[_id].length < NUMBER_OF_REVIEWERS);\n        //check if user is a reviewer\n        assert(verifiedUsers[msg.sender]);\n        //check for tags, and if they match, add the user and return true\n        //if this would reach the limit, change the state of the paper as well\n        string[] memory topics = allowedReviewerTopics[msg.sender];\n        string[] memory tags = papers[_id].tags;\n        for (uint i = 0; i < topics.length; i++) {\n            for (uint j = 0; j < tags.length; i++) {\n                if (true) {\n                    reviewersForPaper[_id].push(msg.sender);\n                    if (reviewersForPaper[_id].length == NUMBER_OF_REVIEWERS) {\n                        papers[_id].state = 2; //now, only professionals can review this paper\n                    }\n                    return true;\n                }\n            }\n        }\n        return false;\n    }\n\n    //comment on papers\n    function addComment(uint256 _id, string memory _comment) public returns (bool success) {\n        assert(bytes(_comment).length > 10);\n        if (papers[_id].state < 3) {\n            //if the paper is under review, only reviewers can comment\n            if(papers[_id].state == 2) {\n                address[] memory reviewers = reviewersForPaper[_id];\n                bool x = false;\n                for (uint i = 0; i < reviewers.length; i++) {\n                    if (msg.sender == reviewers[i]) {\n                        x = true;\n                        break;\n                    }\n                }\n\n                if (x) {\n                    papers[_id].comments.push(_comment);\n                }\n                return x;\n            } else {\n                papers[_id].comments.push(_comment);\n                return true;\n            }\n        }\n        return false;\n    }\n\n    //get reviewers for a paper\n    function getReviewersForPaper(uint256 _id) public returns (address[] memory reviewers) {\n        reviewers = reviewersForPaper[_id];\n    }\n\n    //get topics for reviewer\n    function getTopicsForReviewer(address _reviewer) public returns (string[] memory topics) {\n        topics = allowedReviewerTopics[_reviewer];\n    }\n\n    //verify a user, only the dev account can do this because we onboard them\n    function addVerifiedUser(address _user) public returns (bool success) {\n        if (msg.sender == devAddress) {\n            verifiedUsers[_user] = true;\n            return true;\n        }\n        return false;\n    }\n\n    // reset the topics for a reviewer, only dev can do this\n    function addTopicsForReviewer(address _user, string[] memory _topics) public returns (bool success) {\n        if (msg.sender == devAddress) {\n            allowedReviewerTopics[_user] = _topics;\n            return true;\n        }\n        return false;\n    }\n\n    //reviewer votes on a paper\n    function reviewerVoteOnPaper(uint256 _id, bool vote) public returns (bool success) {\n        assert(verifiedUsers[msg.sender]);\n        assert(reviewerHasVoted[_id][msg.sender] == false);\n        address[] storage reviewers = reviewersForPaper[_id];\n        bool x = false;\n        for (uint i = 0; i < reviewers.length; i++) {\n            if (msg.sender == reviewers[i]) {\n                x = true;\n                break;\n            }\n        }\n\n        if (x) {\n            papers[_id].reviewerVotes += 1;\n            if (vote) {\n                papers[_id].reviewerScore += 1;\n            }\n\n            //check if paper is to be published or killed yet and distribute tokens\n            if(papers[_id].reviewerScore >= 10 ||\n                (papers[_id].reviewerScore < 10 && papers[_id].reviewerVotes == NUMBER_OF_REVIEWERS)) {\n                if (papers[_id].reviewerScore >= 10) {\n                    //publish\n                    papers[_id].state = 3;\n                } else {\n                    //kill\n                    papers[_id].state = 5;\n                }\n                //distribute tokens\n                uint256 amountToDistriute = getNumTokens(_id) / NUMBER_OF_REVIEWERS;\n                for (uint i = 0; i < reviewers.length; i++) {\n                    x = tokenContract.collectTokens(_id, reviewers[i], amountToDistriute);\n                }\n            }\n        }\n        return x;\n    }\n\n    // vote function updates given paper (passed in id) with the vote associated with the msg.sender\n    // method guards against double voting and staying within voting range [0, 10]\n    function userVoteOnPaper(uint256 _id, uint256 _vote, uint256 _amount) public returns (bool success) {\n        assert(_id < currentId);\n        assert(_vote > 0 && _vote <= 10);\n        assert(!userHasVoted[_id][msg.sender]);\n        if (_amount < 1) {\n            return false;\n        }\n        stakeTokens(_id, _amount);\n        papers[_id].userScore += _vote;\n        papers[_id].userVotes += 1;\n        return true;\n    }\n\n    // stake tokens onto an existing paper (staked token value contributes to review process)\n    function stakeTokens(uint256 _id, uint256 _amount) private returns (bool success) {\n        assert(paperExists(_id));\n        assert(papers[_id].state == 0);\n        assert(_amount >= 1);\n        success = tokenContract.stakeTokens(msg.sender, _id, _amount);\n\n    }\n\n    // revokes all of a user's tokens from an old revision of a paper\n    function revokeTokens(uint256 _id) public returns (bool success) {\n        require(papers[_id].state == 4); //old draft or unreviewed\n        uint256 amount = tokenContract.tokensStakedByUser(_id, msg.sender);\n        return tokenContract.collectTokens(_id, msg.sender, amount);\n    }\n\n    //get current number of tokens for a paper\n    function getNumTokens(uint256 _id) public returns (uint256) {\n        return tokenContract.paperBalance(_id);\n    }\n\n    function setContract(address addr) public {\n        assert(msg.sender == devAddress);\n        tokenContract = CAJCoin(addr);\n    }\n\n}\n",
  "sourcePath": "/Users/dylantran/Desktop/curatedacademicjournal/contracts/Review.sol",
  "compiler": {
    "name": "solc",
    "version": "0.5.0+commit.1d4f565a.Emscripten.clang"
  },
  "schemaVersion": "3.0.6",
  "updatedAt": "2019-05-07T00:23:33.367Z",
  "devdoc": {
    "methods": {}
  },
  "userdoc": {
    "methods": {}
  }
}