{
  "contractName": "Review",
  "abi": [
    {
      "constant": true,
      "inputs": [],
      "name": "devAddress",
      "outputs": [
        {
          "name": "",
          "type": "address"
        }
      ],
      "payable": false,
      "stateMutability": "view",
      "type": "function",
      "signature": "0x3ad10ef6"
    },
    {
      "inputs": [],
      "payable": false,
      "stateMutability": "nonpayable",
      "type": "constructor",
      "signature": "constructor"
    },
    {
      "constant": false,
      "inputs": [],
      "name": "sample",
      "outputs": [
        {
          "name": "",
          "type": "bool"
        }
      ],
      "payable": false,
      "stateMutability": "nonpayable",
      "type": "function",
      "signature": "0xc9482a5d"
    },
    {
      "constant": false,
      "inputs": [],
      "name": "getCurrentID",
      "outputs": [
        {
          "name": "id",
          "type": "uint256"
        }
      ],
      "payable": false,
      "stateMutability": "nonpayable",
      "type": "function",
      "signature": "0xef1e7df3"
    },
    {
      "constant": false,
      "inputs": [
        {
          "name": "_id",
          "type": "uint256"
        }
      ],
      "name": "paperExists",
      "outputs": [
        {
          "name": "exists",
          "type": "bool"
        }
      ],
      "payable": false,
      "stateMutability": "nonpayable",
      "type": "function",
      "signature": "0x7d644de6"
    },
    {
      "constant": false,
      "inputs": [
        {
          "name": "_title",
          "type": "string"
        },
        {
          "name": "_location",
          "type": "string"
        },
        {
          "name": "_tags",
          "type": "string[]"
        },
        {
          "name": "_authorNameCreds",
          "type": "string"
        },
        {
          "name": "_prevID",
          "type": "uint256"
        }
      ],
      "name": "addPaper",
      "outputs": [
        {
          "name": "success",
          "type": "bool"
        }
      ],
      "payable": false,
      "stateMutability": "nonpayable",
      "type": "function",
      "signature": "0xa23f2e29"
    },
    {
      "constant": false,
      "inputs": [
        {
          "name": "_id",
          "type": "uint256"
        }
      ],
      "name": "getPaperTitle",
      "outputs": [
        {
          "name": "",
          "type": "string"
        }
      ],
      "payable": false,
      "stateMutability": "nonpayable",
      "type": "function",
      "signature": "0x0642e896"
    },
    {
      "constant": false,
      "inputs": [
        {
          "name": "_id",
          "type": "uint256"
        }
      ],
      "name": "getPaperLocation",
      "outputs": [
        {
          "name": "location",
          "type": "string"
        }
      ],
      "payable": false,
      "stateMutability": "nonpayable",
      "type": "function",
      "signature": "0x76698442"
    },
    {
      "constant": false,
      "inputs": [
        {
          "name": "_id",
          "type": "uint256"
        }
      ],
      "name": "getPaperTags",
      "outputs": [
        {
          "name": "tags",
          "type": "string[]"
        }
      ],
      "payable": false,
      "stateMutability": "nonpayable",
      "type": "function",
      "signature": "0x64ce598d"
    },
    {
      "constant": false,
      "inputs": [
        {
          "name": "_id",
          "type": "uint256"
        }
      ],
      "name": "getPaperComments",
      "outputs": [
        {
          "name": "comments",
          "type": "string[]"
        }
      ],
      "payable": false,
      "stateMutability": "nonpayable",
      "type": "function",
      "signature": "0xdc39a441"
    },
    {
      "constant": false,
      "inputs": [
        {
          "name": "_id",
          "type": "uint256"
        }
      ],
      "name": "getPaperAuthor",
      "outputs": [
        {
          "name": "author",
          "type": "address"
        }
      ],
      "payable": false,
      "stateMutability": "nonpayable",
      "type": "function",
      "signature": "0x9b9c803d"
    },
    {
      "constant": false,
      "inputs": [
        {
          "name": "_id",
          "type": "uint256"
        }
      ],
      "name": "getPaperAuthorName",
      "outputs": [
        {
          "name": "author",
          "type": "string"
        }
      ],
      "payable": false,
      "stateMutability": "nonpayable",
      "type": "function",
      "signature": "0xd931e602"
    },
    {
      "constant": false,
      "inputs": [
        {
          "name": "_id",
          "type": "uint256"
        }
      ],
      "name": "getPaperPrevId",
      "outputs": [
        {
          "name": "prevId",
          "type": "uint256"
        }
      ],
      "payable": false,
      "stateMutability": "nonpayable",
      "type": "function",
      "signature": "0x532ca62b"
    },
    {
      "constant": false,
      "inputs": [
        {
          "name": "_id",
          "type": "uint256"
        }
      ],
      "name": "getPaperNextId",
      "outputs": [
        {
          "name": "nextId",
          "type": "uint256"
        }
      ],
      "payable": false,
      "stateMutability": "nonpayable",
      "type": "function",
      "signature": "0x0fcef437"
    },
    {
      "constant": false,
      "inputs": [
        {
          "name": "_id",
          "type": "uint256"
        }
      ],
      "name": "getPaperState",
      "outputs": [
        {
          "name": "state",
          "type": "uint256"
        }
      ],
      "payable": false,
      "stateMutability": "nonpayable",
      "type": "function",
      "signature": "0x2ec3a85e"
    },
    {
      "constant": false,
      "inputs": [
        {
          "name": "_id",
          "type": "uint256"
        }
      ],
      "name": "getPaperVotes",
      "outputs": [
        {
          "name": "votes",
          "type": "uint256[4]"
        }
      ],
      "payable": false,
      "stateMutability": "nonpayable",
      "type": "function",
      "signature": "0x5cbdfd61"
    },
    {
      "constant": false,
      "inputs": [
        {
          "name": "_id",
          "type": "uint256"
        }
      ],
      "name": "getPaperDate",
      "outputs": [
        {
          "name": "date",
          "type": "uint256"
        }
      ],
      "payable": false,
      "stateMutability": "nonpayable",
      "type": "function",
      "signature": "0x7186008f"
    },
    {
      "constant": false,
      "inputs": [
        {
          "name": "_id",
          "type": "uint256"
        }
      ],
      "name": "addReviewerForPaper",
      "outputs": [
        {
          "name": "success",
          "type": "bool"
        }
      ],
      "payable": false,
      "stateMutability": "nonpayable",
      "type": "function",
      "signature": "0xf641ba4b"
    },
    {
      "constant": false,
      "inputs": [
        {
          "name": "_id",
          "type": "uint256"
        },
        {
          "name": "_comment",
          "type": "string"
        }
      ],
      "name": "addComment",
      "outputs": [
        {
          "name": "success",
          "type": "bool"
        }
      ],
      "payable": false,
      "stateMutability": "nonpayable",
      "type": "function",
      "signature": "0xaa7e5683"
    },
    {
      "constant": false,
      "inputs": [
        {
          "name": "_id",
          "type": "uint256"
        }
      ],
      "name": "getReviewersForPaper",
      "outputs": [
        {
          "name": "reviewers",
          "type": "address[]"
        }
      ],
      "payable": false,
      "stateMutability": "nonpayable",
      "type": "function",
      "signature": "0x32f566a3"
    },
    {
      "constant": false,
      "inputs": [
        {
          "name": "_reviewer",
          "type": "address"
        }
      ],
      "name": "getTopicsForReviewer",
      "outputs": [
        {
          "name": "topics",
          "type": "string[]"
        }
      ],
      "payable": false,
      "stateMutability": "nonpayable",
      "type": "function",
      "signature": "0xc651c66b"
    },
    {
      "constant": false,
      "inputs": [
        {
          "name": "_user",
          "type": "address"
        }
      ],
      "name": "addVerifiedUser",
      "outputs": [
        {
          "name": "success",
          "type": "bool"
        }
      ],
      "payable": false,
      "stateMutability": "nonpayable",
      "type": "function",
      "signature": "0x88e3c5d6"
    },
    {
      "constant": false,
      "inputs": [
        {
          "name": "_user",
          "type": "address"
        },
        {
          "name": "_topics",
          "type": "string[]"
        }
      ],
      "name": "addTopicsForReviewer",
      "outputs": [
        {
          "name": "success",
          "type": "bool"
        }
      ],
      "payable": false,
      "stateMutability": "nonpayable",
      "type": "function",
      "signature": "0x49e5124d"
    },
    {
      "constant": false,
      "inputs": [
        {
          "name": "_id",
          "type": "uint256"
        },
        {
          "name": "vote",
          "type": "bool"
        }
      ],
      "name": "reviewerVoteOnPaper",
      "outputs": [
        {
          "name": "success",
          "type": "bool"
        }
      ],
      "payable": false,
      "stateMutability": "nonpayable",
      "type": "function",
      "signature": "0x9ddd6049"
    },
    {
      "constant": false,
      "inputs": [
        {
          "name": "_id",
          "type": "uint256"
        },
        {
          "name": "_vote",
          "type": "uint256"
        },
        {
          "name": "_amount",
          "type": "uint256"
        }
      ],
      "name": "userVoteOnPaper",
      "outputs": [
        {
          "name": "success",
          "type": "bool"
        }
      ],
      "payable": false,
      "stateMutability": "nonpayable",
      "type": "function",
      "signature": "0x662e509f"
    },
    {
      "constant": false,
      "inputs": [
        {
          "name": "_id",
          "type": "uint256"
        }
      ],
      "name": "revokeTokens",
      "outputs": [
        {
          "name": "success",
          "type": "bool"
        }
      ],
      "payable": false,
      "stateMutability": "nonpayable",
      "type": "function",
      "signature": "0x8bff9c93"
    },
    {
      "constant": false,
      "inputs": [
        {
          "name": "_id",
          "type": "uint256"
        }
      ],
      "name": "getNumTokens",
      "outputs": [
        {
          "name": "",
          "type": "uint256"
        }
      ],
      "payable": false,
      "stateMutability": "nonpayable",
      "type": "function",
      "signature": "0x2119249f"
    },
    {
      "constant": false,
      "inputs": [
        {
          "name": "addr",
          "type": "address"
        }
      ],
      "name": "setContract",
      "outputs": [],
      "payable": false,
      "stateMutability": "nonpayable",
      "type": "function",
      "signature": "0x75f890ab"
    }
  ],
  "bytecode": "0x6080604052600a60045534801561001557600080fd5b50600160098190555033600160006101000a81548173ffffffffffffffffffffffffffffffffffffffff021916908373ffffffffffffffffffffffffffffffffffffffff160217905550600160036000600160009054906101000a900473ffffffffffffffffffffffffffffffffffffffff1673ffffffffffffffffffffffffffffffffffffffff1673ffffffffffffffffffffffffffffffffffffffff16815260200190815260200160002060006101000a81548160ff021916908315150217905550613acb806100e86000396000f3fe60806040526004361061015f576000357c0100000000000000000000000000000000000000000000000000000000900463ffffffff1680630642e896146101645780630fcef437146101a15780632119249f146101de5780632ec3a85e1461021b57806332f566a3146102585780633ad10ef61461029557806349e5124d146102c0578063532ca62b146102fd5780635cbdfd611461033a57806364ce598d14610377578063662e509f146103b45780637186008f146103f157806375f890ab1461042e57806376698442146104575780637d644de61461049457806388e3c5d6146104d15780638bff9c931461050e5780639b9c803d1461054b5780639ddd604914610588578063a23f2e29146105c5578063aa7e568314610602578063c651c66b1461063f578063c9482a5d1461067c578063d931e602146106a7578063dc39a441146106e4578063ef1e7df314610721578063f641ba4b1461074c575b600080fd5b34801561017057600080fd5b5061018b600480360361018691908101906133dc565b610789565b6040516101989190613795565b60405180910390f35b3480156101ad57600080fd5b506101c860048036036101c391908101906133dc565b610846565b6040516101d591906137b7565b60405180910390f35b3480156101ea57600080fd5b50610205600480360361020091908101906133dc565b610866565b60405161021291906137b7565b60405180910390f35b34801561022757600080fd5b50610242600480360361023d91908101906133dc565b610937565b60405161024f91906137b7565b60405180910390f35b34801561026457600080fd5b5061027f600480360361027a91908101906133dc565b610957565b60405161028c919061371b565b60405180910390f35b3480156102a157600080fd5b506102aa6109f8565b6040516102b791906136c9565b60405180910390f35b3480156102cc57600080fd5b506102e760048036036102e29190810190613288565b610a1e565b6040516102f4919061377a565b60405180910390f35b34801561030957600080fd5b50610324600480360361031f91908101906133dc565b610ade565b60405161033191906137b7565b60405180910390f35b34801561034657600080fd5b50610361600480360361035c91908101906133dc565b610afe565b60405161036e919061375f565b60405180910390f35b34801561038357600080fd5b5061039e600480360361039991908101906133dc565b610b87565b6040516103ab919061373d565b60405180910390f35b3480156103c057600080fd5b506103db60048036036103d691908101906134be565b610c86565b6040516103e8919061377a565b60405180910390f35b3480156103fd57600080fd5b50610418600480360361041391908101906133dc565b610d87565b60405161042591906137b7565b60405180910390f35b34801561043a57600080fd5b506104556004803603610450919081019061325f565b610da7565b005b34801561046357600080fd5b5061047e600480360361047991908101906133dc565b610e43565b60405161048b9190613795565b60405180910390f35b3480156104a057600080fd5b506104bb60048036036104b691908101906133dc565b610efb565b6040516104c8919061377a565b60405180910390f35b3480156104dd57600080fd5b506104f860048036036104f3919081019061325f565b610f1a565b604051610505919061377a565b60405180910390f35b34801561051a57600080fd5b50610535600480360361053091908101906133dc565b610fdd565b604051610542919061377a565b60405180910390f35b34801561055757600080fd5b50610572600480360361056d91908101906133dc565b6111a6565b60405161057f91906136c9565b60405180910390f35b34801561059457600080fd5b506105af60048036036105aa919081019061342e565b6111e6565b6040516105bc919061377a565b60405180910390f35b3480156105d157600080fd5b506105ec60048036036105e79190810190613305565b6115c2565b6040516105f9919061377a565b60405180910390f35b34801561060e57600080fd5b506106296004803603610624919081019061346a565b611903565b604051610636919061377a565b60405180910390f35b34801561064b57600080fd5b506106666004803603610661919081019061325f565b611b2c565b604051610673919061373d565b60405180910390f35b34801561068857600080fd5b50610691611c54565b60405161069e919061377a565b60405180910390f35b3480156106b357600080fd5b506106ce60048036036106c991908101906133dc565b6127b3565b6040516106db9190613795565b60405180910390f35b3480156106f057600080fd5b5061070b600480360361070691908101906133dc565b61286b565b604051610718919061373d565b60405180910390f35b34801561072d57600080fd5b5061073661296a565b60405161074391906137b7565b60405180910390f35b34801561075857600080fd5b50610773600480360361076e91908101906133dc565b612974565b604051610780919061377a565b60405180910390f35b606080600260008481526020019081526020016000206002018054600181600116156101000203166002900480601f0160208091040260200160405190810160405280929190818152602001828054600181600116156101000203166002900480156108365780601f1061080b57610100808354040283529160200191610836565b820191906000526020600020905b81548152906001019060200180831161081957829003601f168201915b5050505050905080915050919050565b600060026000838152602001908152602001600020600801549050919050565b60008060009054906101000a900473ffffffffffffffffffffffffffffffffffffffff1673ffffffffffffffffffffffffffffffffffffffff166356bdaf3a836040518263ffffffff167c01000000000000000000000000000000000000000000000000000000000281526004016108de91906137b7565b602060405180830381600087803b1580156108f857600080fd5b505af115801561090c573d6000803e3d6000fd5b505050506040513d601f19601f820116820180604052506109309190810190613405565b9050919050565b600060026000838152602001908152602001600020600901549050919050565b6060600660008381526020019081526020016000208054806020026020016040519081016040528092919081815260200182805480156109ec57602002820191906000526020600020905b8160009054906101000a900473ffffffffffffffffffffffffffffffffffffffff1673ffffffffffffffffffffffffffffffffffffffff16815260200190600101908083116109a2575b50505050509050919050565b600160009054906101000a900473ffffffffffffffffffffffffffffffffffffffff1681565b6000600160009054906101000a900473ffffffffffffffffffffffffffffffffffffffff1673ffffffffffffffffffffffffffffffffffffffff163373ffffffffffffffffffffffffffffffffffffffff161415610ad35781600560008573ffffffffffffffffffffffffffffffffffffffff1673ffffffffffffffffffffffffffffffffffffffff1681526020019081526020016000209080519060200190610ac9929190612e5d565b5060019050610ad8565b600090505b92915050565b600060026000838152602001908152602001600020600701549050919050565b610b06612ebd565b60806040519081016040528060026000858152602001908152602001600020600b0154815260200160026000858152602001908152602001600020600a0154815260200160026000858152602001908152602001600020600d0154815260200160026000858152602001908152602001600020600c01548152509050919050565b606060026000838152602001908152602001600020600301805480602002602001604051908101604052809291908181526020016000905b82821015610c7b578382906000526020600020018054600181600116156101000203166002900480601f016020809104026020016040519081016040528092919081815260200182805460018160011615610100020316600290048015610c675780601f10610c3c57610100808354040283529160200191610c67565b820191906000526020600020905b815481529060010190602001808311610c4a57829003601f168201915b505050505081526020019060010190610bbf565b505050509050919050565b600060095484101515610c9557fe5b600083118015610ca65750600a8311155b1515610cae57fe5b6008600085815260200190815260200160002060003373ffffffffffffffffffffffffffffffffffffffff1673ffffffffffffffffffffffffffffffffffffffff16815260200190815260200160002060009054906101000a900460ff16151515610d1557fe5b6001821015610d275760009050610d80565b610d318483612d47565b508260026000868152602001908152602001600020600b0160008282540192505081905550600160026000868152602001908152602001600020600a0160008282540192505081905550600190505b9392505050565b600060026000838152602001908152602001600020600e01549050919050565b600160009054906101000a900473ffffffffffffffffffffffffffffffffffffffff1673ffffffffffffffffffffffffffffffffffffffff163373ffffffffffffffffffffffffffffffffffffffff16141515610e0057fe5b806000806101000a81548173ffffffffffffffffffffffffffffffffffffffff021916908373ffffffffffffffffffffffffffffffffffffffff16021790555050565b6060600260008381526020019081526020016000206001018054600181600116156101000203166002900480601f016020809104026020016040519081016040528092919081815260200182805460018160011615610100020316600290048015610eef5780601f10610ec457610100808354040283529160200191610eef565b820191906000526020600020905b815481529060010190602001808311610ed257829003601f168201915b50505050509050919050565b6000610f0561296a565b82108015610f135750600082115b9050919050565b6000600160009054906101000a900473ffffffffffffffffffffffffffffffffffffffff1673ffffffffffffffffffffffffffffffffffffffff163373ffffffffffffffffffffffffffffffffffffffff161415610fd3576001600360008473ffffffffffffffffffffffffffffffffffffffff1673ffffffffffffffffffffffffffffffffffffffff16815260200190815260200160002060006101000a81548160ff02191690831515021790555060019050610fd8565b600090505b919050565b60006004600260008481526020019081526020016000206009015414151561100457600080fd5b60008060009054906101000a900473ffffffffffffffffffffffffffffffffffffffff1673ffffffffffffffffffffffffffffffffffffffff16638282469d84336040518363ffffffff167c010000000000000000000000000000000000000000000000000000000002815260040161107e9291906137d2565b602060405180830381600087803b15801561109857600080fd5b505af11580156110ac573d6000803e3d6000fd5b505050506040513d601f19601f820116820180604052506110d09190810190613405565b90506000809054906101000a900473ffffffffffffffffffffffffffffffffffffffff1673ffffffffffffffffffffffffffffffffffffffff16630356613b8433846040518463ffffffff167c010000000000000000000000000000000000000000000000000000000002815260040161114c939291906137fb565b602060405180830381600087803b15801561116657600080fd5b505af115801561117a573d6000803e3d6000fd5b505050506040513d601f19601f8201168201806040525061119e91908101906132dc565b915050919050565b60006002600083815260200190815260200160002060050160009054906101000a900473ffffffffffffffffffffffffffffffffffffffff169050919050565b6000600360003373ffffffffffffffffffffffffffffffffffffffff1673ffffffffffffffffffffffffffffffffffffffff16815260200190815260200160002060009054906101000a900460ff16151561123d57fe5b600015156007600085815260200190815260200160002060003373ffffffffffffffffffffffffffffffffffffffff1673ffffffffffffffffffffffffffffffffffffffff16815260200190815260200160002060009054906101000a900460ff1615151415156112aa57fe5b6000600660008581526020019081526020016000209050600080905060008090505b828054905081101561135a5782818154811015156112e657fe5b9060005260206000200160009054906101000a900473ffffffffffffffffffffffffffffffffffffffff1673ffffffffffffffffffffffffffffffffffffffff163373ffffffffffffffffffffffffffffffffffffffff16141561134d576001915061135a565b80806001019150506112cc565b5080156115b757600160026000878152602001908152602001600020600c016000828254019250508190555083156113b257600160026000878152602001908152602001600020600d01600082825401925050819055505b600a60026000878152602001908152602001600020600d01541015806114115750600a60026000878152602001908152602001600020600d0154108015611410575060045460026000878152602001908152602001600020600c0154145b5b156115b657600a60026000878152602001908152602001600020600d01541015156114575760036002600087815260200190815260200160002060090181905550611474565b600560026000878152602001908152602001600020600901819055505b600060045461148287610866565b81151561148b57fe5b04905060008090505b83805490508110156115b3576000809054906101000a900473ffffffffffffffffffffffffffffffffffffffff1673ffffffffffffffffffffffffffffffffffffffff16630356613b8886848154811015156114ec57fe5b9060005260206000200160009054906101000a900473ffffffffffffffffffffffffffffffffffffffff16856040518463ffffffff167c010000000000000000000000000000000000000000000000000000000002815260040161155293929190613832565b602060405180830381600087803b15801561156c57600080fd5b505af1158015611580573d6000803e3d6000fd5b505050506040513d601f19601f820116820180604052506115a491908101906132dc565b92508080600101915050611494565b50505b5b809250505092915050565b60008082148061165557506002600083815260200190815260200160002060050160009054906101000a900473ffffffffffffffffffffffffffffffffffffffff1673ffffffffffffffffffffffffffffffffffffffff163373ffffffffffffffffffffffffffffffffffffffff16148015611654575060036002600084815260200190815260200160002060090154105b5b156118f5576101e060405190810160405280600954815260200186815260200187815260200185815260200160006040519080825280602002602001820160405280156116b657816020015b60608152602001906001900390816116a15790505b5081526020013373ffffffffffffffffffffffffffffffffffffffff1681526020018481526020018381526020016000815260200160008152602001600081526020016000815260200160008152602001600081526020014281525060026000600954815260200190815260200160002060008201518160000155602082015181600101908051906020019061174d929190612ee0565b50604082015181600201908051906020019061176a929190612ee0565b506060820151816003019080519060200190611787929190612f60565b5060808201518160040190805190602001906117a4929190612f60565b5060a08201518160050160006101000a81548173ffffffffffffffffffffffffffffffffffffffff021916908373ffffffffffffffffffffffffffffffffffffffff16021790555060c0820151816006019080519060200190611808929190612ee0565b5060e082015181600701556101008201518160080155610120820151816009015561014082015181600a015561016082015181600b015561018082015181600c01556101a082015181600d01556101c082015181600e01559050506000821415156118da576009546002600084815260200190815260200160002060080181905550600260008381526020019081526020016000206009015460026000600954815260200190815260200160002060090181905550600460026000848152602001908152602001600020600901819055505b600960008154809291906001019190505550600190506118fa565b600090505b95945050505050565b6000600a825111151561191257fe5b600360026000858152602001908152602001600020600901541015611b21576002806000858152602001908152602001600020600901541415611ac5576060600660008581526020019081526020016000208054806020026020016040519081016040528092919081815260200182805480156119e457602002820191906000526020600020905b8160009054906101000a900473ffffffffffffffffffffffffffffffffffffffff1673ffffffffffffffffffffffffffffffffffffffff168152602001906001019080831161199a575b50505050509050600080905060008090505b8251811015611a60578281815181101515611a0d57fe5b9060200190602002015173ffffffffffffffffffffffffffffffffffffffff163373ffffffffffffffffffffffffffffffffffffffff161415611a535760019150611a60565b80806001019150506119f6565b508015611abb5760026000868152602001908152602001600020600401849080600181540180825580915050906001820390600052602060002001600090919290919091509080519060200190611ab8929190612fc0565b50505b8092505050611b26565b60026000848152602001908152602001600020600401829080600181540180825580915050906001820390600052602060002001600090919290919091509080519060200190611b16929190612fc0565b505060019050611b26565b600090505b92915050565b6060600560008373ffffffffffffffffffffffffffffffffffffffff1673ffffffffffffffffffffffffffffffffffffffff168152602001908152602001600020805480602002602001604051908101604052809291908181526020016000905b82821015611c49578382906000526020600020018054600181600116156101000203166002900480601f016020809104026020016040519081016040528092919081815260200182805460018160011615610100020316600290048015611c355780601f10611c0a57610100808354040283529160200191611c35565b820191906000526020600020905b815481529060010190602001808311611c1857829003601f168201915b505050505081526020019060010190611b8d565b505050509050919050565b60006060608060405190810160405280605481526020017f546f776172647320746865204175746f6d6174696320416e696d65204368617281526020017f616374657273204372656174696f6e20776974682047656e657261746976652081526020017f416476657273617269616c204e6574776f726b73000000000000000000000000815250905060606020604051908101604052806000815250905060606040805190810160405280600581526020017f616e696d65000000000000000000000000000000000000000000000000000000815250816000815181101515611d3957fe5b906020019060200201819052506040805190810160405280600d81526020017f64656570206c6561726e696e6700000000000000000000000000000000000000815250816001815181101515611d8b57fe5b906020019060200201819052506060608060405190810160405280604c81526020017f59616e67687561204a696e2c204a69616b6169205a68616e672c204d696e6a7581526020017f6e204c692c2059696e6774616f205469616e2c204875616368756e205a68752c81526020017f205a686968616f2046616e670000000000000000000000000000000000000000815250905060008090506101e06040519081016040528060095481526020018581526020018681526020018481526020016000604051908082528060200260200182016040528015611e8057816020015b6060815260200190600190039081611e6b5790505b5081526020013373ffffffffffffffffffffffffffffffffffffffff16815260200183815260200182815260200160008152602001600081526020016000815260200160008152602001600081526020016000815260200142815250600260006009548152602001908152602001600020600082015181600001556020820151816001019080519060200190611f17929190612ee0565b506040820151816002019080519060200190611f34929190612ee0565b506060820151816003019080519060200190611f51929190612f60565b506080820151816004019080519060200190611f6e929190612f60565b5060a08201518160050160006101000a81548173ffffffffffffffffffffffffffffffffffffffff021916908373ffffffffffffffffffffffffffffffffffffffff16021790555060c0820151816006019080519060200190611fd2929190612ee0565b5060e082015181600701556101008201518160080155610120820151816009015561014082015181600a015561016082015181600b015561018082015181600c01556101a082015181600d01556101c082015181600e01559050506009600081548092919060010191905055506060608060405190810160405280605b81526020017f5374796c65205472616e7366657220666f7220416e696d6520536b657463686581526020017f73207769746820456e68616e63656420526573696475616c20552d6e6574206181526020017f6e6420417578696c6961727920436c61737369666965722047414e0000000000815250905060606020604051908101604052806000815250905060606040805190810160405280600581526020017f616e696d6500000000000000000000000000000000000000000000000000000081525081600081518110151561212257fe5b906020019060200201819052506040805190810160405280600d81526020017f64656570206c6561726e696e670000000000000000000000000000000000000081525081600181518110151561217457fe5b9060200190602002018190525060606040805190810160405280601b81526020017f4c766d696e205a68616e672c205969204a692c2058696e204c696e0000000000815250905060008090506101e0604051908101604052806009548152602001858152602001868152602001848152602001600060405190808252806020026020018201604052801561221c57816020015b60608152602001906001900390816122075790505b5081526020013373ffffffffffffffffffffffffffffffffffffffff168152602001838152602001828152602001600081526020016000815260200160008152602001600081526020016000815260200160008152602001428152506002600060095481526020019081526020016000206000820151816000015560208201518160010190805190602001906122b3929190612ee0565b5060408201518160020190805190602001906122d0929190612ee0565b5060608201518160030190805190602001906122ed929190612f60565b50608082015181600401908051906020019061230a929190612f60565b5060a08201518160050160006101000a81548173ffffffffffffffffffffffffffffffffffffffff021916908373ffffffffffffffffffffffffffffffffffffffff16021790555060c082015181600601908051906020019061236e929190612ee0565b5060e082015181600701556101008201518160080155610120820151816009015561014082015181600a015561016082015181600b015561018082015181600c01556101a082015181600d01556101c082015181600e01559050506009600081548092919060010191905055506060608060405190810160405280605281526020017f557365722d477569646564204465657020416e696d65204c696e65204172742081526020017f436f6c6f72697a6174696f6e207769746820436f6e646974696f6e616c20416481526020017f76657273617269616c204e6574776f726b730000000000000000000000000000815250905060606020604051908101604052806000815250905060606040805190810160405280600581526020017f616e696d650000000000000000000000000000000000000000000000000000008152508160008151811015156124be57fe5b906020019060200201819052506040805190810160405280600d81526020017f64656570206c6561726e696e670000000000000000000000000000000000000081525081600181518110151561251057fe5b9060200190602002018190525060608060405190810160405280603e81526020017f5975616e7a68656e672043692c2058696e7a6875204d612c205a68696875692081526020017f57616e672c2048616f6a6965204c692c205a686f6e677875616e204c756f0000815250905060008090506101e060405190810160405280600954815260200185815260200186815260200184815260200160006040519080825280602002602001820160405280156125de57816020015b60608152602001906001900390816125c95790505b5081526020013373ffffffffffffffffffffffffffffffffffffffff16815260200183815260200182815260200160008152602001600081526020016000815260200160008152602001600081526020016000815260200142815250600260006009548152602001908152602001600020600082015181600001556020820151816001019080519060200190612675929190612ee0565b506040820151816002019080519060200190612692929190612ee0565b5060608201518160030190805190602001906126af929190612f60565b5060808201518160040190805190602001906126cc929190612f60565b5060a08201518160050160006101000a81548173ffffffffffffffffffffffffffffffffffffffff021916908373ffffffffffffffffffffffffffffffffffffffff16021790555060c0820151816006019080519060200190612730929190612ee0565b5060e082015181600701556101008201518160080155610120820151816009015561014082015181600a015561016082015181600b015561018082015181600c01556101a082015181600d01556101c082015181600e015590505060096000815480929190600101919050555060019f5050505050505050505050505050505090565b6060600260008381526020019081526020016000206006018054600181600116156101000203166002900480601f01602080910402602001604051908101604052809291908181526020018280546001816001161561010002031660029004801561285f5780601f106128345761010080835404028352916020019161285f565b820191906000526020600020905b81548152906001019060200180831161284257829003601f168201915b50505050509050919050565b606060026000838152602001908152602001600020600401805480602002602001604051908101604052809291908181526020016000905b8282101561295f578382906000526020600020018054600181600116156101000203166002900480601f01602080910402602001604051908101604052809291908181526020018280546001816001161561010002031660029004801561294b5780601f106129205761010080835404028352916020019161294b565b820191906000526020600020905b81548152906001019060200180831161292e57829003601f168201915b5050505050815260200190600101906128a3565b505050509050919050565b6000600954905090565b60006009548210151561298357fe5b600060026000848152602001908152602001600020600901541415156129a557fe5b60045460066000848152602001908152602001600020805490501015156129c857fe5b600360003373ffffffffffffffffffffffffffffffffffffffff1673ffffffffffffffffffffffffffffffffffffffff16815260200190815260200160002060009054906101000a900460ff161515612a1d57fe5b6060600560003373ffffffffffffffffffffffffffffffffffffffff1673ffffffffffffffffffffffffffffffffffffffff168152602001908152602001600020805480602002602001604051908101604052809291908181526020016000905b82821015612b3a578382906000526020600020018054600181600116156101000203166002900480601f016020809104026020016040519081016040528092919081815260200182805460018160011615610100020316600290048015612b265780601f10612afb57610100808354040283529160200191612b26565b820191906000526020600020905b815481529060010190602001808311612b0957829003601f168201915b505050505081526020019060010190612a7e565b505050509050606060026000858152602001908152602001600020600301805480602002602001604051908101604052809291908181526020016000905b82821015612c34578382906000526020600020018054600181600116156101000203166002900480601f016020809104026020016040519081016040528092919081815260200182805460018160011615610100020316600290048015612c205780601f10612bf557610100808354040283529160200191612c20565b820191906000526020600020905b815481529060010190602001808311612c0357829003601f168201915b505050505081526020019060010190612b78565b50505050905060008090505b8251811015612d3a5760008090505b8251811015612d2c57600115612d1f57600660008781526020019081526020016000203390806001815401808255809150509060018203906000526020600020016000909192909190916101000a81548173ffffffffffffffffffffffffffffffffffffffff021916908373ffffffffffffffffffffffffffffffffffffffff1602179055505060045460066000888152602001908152602001600020805490501415612d12576002806000888152602001908152602001600020600901819055505b6001945050505050612d42565b8180600101925050612c4f565b508080600101915050612c40565b506000925050505b919050565b6000612d5283610efb565b1515612d5a57fe5b60006002600085815260200190815260200160002060090154141515612d7c57fe5b60018210151515612d8957fe5b6000809054906101000a900473ffffffffffffffffffffffffffffffffffffffff1673ffffffffffffffffffffffffffffffffffffffff16630cff8e8f3385856040518463ffffffff167c0100000000000000000000000000000000000000000000000000000000028152600401612e03939291906136e4565b602060405180830381600087803b158015612e1d57600080fd5b505af1158015612e31573d6000803e3d6000fd5b505050506040513d601f19601f82011682018060405250612e5591908101906132dc565b905092915050565b828054828255906000526020600020908101928215612eac579160200282015b82811115612eab578251829080519060200190612e9b929190612ee0565b5091602001919060010190612e7d565b5b509050612eb99190613040565b5090565b608060405190810160405280600490602082028038833980820191505090505090565b828054600181600116156101000203166002900490600052602060002090601f016020900481019282601f10612f2157805160ff1916838001178555612f4f565b82800160010185558215612f4f579182015b82811115612f4e578251825591602001919060010190612f33565b5b509050612f5c919061306c565b5090565b828054828255906000526020600020908101928215612faf579160200282015b82811115612fae578251829080519060200190612f9e929190612ee0565b5091602001919060010190612f80565b5b509050612fbc9190613040565b5090565b828054600181600116156101000203166002900490600052602060002090601f016020900481019282601f1061300157805160ff191683800117855561302f565b8280016001018555821561302f579182015b8281111561302e578251825591602001919060010190613013565b5b50905061303c919061306c565b5090565b61306991905b80821115613065576000818161305c9190613091565b50600101613046565b5090565b90565b61308e91905b8082111561308a576000816000905550600101613072565b5090565b90565b50805460018160011615610100020316600290046000825580601f106130b757506130d6565b601f0160209004906000526020600020908101906130d5919061306c565b5b50565b60006130e582356139e0565b905092915050565b600082601f830112151561310057600080fd5b813561311361310e82613896565b613869565b9150818183526020840193506020810190508360005b83811015613159578135860161313f888261318b565b845260208401935060208301925050600181019050613129565b5050505092915050565b600061316f82356139f2565b905092915050565b600061318382516139f2565b905092915050565b600082601f830112151561319e57600080fd5b81356131b16131ac826138be565b613869565b915080825260208301602083018583830111156131cd57600080fd5b6131d8838284613a3e565b50505092915050565b600082601f83011215156131f457600080fd5b8135613207613202826138ea565b613869565b9150808252602083016020830185838301111561322357600080fd5b61322e838284613a3e565b50505092915050565b600061324382356139fe565b905092915050565b600061325782516139fe565b905092915050565b60006020828403121561327157600080fd5b600061327f848285016130d9565b91505092915050565b6000806040838503121561329b57600080fd5b60006132a9858286016130d9565b925050602083013567ffffffffffffffff8111156132c657600080fd5b6132d2858286016130ed565b9150509250929050565b6000602082840312156132ee57600080fd5b60006132fc84828501613177565b91505092915050565b600080600080600060a0868803121561331d57600080fd5b600086013567ffffffffffffffff81111561333757600080fd5b613343888289016131e1565b955050602086013567ffffffffffffffff81111561336057600080fd5b61336c888289016131e1565b945050604086013567ffffffffffffffff81111561338957600080fd5b613395888289016130ed565b935050606086013567ffffffffffffffff8111156133b257600080fd5b6133be888289016131e1565b92505060806133cf88828901613237565b9150509295509295909350565b6000602082840312156133ee57600080fd5b60006133fc84828501613237565b91505092915050565b60006020828403121561341757600080fd5b60006134258482850161324b565b91505092915050565b6000806040838503121561344157600080fd5b600061344f85828601613237565b925050602061346085828601613163565b9150509250929050565b6000806040838503121561347d57600080fd5b600061348b85828601613237565b925050602083013567ffffffffffffffff8111156134a857600080fd5b6134b4858286016131e1565b9150509250929050565b6000806000606084860312156134d357600080fd5b60006134e186828701613237565b93505060206134f286828701613237565b925050604061350386828701613237565b9150509250925092565b61351681613a08565b82525050565b61352581613998565b82525050565b60006135368261393a565b80845260208401935061354883613916565b60005b8281101561357a5761355e86835161351c565b61356782613971565b915060208601955060018101905061354b565b50849250505092915050565b600061359182613945565b808452602084019350836020820285016135aa85613923565b60005b848110156135e35783830388526135c5838351613684565b92506135d08261397e565b91506020880197506001810190506135ad565b508196508694505050505092915050565b6135fd81613950565b61360682613930565b60005b828110156136385761361c8583516136ba565b6136258261398b565b9150602085019450600181019050613609565b5050505050565b613648816139aa565b82525050565b600061365982613966565b80845261366d816020860160208601613a4d565b61367681613a80565b602085010191505092915050565b600061368f8261395b565b8084526136a3816020860160208601613a4d565b6136ac81613a80565b602085010191505092915050565b6136c3816139d6565b82525050565b60006020820190506136de600083018461351c565b92915050565b60006060820190506136f9600083018661350d565b61370660208301856136ba565b61371360408301846136ba565b949350505050565b60006020820190508181036000830152613735818461352b565b905092915050565b600060208201905081810360008301526137578184613586565b905092915050565b600060808201905061377460008301846135f4565b92915050565b600060208201905061378f600083018461363f565b92915050565b600060208201905081810360008301526137af818461364e565b905092915050565b60006020820190506137cc60008301846136ba565b92915050565b60006040820190506137e760008301856136ba565b6137f4602083018461350d565b9392505050565b600060608201905061381060008301866136ba565b61381d602083018561350d565b61382a60408301846136ba565b949350505050565b600060608201905061384760008301866136ba565b613854602083018561351c565b61386160408301846136ba565b949350505050565b6000604051905081810181811067ffffffffffffffff8211171561388c57600080fd5b8060405250919050565b600067ffffffffffffffff8211156138ad57600080fd5b602082029050602081019050919050565b600067ffffffffffffffff8211156138d557600080fd5b601f19601f8301169050602081019050919050565b600067ffffffffffffffff82111561390157600080fd5b601f19601f8301169050602081019050919050565b6000602082019050919050565b6000602082019050919050565b6000819050919050565b600081519050919050565b600081519050919050565b600060049050919050565b600081519050919050565b600081519050919050565b6000602082019050919050565b6000602082019050919050565b6000602082019050919050565b60006139a3826139b6565b9050919050565b60008115159050919050565b600073ffffffffffffffffffffffffffffffffffffffff82169050919050565b6000819050919050565b60006139eb826139b6565b9050919050565b60008115159050919050565b6000819050919050565b6000613a1382613a1a565b9050919050565b6000613a2582613a2c565b9050919050565b6000613a37826139b6565b9050919050565b82818337600083830152505050565b60005b83811015613a6b578082015181840152602081019050613a50565b83811115613a7a576000848401525b50505050565b6000601f19601f830116905091905056fea265627a7a723058208705e61020552860f96a8b3801d89648ff7b4f348259c170dbf2f2f8b6582a786c6578706572696d656e74616cf50037",
  "source": "pragma solidity 0.5.0;\npragma experimental ABIEncoderV2;\nimport \"./CAJCoin.sol\";\n\ncontract Review {\n\n    //token contract\n    CAJCoin tokenContract;\n\n    address public devAddress;\n\n    //Paper struct\n    struct Paper {\n        //id of the paper\n        uint256 id;\n        //file url of paper\n        string location;\n        //title of paper\n        string title;\n        //paper tags\n        string[] tags;\n        //comments\n        string[] comments;\n        // addr uploader of paper\n        address author;\n        //name of author & creds\n        string authorNameCreds;\n        //id of previous paper if this is a revision\n        uint256 prevId;\n        //id of nect paper if this is an old copy\n        uint256 nextId;\n        //state of the paper,\n        //(0 unreviewed, 1 ready for review, 2 under review (only professionals can review), 3 published, 4 old version of a different paper, 5 for dead)\n        uint state;\n        //vote related stuff\n        uint256 userVotes;\n        uint256 userScore;\n        uint reviewerVotes;\n        uint reviewerScore;\n        //date\n        uint256 date;\n\n    }\n\n    // paper ids to paper objects\n    mapping(uint256 => Paper) private papers;\n\n    //mapping of addresses to booleans representing wether an address is \"verified\"\n    mapping(address => bool) private verifiedUsers;\n\n    //constant; max number of professional reviewers until paper is pushed to being reviewed and published\n    uint256 NUMBER_OF_REVIEWERS = 10;\n\n    //mapping of an address to the topics the verified user is allowed to review\n    mapping(address => string[]) allowedReviewerTopics;\n\n    //mapping of reviewers currently reviewing a paper\n    mapping(uint256 => address[]) private reviewersForPaper;\n\n    //track if reviewers and users have alreayd voted on a paper\n    mapping(uint256 => mapping(address => bool)) private reviewerHasVoted;\n    mapping(uint256 => mapping(address => bool)) private userHasVoted;\n\n    //next id to be assigned\n    uint256 private currentId;\n\n\n    // constructor\n    constructor() public {//(uint threshold) public {\n        // 0 is used as a null value for ids\n        currentId = 1;\n        devAddress = msg.sender;\n        verifiedUsers[devAddress] = true;\n        // impliment some sort of limit on staking tokens\n        //tokenContract = CAJCoin(coinAddr);\n    }\n\n    function sample () public returns (bool) {\n        string memory _title = \"Towards the Automatic Anime Characters Creation with Generative Adversarial Networks\";\n        string memory _location = \"\";\n        string[] memory _tags;\n        _tags[0] = \"anime\";\n        _tags[1] = \"deep learning\";\n        string memory _authorNameCreds = \"Yanghua Jin, Jiakai Zhang, Minjun Li, Yingtao Tian, Huachun Zhu, Zhihao Fang\";\n        uint256 _prevId = 0;\n        papers[currentId] = Paper(currentId, _location, _title, _tags, new string[](0), msg.sender, _authorNameCreds, _prevId, 0, 0, 0, 0, 0, 0, block.timestamp);\n        currentId++;\n\n        string memory yeet1 = \"Style Transfer for Anime Sketches with Enhanced Residual U-net and Auxiliary Classifier GAN\";\n        string memory yeet2 = \"\";\n        string[] memory t;\n        t[0] = \"anime\";\n        t[1] = \"deep learning\";\n        string memory yeet3 = \"Lvmin Zhang, Yi Ji, Xin Lin\";\n        uint256 yeet4 = 0;\n        papers[currentId] = Paper(currentId, yeet2, yeet1, t, new string[](0), msg.sender, yeet3, yeet4, 0, 0, 0, 0, 0, 0, block.timestamp);\n        currentId++;\n\n       string memory one = \"User-Guided Deep Anime Line Art Colorization with Conditional Adversarial Networks\";\n       string memory two = \"\";\n       string[] memory more;\n       more[0] = \"anime\";\n       more[1] = \"deep learning\";\n       string memory three = \"Yuanzheng Ci, Xinzhu Ma, Zhihui Wang, Haojie Li, Zhongxuan Luo\";\n       uint256 four = 0;\n       papers[currentId] = Paper(currentId, two, one, more, new string[](0), msg.sender, three, four, 0, 0, 0, 0, 0, 0, block.timestamp);\n       currentId++;\n       return true;\n    }\n\n    //getter for current ID; actually the next id to be assigned\n    function getCurrentID() public returns (uint256 id) {\n        return currentId;\n    }\n\n    //check if a paper exists\n    function paperExists(uint256 _id) public returns (bool exists) {\n        return _id < getCurrentID() && _id > 0;\n    }\n\n    // add a new paper with the specified fields\n    function addPaper(string memory _title, string memory _location, string[] memory _tags, string memory _authorNameCreds, uint256 _prevID) public returns (bool success) {\n        if (_prevID == 0 ||\n            (msg.sender == papers[_prevID].author) && papers[_prevID].state < 3) {\n                papers[currentId] = Paper(currentId, _location, _title, _tags, new string[](0), msg.sender, _authorNameCreds, _prevID, 0, 0, 0, 0, 0, 0, block.timestamp);\n                if (_prevID != 0) {\n                    papers[_prevID].nextId = currentId;\n                    papers[currentId].state = papers[_prevID].state;\n                    papers[_prevID].state = 4;\n                }\n                currentId++;\n                return true;\n        }\n        return false;\n    }\n\n    //getter methods for papers\n    function getPaperTitle(uint256 _id) public returns (string memory) {\n        string memory title = papers[_id].title;\n        return title;\n    }\n\n    function getPaperLocation(uint256 _id) public returns (string memory location) {\n        location = papers[_id].location;\n    }\n\n    function getPaperTags(uint256 _id) public returns (string[] memory tags) {\n        tags = papers[_id].tags;\n    }\n\n    function getPaperComments(uint256 _id) public returns (string[] memory comments) {\n        comments = papers[_id].comments;\n    }\n\n    function getPaperAuthor(uint256 _id) public returns (address author) {\n        author = papers[_id].author;\n    }\n\n    function getPaperAuthorName(uint256 _id) public returns (string memory author) {\n        author = papers[_id].authorNameCreds;\n    }\n\n    function getPaperPrevId(uint256 _id) public returns (uint256 prevId) {\n        prevId = papers[_id].prevId;\n    }\n\n    function getPaperNextId(uint256 _id) public returns (uint256 nextId) {\n        nextId = papers[_id].nextId;\n    }\n\n    function getPaperState(uint256 _id) public returns (uint256 state) {\n        state = papers[_id].state;\n    }\n\n    function getPaperVotes(uint256 _id) public returns (uint256[4] memory votes) {\n        votes = [papers[_id].userScore, papers[_id].userVotes, papers[_id].reviewerScore, papers[_id].reviewerVotes];\n    }\n\n    function getPaperDate(uint256 _id) public returns (uint256 date) {\n        date = papers[_id].date;\n    }\n\n    //user signs up to review a paper\n    function addReviewerForPaper(uint256 _id) public returns (bool success) {\n        //first check if the paper can take more reviewers\n        assert(_id < currentId);\n        assert(papers[_id].state == 0);\n        assert(reviewersForPaper[_id].length < NUMBER_OF_REVIEWERS);\n        //check if user is a reviewer\n        assert(verifiedUsers[msg.sender]);\n        //check for tags, and if they match, add the user and return true\n        //if this would reach the limit, change the state of the paper as well\n        string[] memory topics = allowedReviewerTopics[msg.sender];\n        string[] memory tags = papers[_id].tags;\n        for (uint i = 0; i < topics.length; i++) {\n            for (uint j = 0; j < tags.length; i++) {\n                if (true) {\n                    reviewersForPaper[_id].push(msg.sender);\n                    if (reviewersForPaper[_id].length == NUMBER_OF_REVIEWERS) {\n                        papers[_id].state = 2; //now, only professionals can review this paper\n                    }\n                    return true;\n                }\n            }\n        }\n        return false;\n    }\n\n    //comment on papers\n    function addComment(uint256 _id, string memory _comment) public returns (bool success) {\n        assert(bytes(_comment).length > 10);\n        if (papers[_id].state < 3) {\n            //if the paper is under review, only reviewers can comment\n            if(papers[_id].state == 2) {\n                address[] memory reviewers = reviewersForPaper[_id];\n                bool x = false;\n                for (uint i = 0; i < reviewers.length; i++) {\n                    if (msg.sender == reviewers[i]) {\n                        x = true;\n                        break;\n                    }\n                }\n\n                if (x) {\n                    papers[_id].comments.push(_comment);\n                }\n                return x;\n            } else {\n                papers[_id].comments.push(_comment);\n                return true;\n            }\n        }\n        return false;\n    }\n\n    //get reviewers for a paper\n    function getReviewersForPaper(uint256 _id) public returns (address[] memory reviewers) {\n        reviewers = reviewersForPaper[_id];\n    }\n\n    //get topics for reviewer\n    function getTopicsForReviewer(address _reviewer) public returns (string[] memory topics) {\n        topics = allowedReviewerTopics[_reviewer];\n    }\n\n    //verify a user, only the dev account can do this because we onboard them\n    function addVerifiedUser(address _user) public returns (bool success) {\n        if (msg.sender == devAddress) {\n            verifiedUsers[_user] = true;\n            return true;\n        }\n        return false;\n    }\n\n    // reset the topics for a reviewer, only dev can do this\n    function addTopicsForReviewer(address _user, string[] memory _topics) public returns (bool success) {\n        if (msg.sender == devAddress) {\n            allowedReviewerTopics[_user] = _topics;\n            return true;\n        }\n        return false;\n    }\n\n    //reviewer votes on a paper\n    function reviewerVoteOnPaper(uint256 _id, bool vote) public returns (bool success) {\n        assert(verifiedUsers[msg.sender]);\n        assert(reviewerHasVoted[_id][msg.sender] == false);\n        address[] storage reviewers = reviewersForPaper[_id];\n        bool x = false;\n        for (uint i = 0; i < reviewers.length; i++) {\n            if (msg.sender == reviewers[i]) {\n                x = true;\n                break;\n            }\n        }\n\n        if (x) {\n            papers[_id].reviewerVotes += 1;\n            if (vote) {\n                papers[_id].reviewerScore += 1;\n            }\n\n            //check if paper is to be published or killed yet and distribute tokens\n            if(papers[_id].reviewerScore >= 10 ||\n                (papers[_id].reviewerScore < 10 && papers[_id].reviewerVotes == NUMBER_OF_REVIEWERS)) {\n                if (papers[_id].reviewerScore >= 10) {\n                    //publish\n                    papers[_id].state = 3;\n                } else {\n                    //kill\n                    papers[_id].state = 5;\n                }\n                //distribute tokens\n                uint256 amountToDistriute = getNumTokens(_id) / NUMBER_OF_REVIEWERS;\n                for (uint i = 0; i < reviewers.length; i++) {\n                    x = tokenContract.collectTokens(_id, reviewers[i], amountToDistriute);\n                }\n            }\n        }\n        return x;\n    }\n\n    // vote function updates given paper (passed in id) with the vote associated with the msg.sender\n    // method guards against double voting and staying within voting range [0, 10]\n    function userVoteOnPaper(uint256 _id, uint256 _vote, uint256 _amount) public returns (bool success) {\n        assert(_id < currentId);\n        assert(_vote > 0 && _vote <= 10);\n        assert(!userHasVoted[_id][msg.sender]);\n        if (_amount < 1) {\n            return false;\n        }\n        stakeTokens(_id, _amount);\n        papers[_id].userScore += _vote;\n        papers[_id].userVotes += 1;\n        return true;\n    }\n\n    // stake tokens onto an existing paper (staked token value contributes to review process)\n    function stakeTokens(uint256 _id, uint256 _amount) private returns (bool success) {\n        assert(paperExists(_id));\n        assert(papers[_id].state == 0);\n        assert(_amount >= 1);\n        success = tokenContract.stakeTokens(msg.sender, _id, _amount);\n\n    }\n\n    // revokes all of a user's tokens from an old revision of a paper\n    function revokeTokens(uint256 _id) public returns (bool success) {\n        require(papers[_id].state == 4); //old draft or unreviewed\n        uint256 amount = tokenContract.tokensStakedByUser(_id, msg.sender);\n        return tokenContract.collectTokens(_id, msg.sender, amount);\n    }\n\n    //get current number of tokens for a paper\n    function getNumTokens(uint256 _id) public returns (uint256) {\n        return tokenContract.paperBalance(_id);\n    }\n\n    function setContract(address addr) public {\n        assert(msg.sender == devAddress);\n        tokenContract = CAJCoin(addr);\n        //sample();\n    }\n\n}\n",
  "sourcePath": "/Users/dylantran/Desktop/curatedacademicjournal/contracts/Review.sol",
  "compiler": {
    "name": "solc",
    "version": "0.5.0+commit.1d4f565a.Emscripten.clang"
  },
  "schemaVersion": "3.0.6",
  "updatedAt": "2019-05-06T20:24:54.287Z",
  "devdoc": {
    "methods": {}
  },
  "userdoc": {
    "methods": {}
  }
}